:020000040800F2
:1000000068120020F9020008EB47000833390008A5
:10001000E94700083B120008915400080000000066
:100020000000000000000000000000001D4E00085D
:100030003D12000800000000F94800084D4E00087D
:100040001303000813030008130300081303000838
:100050001303000813030008130300081303000828
:100060001303000813030008130300081303000818
:100070001303000813030008130300081303000808
:1000800013030008130300081303000813030008F8
:1000900013030008130300081303000813030008E8
:1000A00013030008130300081303000813030008D8
:1000B000054F00082D4F0008554F00081303000896
:1000C00013030008130300081303000813030008B8
:1000D00013030008FD530008FF53000801540008F3
:1000E0001303000813030008130300081303000898
:1000F0001303000813030008130300081303000888
:100100001303000813030008614F000813030008DD
:1001100013030008FB53000813030008130300082F
:100120001303000813030008130300081303000857
:100130001303000813030008130300081303000847
:100140001303000813030008130300081303000837
:100150001303000813030008130300081303000827
:100160001303000813030008130300081303000817
:100170001303000813030008130300080000000025
:1001800013030008130300081303000813030008F7
:1001900013030008130300081303000813030008E7
:1001A0000000000000000000130300081303000813
:1001B00013030008130300081303000813030008C7
:1001C00013030008130300080000000013030008D5
:1001D00013030008130300081303000813030008A7
:1001E0001303000813030008130300081303000897
:1001F000000000001303000800F002F800F06CF8A3
:100200000AA090E8000C82448344AAF10107DA4571
:1002100001D100F061F8AFF2090EBAE80F0013F057
:10022000010F18BFFB1A43F001031847B059000033
:10023000D05900000A444FF0000C10F8013B13F0B5
:10024000070408BF10F8014B1D1108BF10F8015B2F
:10025000641E05D010F8016B641E01F8016BF9D122
:1002600013F0080F1EBF10F8014BAD1C0C1B09D179
:100270006D1E58BF01F801CBFAD505E014F8016BEB
:1002800001F8016B6D1EF9D59142D6D3704700007D
:100290000023002400250026103A28BF78C1FBD88F
:1002A000520728BF30C148BF0B607047642900F077
:1002B0002581732900F06A82002070471FB505F080
:1002C000FCFB9DE8030000F09FFC00F091FA1FBDCD
:1002D00010B500F0F6FA10BD00F059FB1146FFF71B
:1002E000EDFF05F05FF900F05DFC03B4FFF7F0FFF0
:1002F00003BC00F01BFE0000094880470948004786
:10030000FEE7FEE7FEE7FEE7FEE7FEE7FEE7FEE7C5
:10031000FEE7FEE704480549054A064B7047000022
:10032000F54E0008F9010008680C00206812002052
:10033000680E0020680E002053EA020C00F069806D
:100340002DE9F04B4FF00006002B1FBFB3FA83F5E9
:1003500003FA05F424FA05F65E4012BF1643B2FA1A
:1003600082F502FA05F4C5F120051EBF22FA05FC4C
:1003700044EA0C04203556EA044C4FEA144418BFF2
:10038000641C4FF000084FF00009904271EB030C21
:1003900039D3002919BFB1FA81F701FA07F6B0FA8B
:1003A00080F700FA07F6C7F120071EBF20FA07FC06
:1003B00046EA0C062037B6FBF4FCA7EB0507103F16
:1003C00007F01F0BCBF120060CFA0BFB2CFA06F6FC
:1003D00044BFB3460026202FA4BF5E464FF0000B5B
:1003E0005BEA060C08BF4FF0010B19EB0B09ABFBE6
:1003F000027C48EB0608C01B06FB02CC0BFB03CCBF
:1004000071EB0C01C1E70B46024641464846BDE888
:10041000F08B13B54FF000004FF00001AFF30080F8
:10042000BDE81C40704700000FB4044910B503AA92
:10043000029800F0AFF910BC5DF814FB5C0B0020D3
:100440002DE9F0410E460446002020622046E16876
:10045000884730B3252805D0D4E901219047206A88
:10046000401CF2E7E168204600278847050018D0C5
:10047000A5F14100192802D820354FF40067324613
:10048000294620462760FFF711FF40B1012804D01C
:10049000F61D26F007060836D8E7361DD6E72846AB
:1004A000DAE7206ABDE8F08170B50C460546012AFE
:1004B00005D02878800600D5EA69002302E00123F0
:1004C00005E05B1C934202D2E05C0028F9D1A869E8
:1004D000E618C01AA861286A184428622846AFF3B3
:1004E000008004E0D5E9012114F8010B9047B442E3
:1004F000F8D32846AFF3008070BD00002DE9F0412D
:100500000646002410687529314616A510D0AFF3B1
:100510000080002802DA404213A507E031688A070C
:1005200001D512A502E0490704D511A5012401E077
:10053000AFF3008000210A2206F1240709E0B0FB96
:10054000F2FCB0FBF2F302FB1C003030785418468A
:10055000491C0028F3D123462A463046BDE8F04125
:1005600000F0A9B8000000002D0000002B000000E2
:1005700020000000032A40F2308010F0030C00F04D
:10058000158011F8013BBCF1020F624498BF11F8CD
:1005900001CB00F8013B38BF11F8013BA2F1040286
:1005A00098BF00F801CB38BF00F8013B11F00303FE
:1005B00000F02580083AC0F0088051F8043B083A62
:1005C00051F804CBA0E80810F5E7121D5CBF51F804
:1005D000043B40F8043BAFF30080D20724BF11F87E
:1005E000013B11F801CB48BF11F8012B24BF00F8E3
:1005F000013B00F801CB48BF00F8012B704710B554
:10060000203AC0F00B80B1E81850203AA0E818500A
:10061000B1E81850A0E81850BFF4F5AF5FEA027CCB
:1006200024BFB1E81850A0E8185044BF18C918C03A
:10063000BDE810405FEA827C24BF51F8043B40F8DB
:10064000043B08BF7047D20728BF31F8023B48BFC0
:1006500011F8012B28BF20F8023B48BF00F8012BFE
:1006600070474FF0000200B5134694469646203975
:1006700022BFA0E80C50A0E80C50B1F12001BFF45B
:10068000F7AF090728BFA0E80C5048BF0CC05DF8C1
:1006900004EB890028BF40F8042B08BF704748BF0F
:1006A00020F8022B11F0804F18BF00F8012B704783
:1006B0007047704770472DE9F0470D4699469246BE
:1006C000044600F124080168880604D5E06921F099
:1006D0001001216000E00120A84201DD471B00E07D
:1006E0000027A1697A1902EB0900081AA061207895
:1006F000C00602D42046AFF30080002608E0D4E90B
:1007000001211AF806009047206A401C761C2062DE
:100710004E45F4DB2078C0060AD52046AFF30080B2
:1007200006E0D4E9012130209047206A401C206275
:10073000381EA7F10107F4DC07E0D4E9012118F81D
:1007400005009047206A401C2062281EA5F1010583
:10075000F3DC2046AFF300802078000602D50220AB
:10076000BDE8F0870120FBE710B5436913B1AFF393
:10077000008001E0FFF798FE012010BD127800F123
:1007800024010A7000224A700122EDE711684FF03F
:10079000FF32E9E7074B70B50D467B4400F011F8D6
:1007A0000446284600F020F810B14FF0FF3070BD2D
:1007B000204670BDF34D000001694A1C02610878B3
:1007C000704700B58FB0CDE9013100210591054991
:1007D0007944CDE9031011466846FFF731FE0FB0AA
:1007E00000BD0000E5FFFFFF007B00F080007047C8
:1007F00010B542485421FFF734FF41485421FFF718
:1008000030FF40485421FFF72CFF3F493B483C4A0A
:100810003F4B08603D490A603A491960531C036523
:10082000481C1065012008653B48344A39A17844CA
:1008300000F01CF920B9384878440A3800F0BBF9B8
:1008400037482F4A35A1784400F010F920B93448D0
:1008500078440A3800F0AFF932482A4A2FA1784488
:1008600000F004F920B92F4878440A3800F0A3F9C1
:1008700040232248DC000021224600F0D4F820B1B9
:1008800025487844543800F096F91D482246402304
:10089000002100F0C8F820B121487844543800F015
:1008A0008AF9184822461023002100F0BCF80028DD
:1008B00006D01C487844BDE81040563800F07BB99B
:1008C00010BD104870B5006D20F001040B4800F019
:1008D00043F90B4800F040F90A4800F03DF909E0FF
:1008E000206D20F00105204600F036F9204600F08A
:1008F00073F82C46002CF3D170BD0000080B0020CB
:100900005C0B0020B00B00202C01002030010020E7
:100910003401002072000000AA520000770000009D
:1009200096520000825200000EB5CDE9000100F0A1
:10093000DDFA029069460120ABBE0EBD08B56946DE
:1009400000900220ABBE08BD1FB58DE807006946C8
:100950000520ABBE04B010BD1FB58DE80F00694681
:100960000620ABBEF6E708B5694600900920ABBE8D
:1009700008BD1CB5CDE9000169460A20ABBE1CBD0F
:10098000704708B5694600900C20ABBE08BD75469F
:1009900000F018F9AE4605006946534620F00700FE
:1009A000854618B020B5FFF7B5FCBDE820404FF0F4
:1009B00000064FF000074FF000084FF0000B21F049
:1009C0000701AC46ACE8C009ACE8C009ACE8C00916
:1009D000ACE8C0098D46704770B50446051F00F0AD
:1009E000F7F80068002C14BF446870BD002C18BFD5
:1009F000AC423CBF20466468F8D301680A18AA429A
:100A000018BF456003D12A68054611440160286873
:100A10004119A1421CBF6C6070BD616869602168AA
:100A20000844286070BD70B5C468A50713D065027E
:100A300011D4B2F5807F09D0B2F5007F06D0B2F5AF
:100A4000806F08D1012300F1240106E05D1E6FF0E4
:100A50007F46B54201D3012070BD0161C361416091
:100A600024F470611143C160002070BD2DE9F04194
:100A70000C4607461646104600F06EF82078611CBA
:100A800061280AD0722802D077283CD102E00125E3
:100A9000002405E00225042402E0082448F20205AF
:100AA00011F8010B2B2806D0622809D011F8010C8F
:100AB00074280AD00BE045F0030544F00204EFE788
:100AC00045F0040544F00104EAE744F01004384618
:100AD0002146FFF729FF411C15D0002131617160CB
:100AE0004FF40071F560F1617061200704D5304664
:100AF0000222002100F0E6F8306D40F00100306580
:100B00003046BDE8F0810020FBE72DE9F0410D46BD
:100B10000646104C206DC10704D0410804D020F0D7
:100B20000104F7E722460EE0542000F09CF807008D
:100B30000ED0206D47F0010108435421206538464E
:100B4000FFF78FFD3A4629463046BDE8F0418DE774
:100B50000020D6E7080B00202DE9F04704464FF0AF
:100B600000094FF0FF37C568D4E90486A80707D00D
:100B7000204600F057F93046FFF7E0FE002802DA81
:100B80003846BDE8F087280502D54046FFF724FF28
:100B90004C212046FFF765FD206D20F00100206507
:100BA0004846EEE710B50446AFF300802046BDE8A6
:100BB0001040FFF79ABB10B500F07EF9BDE8104079
:100BC00000F074B900487047040C00207047000022
:100BD000004870470C0C0020704770477047704702
:100BE00038B504460A4600206946AFF30080002865
:100BF00008BF38BD02460099204600F0A4F9012044
:100C000038BD012000F0F3B9F8B5AFF30080054618
:100C100000200C46102000BF0646A819A0420DD99E
:100C2000324669460020AFF30080070008BF00F09D
:100C3000DEF90098A04218BF0546C419FFF7C8FFA7
:100C400005600746F01D20F007004619284600F011
:100C500073F9B44208BFF8BDA21B31463868BDE83D
:100C6000F84000F070B970B50646FFF7B1FF0568AF
:100C700006F10B0020F00704B4429CBF002070BDB9
:100C80002B466A68BAB11068A04210D304F108017B
:100C900088423CBF5068586007D3516810194160C2
:100CA0001168091B016058601460101D70BD134667
:100CB0005268002AE7D121462846FFF791FF002815
:100CC000DED170BD2DE9F041044616460D46476958
:100CD000007B80072ED03846FFF745FE50BB3EB361
:100CE000012E02D0022E25D104E0204600F045F965
:100CF00005441DE03846FFF744FEE168002841F056
:100D00001001E16005DA204600F058F80120BDE846
:100D1000F081C9030BD56268E16A914200D811469F
:100D2000A26911442269891A814200DD08460544FE
:100D3000002D01DA0220EAE7E16A6068E268814298
:100D400006D29103E06203D522F4003141F0100293
:100D5000A6690027AE4213DCE16A814201D90B4645
:100D600000E0034603EB060C2369ACEB030CAC4537
:100D700006DD814201D98C4600E084469C4505D1C0
:100D8000A760276042F02000A5620DE0AD1BE66978
:100D9000AE1B8142A66000D90846C01A281A2060FE
:100DA0005819606022F0200003490840E0600020EC
:100DB00084F84870ABE70000BFCFD7FFC16821F4CB
:100DC000001141F08001C160002181600160704725
:100DD0002DE9F047814614460E464FF0FF38324861
:100DE000D5685769054209D03846A169FFF7C1FDAA
:100DF000002811DB2C48C0430540E5602B463246F5
:100E000049463846FFF7A0FDA16920F00042B21A1A
:100E100011440028A16103D02046FFF7CFFF4046D0
:100E2000BDE8F08770B504460569C06A616888420C
:100E300000D80846E16821F42011E160C90312D509
:100E4000A84208D02246411B2846FFF7C1FF10B137
:100E50004FF0FF3070BD0020E562C4E90150E0684A
:100E600020F48030E060002070BD10B50446C068FA
:100E700020F02000E060A16AA06988420DD02046E1
:100E8000FFF7D0FFE06820F4405040F01000E06031
:100E9000A06AA0612069E062606044F24001E068FD
:100EA0008843E06010BD000010000200002801D05F
:100EB00000F03CB87047000010B5014602A000F0F9
:100EC0007DF8012010BD000053494752545245445B
:100ED0003A2052656469726563743A2063616E27D3
:100EE00074206F70656E3A200000000010B5431C3E
:100EF00002E010F8011B71B18107FAD14FF0013205
:100F000002C88C1A8C4314EAC211F9D0C01A0A061E
:100F100003D0C01E10BDC01A10BD0A0401D0801E2F
:100F200010BD0902FCD0401E10BD00000149182070
:100F3000ABBEFEE72600020000210160C0E90110FF
:100F4000704710207047034640688C46002818BF41
:100F500088423CBF03464068F8D31868184488426A
:100F600007D00CF1030020F00700001D411A521AAF
:100F70000146081D0A60FFF72FBD10B50146C26883
:100F8000900703D0900607D5886A0AE000F03EF883
:100F900001210160881E10BD8B69486818440B69E7
:100FA000C01A91F848301BB191F84910401A10BD91
:100FB0001103FCD50028FADD401E10BD70B50546B2
:100FC0000C460A2000E06D1C00F018F835B12878B6
:100FD0000028F8D102E0641C00F010F814B1207869
:100FE0000028F8D1BDE870400A2000F007B810B51D
:100FF00000F010F8BDE81040FFF758BF08B569468B
:101000008DF800000320ABBE08BD0000004870470B
:10101000040C002010B5012805D0002103A0FFF723
:10102000CDFF012010BD09A1F8E700005349475248
:10103000544D454D3A204F7574206F6620686561A8
:1010400070206D656D6F7279000000003A20486570
:101050006170206D656D6F727920636F727275704B
:10106000746564004A496FF0706210B5D1F80433BA
:1010700023F44033C1F80433D1F8043344682343E4
:10108000C1F8043301684B6823F480734B60016836
:1010900003694C6844EA03234B6001684B6823F002
:1010A00040734B60016884684B6823434B60016860
:1010B0008B6823F400638B600168C4688B682343EA
:1010C0008B60816AD14201688A6822F070628A600E
:1010D00001680DD0836A8A681A438A6001688A6849
:1010E00022F040528A600168C36A8A681A4302E0AB
:1010F0008A6822F040528A6001688A6822F00202FF
:101100008A60016882698B6843EA42028A6090F8CB
:1011100020100029016811D01E4A4B6843F4006377
:101120004B6001684B6823F460434B600168446A7C
:101130004B6802EB443213434B6003E04A6822F4ED
:1011400000624A600168144BCA6A22F47002CA62E3
:101150000168848BCA6A03EB04531A43CA620168AC
:101160008A6822F400728A60016890F830208B68E7
:1011700043EA42228A6001688A6822F480628A60B7
:10118000016840698A6842EA8020886010BD0000DA
:101190000020014000E0FFFF0000F0FF00220248B5
:1011A000102100F02ABB000000000240012202488A
:1011B000102100F022BB000000000240002310B507
:1011C0000DE0C469C4F3C014002CFAD011F8014B2F
:1011D0008462C469C4F38014002CFAD05B1C93426F
:1011E000EFD310BDC269C2F3C012002AFAD08162E7
:1011F000C169C1F380110029FAD07047082101624A
:1012000050E8001F41F0200140E80012002AF7D109
:10121000704710B541F29414204603F00FFE2046AB
:1012200003F004FE204603F005FE204603F00AFE0C
:101230002046BDE8104003F0F3BDFEE77047000014
:1012400070B5184C01260025322000F093F902F009
:10125000FFFB02F00BFC02F017FCFFF7A7FF642076
:1012600000F088F9FFF79AFF267002F025FC02F0E3
:101270001FFC02F019FC6D1C022DE5DB4FF08040D5
:10128000A18D89B24163A18889B28163218989B224
:10129000C163A18A89B201640349208C80B20860CD
:1012A00070BD0000000000203408004072B6FEE768
:1012B000034A4FF080419288101A80B288637047C9
:1012C00000000020034A4FF080419288101A80B23B
:1012D0008863704700000020034A4FF08041128964
:1012E000101A80B2C863704700000020034A4FF014
:1012F00080411289104480B2C8637047000000200A
:10130000F8B50025009590F83C20012A1DD0012257
:1013100080F83C20664C0723D6070A68092A22D9A0
:10132000B24220D007680A3A02EB420CFA6803FA8C
:101330000CF39A43FA600A68A24208D102680B7A59
:10134000D76847EA0363D36022E00220F8BD07684C
:101350000A3A8B6802EB4202D7F80CC0934043EA8A
:101360000C03FB6014E0076802EB4202D7F810C0E0
:1013700093402CEA030CC7F810C003680F788A6802
:10138000D3F810C007EB4707BA4042EA0C021A61D3
:101390004A681F23072A16D20768521E02EB820CE6
:1013A0007A6B03FA0CF39A437A6303680F790A881D
:1013B0007F1ED3F834C092B207EB8707BA4042EAE7
:1013C0000C025A632DE007680D2A15D2D21F02EBDA
:1013D000820C3A6B03FA0CF39A433A6302680F7972
:1013E0000B88FF1FD2F830C09BB207EB8707BB40CA
:1013F00043EA0C03136314E00D3A02EB820CFA6A21
:1014000003FA0CF39A43FA6203680F790A880D3FD6
:10141000D3F82CC092B207EB8707BA4042EA0C021D
:10142000DA62244A0368934208D10B68B34205D1BB
:10143000D2F8043323F44003C2F804330368934220
:101440000ED10B68122B0BD1D2F8043323F4000316
:10145000C2F80433D2F8043343F48003C2F80433EF
:101460000368934220D10B68A34201D0112B1BD1FA
:10147000D2F8043323F48003C2F80433D2F80433DF
:1014800043F40003C2F804330968A1420CD10A49AD
:101490000A4A0968B1FBF2F101EB8101490000E061
:1014A000491E00910029FBD180F83C500020F8BD76
:1014B00012000010002001402801002040420F00CF
:1014C00070B504004FF0000503D0206C002610B169
:1014D00007E0012070BD204600F01CF8666484F827
:1014E0003C60206CC00610D4206C20F4885040F082
:1014F000020020642046FFF7B5FD6664206C20F0F2
:10150000020040F00100206400E0012584F83C6006
:10151000284670BD10B586B0044614216846FFF712
:10152000A0F81149206888421BD11048016841F495
:1015300080710160006800F4807005900B481438D9
:10154000016841F00401016000680321002200F0FD
:10155000040005900F208DE807000548694600F05B
:101560001BF806B010BD00000020014044380240C6
:101570000008024070B5044600F044F90546601CBE
:1015800002D004480078044400F03CF9401BA0421B
:10159000FAD370BD1C0100202DE9F84FDFF80CB222
:1015A000012403254FF00F0A00220BF1040E00BFA7
:1015B0000B6804FA02F63340B34278D10F7907F092
:1015C0000307012F01D0022F1AD187684FEA420981
:1015D000D1F80CC005FA09F827EA08070CFA09FC4B
:1015E0004CEA070CC0F808C0476891F804C0B7433C
:1015F000CCF3001C0CFA02FC4CEA070CC0F804C047
:101600000E79F643B6070BD0C6684FEA420C8F68D6
:1016100005FA0CF826EA080607FA0CF73743C76004
:101620000E7906F00306022E12D1D6084FEA427850
:1016300000EB860600960F69D6F820904FEAD86630
:101640000AFA06FCB74029EA0C063743009E3762C7
:101650000F7906684FEA420C07F0030705FA0CF809
:1016600007FA0CF726EA0806374307604E6816F4B7
:10167000403F1CD04E4E376847F48047376036688D
:1016800022F00308970706F480460096494E3F0F64
:101690004644B146D6F80868DFF81C810AFA07FC10
:1016A000404526EA0C0603D14FF0000C41E076E0FD
:1016B000DFF808C1604502D14FF0010C39E0DFF8D6
:1016C00000C1604502D14FF0020C32E0DFF8F4C0F7
:1016D000604502D14FF0030C2BE0DFF8ECC0604511
:1016E00002D14FF0040C24E0DFF8E0C0604502D1E5
:1016F0004FF0050C1DE0DFF8D8C0604502D14FF077
:10170000060C16E0DFF8CCC0604502D14FF0070CA4
:101710000FE0DFF8C4C0604502D14FF0080C08E0CC
:10172000DFF8B8C0604502D14FF0090C01E04FF07E
:101730000A0C0CFA07FC4CEA060CC9F808C84F68FA
:10174000DBF80060FF0226EA030600D51E43774659
:10175000CBF80060D1F804C0DEF800605FEA8C2CA2
:1017600026EA030600D51E43DFF840C03E60ACF118
:10177000040C4F68DCF80060BF0326EA030600D5BE
:101780001E430A4FCCF80060083FD1F804C03E6801
:101790005FEACC3C26EA030600D51E433E60521C9D
:1017A000102AFFF405AFBDE8F88F0000083C0140A7
:1017B0004438024000300140000002400004024072
:1017C00000080240000C02400010024000140240D9
:1017D00000180240001C0240002002400024024089
:1017E0000069084000D001207047426921EA0203E5
:1017F0000A4043EA0241816170470AB18161704742
:101800000904FBE701488068704700001C010020C4
:1018100030B590F84120202A24D190F84020012AA8
:1018200020D0012380F84030242280F8412020235A
:1018300000240268156825F0010515600268156826
:1018400025F480551560026815680D431560016820
:101850000A6842F001020A6080F8413080F8404096
:10186000002030BD022030BD30B590F84120202A44
:1018700022D190F84020012A1ED0012380F8403068
:10188000242280F84120202400250268136823F0D8
:10189000010313600268136823F4706343EA0121B3
:1018A000116001680A6842F001020A6080F8414054
:1018B00080F84050002030BD022030BD70B50400DB
:1018C00004D094F84100002510B106E0012070BD5D
:1018D000204684F8405000F04DF8242084F8410060
:1018E0002068016821F001010160D4E9001020F0B6
:1018F000706008612068816821F400418160E068BF
:1019000021680128A06806D040F404408860E0689F
:10191000022803D006E040F40040F7E721684FF4C6
:101920000060486020212068114A436813434360E7
:101930002068C26822F40042C26054F8106B0DCCDB
:10194000104340EA0320F06054F81C3CD4E9000244
:101950001043186054F81C0D026842F00102026046
:10196000656484F84110256384F84250002070BDFE
:10197000008000022DE9F047AAB00546142124A8F2
:10198000FEF76FFE90216846FEF76BFE286812276F
:10199000374D002637494FF00309354C1035884242
:1019A0004FF0040A22D1001419960090684600F006
:1019B0007BF908B1FFF77AFC206840F00200206054
:1019C0002068C022CDE9266900F0020024A9CDE9F3
:1019D00028A02948CDE92427FFF7DEFD286840F438
:1019E00000102860286800F400103CE02349884279
:1019F0003AD14FF480301B960090684600F054F9BD
:101A000008B1FFF753FC206840F004002060206814
:101A100000F004002990206840F001002060206858
:101A2000B8464FF400714C4600F001005746CDE92E
:101A30002418CDE92669CDE928A0114824A9FFF78B
:101A4000ABFD4FF480710F48CDE92418CDE9266431
:101A500024A92897FFF7A0FD286840F4000028601B
:101A6000286800F4000029902AB0BDE8F087000043
:101A7000303802400054004000040240005C004046
:101A800000080240000002400248816802781144C8
:101A9000816070471C010020032010B500F0BCF8E5
:101AA0000F2000F005F800F071F8002010BD0000D4
:101AB00070B50D4D04464FF47A700C4A29781268BF
:101AC000B0FBF1F0B2FBF0F000F006FE48B9102CCC
:101AD00007D200222146501E00F07EF800206C60E4
:101AE00070BD012070BD00001C01002028010020F5
:101AF000F0B5154C4378211D0A1D23600378F3B11E
:101B000043680B60057BC67A817A437B2D07847B13
:101B100045EA0665C77B90F809C0067A90F800E0B0
:101B200045EAC14040EA834040EA444040EA074079
:101B300040EA0C2040EA460040EA0E0001E00020A6
:101B400008601060F0BD000098ED00E0BFF35F8F0B
:101B5000044800210368034A23F480330360703291
:101B60001160704724ED00E0074A40F0010006498B
:101B700070321060086840F480300860BFF34F8F07
:101B8000BFF36F8F7047000024ED00E00A4808B5EE
:101B9000016841F080510160006800F080500090C1
:101BA0000548001D016841F480410160006800F4AF
:101BB0008040009008BD000040380240002809DB4A
:101BC000410900F01F028900012001F1E02190404D
:101BD000C1F80001704700000E4BF0B41B680D46C1
:101BE000C3F30223C3F10706042E00D90426191DEE
:101BF000072901D2002300E0DB1E012404FA06F1CC
:101C00009C40491E2940641E994014402143F0BC69
:101C100003F065BC0CED00E0064900F0070210B5CA
:101C20004FF6FF040868044B204040EA02201843A6
:101C3000086010BD0CED00E00000FA051848F8B58A
:101C4000016841F0805101600068164C00F080503E
:101C50000090206840F480302060FFF7D3FD4FF4FF
:101C60007A76054605E000BFFFF7CCFD401BB04289
:101C70000FD86068C003F7D5206840F400302060BA
:101C8000FFF7C0FD054606E0FFF7BCFD401BB04274
:101C900001D90320F8BD60688003F5D50020F8BDA8
:101CA00040380240007000402DE9F84F04460078AB
:101CB000DFF820944FF000063746C0070ED0D9F861
:101CC000001021F40001C9F80010D9F80010626B6F
:101CD0001143C9F80010606B00B90126FD4D206862
:101CE000843500030ED5E16B286820F440100843CA
:101CF0002860E06BB0F5801F01D010B102E0012632
:101D000000E0012720684FF4800BC0020CD5216C45
:101D1000286820F4400008432860206C584501D111
:101D2000012601E000B901272068C10100D5012684
:101D3000800666D5E7483830016841F0805101607F
:101D40000068DFF894A300F080500090DAF80010EB
:101D500041F48071CAF80010FFF754FD804605E099
:101D6000FFF750FDA0EB080064287DD8DAF80000EA
:101D7000C005F5D5DFF85C8308F16808D8F80000E5
:101D800010F440702AD0218E01F44071814225D098
:101D9000D8F80010D8F8002021F4407142F48032C5
:101DA000C8F80020D8F8002022F48032C8F80020BB
:101DB000C8F80010D8F80000C0070FD0FFF722FDC8
:101DC000824607E0FFF71EFDA0EB0A0141F28830D2
:101DD0008142CAD8D8F800008007F3D5206BC0F341
:101DE000012103297ED0D9F8001021F4F811C9F897
:101DF0000010228ED8F80010C2F30B021143C8F86D
:101E000000102078C00607D5286820F08070286070
:101E10002868A16B084328602188AE4888304904AF
:101E200005D5626E016821F44031114301602188BB
:101E3000090405D5A26E016821F440211143016017
:101E40002168C90305D5E26E016821F440111143F0
:101E500001602168890305D5226F016821F44001E2
:101E600011430160217800E032E1490605D5626C3A
:101E7000016821F00301114301602178090605D5AD
:101E8000A26C016821F00C01114301602188C90591
:101E900005D5E26C016821F0300111430160218811
:101EA000890505D5226D016821F0C001114301604B
:101EB0002188490505D5626D016821F440711143FF
:101EC00001602188090505D5A26D016821F44061F2
:101ED000114301602188C90407D5E26D016821F42E
:101EE000405100E065E0114301602188890405D577
:101EF000226E016821F440411143016021684902CA
:101F000005D5A26F016821F080611143016021684D
:101F10004FF0006A890209D5E26F016821F0006183
:101F200011430160E16F514500D101272168490348
:101F300005D5626F016821F040711143016021688D
:101F4000090206D5D4F88020016821F080511143A0
:101F500001602168490106D5D4F88420016821F088
:101F60000051114301602068000106D5D4F88810A3
:101F7000286820F00070084328602068C00006D55B
:101F8000D4F88C10286820F0806008432860DFF8BF
:101F90004C91012E02D0206880017CD5D9F8000038
:101FA0004E4620F08060C9F80000FFF72BFC804609
:101FB00010E04B4AD9F80030104023F4F8120243E5
:101FC000C9F8002015E700BFFFF71CFCA0EB0800D4
:101FD00064287DD830680001F6D421783D487C30F3
:101FE000C90712D0616B81B9237A62680168D0F8A1
:101FF00000C09201C1F3014142EA0142CCF3036106
:1020000042EA016141EA0371016021680A0303D5D4
:10201000E26BB2F5801F04D0C9021AD5216C594574
:1020200017D16368016894F80CC002689B01C1F382
:10203000014143EA0141C2F3027241EA0C6141EA03
:10204000027101602968626A21F01F01521E11436A
:1020500029602168C90110D5238A62680168D0F817
:1020600000C09201C1F3036142EA034242EA016205
:10207000CCF3027142EA01710160216889010ED539
:102080006168228A237B890194F808C041EA0241F1
:1020900041EA036100E014E041EA0C71016031683B
:1020A000B04641F080613160FFF7ACFB064604E0CA
:1020B000FFF7A8FB801B64286DD8D8F8000000014A
:1020C000F6D5E7B3D9F800004E4620F0805009E07D
:1020D00061E0000008380240007000400038024013
:1020E000FFFCFF0FC9F80000FFF78CFB074604E078
:1020F000FFF788FBC01B64284DD83068C0438000C0
:10210000F6D5216828480A0301D5E26B1AB1C90245
:102110001DD5216CD9B963690168277E02689B01CE
:10212000C1F3014143EA0143C2F3027143EA07628A
:1021300042EA0171016029686FF0FF0300E031E0BD
:10214000A26A21F4F85103EB0222114329602168AD
:10215000890212D5E16F51450FD1218C6269036864
:102160009401026844EA0144C3F3036144EA016351
:10217000C2F3027143EA01710160306840F080509F
:102180003060FFF73FFB044608E000BFFFF73AFB73
:10219000001B642802D90320BDE8F88F3068C043D3
:1021A0008000F3D40020F7E7883802402DE9F0479B
:1021B00005000F4663D0444E306800F00F00B8426F
:1021C00009D2306820F00F0038433060306800F0EA
:1021D0000F00B84253D128683C4C810712D5400704
:1021E00003D5206840F4E05020602878000703D52C
:1021F000206840F460402060A968206820F0F0006A
:10220000084320602878C0072AD030496868083918
:10221000012810D00968022810D0890700292EDA79
:10222000216821F0030101432160FFF7EBFA8046AA
:1022300041F288390DE009688903EFE78901EDE78C
:10224000FFF7E0FAA0EB0801494502D90320BDE8F9
:10225000F0876868216801F00C01B1EB800FEFD1C5
:10226000306800F00F00B8420BD9306820F00F0042
:1022700038433060306800F00F00B84201D00120D0
:10228000E5E72878400705D5E968206820F4E050A4
:10229000084320602878000706D52869216821F4C2
:1022A000604141EAC000206000F018F82168084A47
:1022B000C1F30311515CC840064908600648006834
:1022C000FFF7F6FB0020C2E7003C0240083802405E
:1022D000C45A00082801002020010020154910B52B
:1022E0001548096811F00C0213D01449042A0FD0C4
:1022F000082A0ED10F4C241F2268236802F03F02E7
:102300005B0207D52068C0F38810A0FB010106E03E
:10231000084610BD2168C1F38811A1FB000100230C
:10232000FEF70AF82168C1F30141491C4900B0FBDE
:10233000F1F010BD083802400024F40040787D011F
:102340002DE9F84F04004FF000076ED02078DFF839
:102350007CA3AAF10408C007A8F104054CD0DAF860
:1023600000105046C1F38101012908D00068C0F374
:10237000810002280AD1D8F80000400206D528685A
:10238000800339D560680028DFD035E06068B0F59B
:10239000803F0BD010B1B0F5A02F11D0286820F4E9
:1023A00080302860286820F4802002E0286840F40B
:1023B00080302860606890B1FFF724FA06460AE092
:1023C000286840F480202860F0E700BFFFF71AFA81
:1023D000801B642872D828688003F7D50CE0FFF7CB
:1023E00011FA064605E000BFFFF70CFA801B6428CF
:1023F000F0D828688003F7D42078800742D5DAF82F
:102400000010504611F00C0F08D00068C0F3810096
:1024100002280BD1D8F80000400207D428688007B2
:1024200018D5E068012800D114E04AE1E0680028EE
:10243000286817D040F001002860FFF7E3F906464E
:1024400005E000BFFFF7DEF9801B0228C2D828682C
:102450008007F7D52069296821F0F80141EAC0001A
:1024600028600FE020F001002860FFF7CBF9064656
:1024700005E000BFFFF7C6F9801B02281ED82868B8
:102480008007F7D42078000729D5904861696C301F
:1024900000298146016812D041F001010160FFF777
:1024A000B1F9064605E000BFFFF7ACF9801B022832
:1024B00004D8D9F800008007F6D510E089E021F0B3
:1024C00001010160FFF79EF9064604E0FFF79AF963
:1024D000801B02287DD8D9F800008007F6D4207828
:1024E00040076BD5DFF8E49109F13809D9F800000D
:1024F000C0000BD4D9F8001041F08051C9F8001089
:10250000D9F80000012700F0805000907048016861
:10251000C90512D40168834641F480710160FFF758
:1025200071F9064605E000BFFFF76CF9801B6428CF
:102530004FD8DBF80000C005F6D5644EA0686836B9
:1025400001280AD008B1052811D0306820F0010018
:102550003060306820F0040002E0306840F0010094
:102560003060A068A0B1FFF74DF983460CE03068F9
:1025700040F004003060F0E7FFF744F9A0EB0B01F6
:1025800041F28830814268D830688007F4D50EE087
:10259000FFF738F9834607E0FFF734F9A0EB0B01AA
:1025A00041F28830814258D830688007F4D42FB186
:1025B000D9F8001021F08051C9F80010A069E0B3EB
:1025C000DAF80010C1F3810102294DD002282868F1
:1025D00000E042E020F08070286003D0FFF712F99D
:1025E00004463DE0FFF70EF9064604E0FFF70AF95E
:1025F000801B022831D828688001F7D4D4E909214A
:10260000DFF8D0C0D4E9070694F830304F0894F8CA
:102610002C1030430CEB074444EA8212104340EA8A
:10262000016040EA0370C8F80000286840F080703C
:102630002860FFF7E7F8044605E044E0FFF7E2F81A
:10264000001B022809D828688001F7D53BE000BFAD
:10265000FFF7D8F8001B022802D90320BDE8F88F45
:1026600028688001F4D42EE00128D8F8000028D092
:10267000E16900F480028A4223D1216A00F03F021E
:102680008A421ED1626A47F6C0710140B1EB821FD7
:1026900017D1A16A4FF0FF3200F4403302EB510131
:1026A000B3EB014F0DD194F82C1000F07062B2EB37
:1026B000016F06D194F8301000F0E040B0EB017FDC
:1026C00001D00120CAE70020C8E700000838024016
:1026D000007000400000FFFF401EB0F1807F10B589
:1026E00001D3012010BD4FF0E02460610F2160177D
:1026F00002F0F5FE0020A0610721216110BD7047A6
:1027000070477047F0B590F83C20012A3BD01F4E2F
:10271000012480F83C40022280F83D2002681C4DD4
:102720005368B242D2F808C001D0AA4203D14F6820
:1027300023F470033B430F6823F070031F4357607B
:102740000268B24213D0B2F1804F10D0114B9A42BE
:102750000DD0114B9A420AD0104B9A4207D0AA4290
:1027600005D00F4B9A4202D00E4B9A4204D1896891
:102770002CF0800319439160002180F83D4080F8DF
:102780003C100846F0BD0220F0BD000000000140F2
:10279000000401400004004000080040000C00401C
:1027A000004001400018004010B5040003D094F828
:1027B0003D0010B107E0012010BD002084F83C006E
:1027C000204600F023F8022084F83D002068211DF7
:1027D00002F0DAFB012084F8480084F83E0084F817
:1027E0003F0084F8400084F8410084F8420084F8F7
:1027F000430084F8440084F8450084F8460084F8D7
:10280000470084F83D00002010BD000008B50168B5
:102810001448B1F1804F14D0134A914220D101687D
:1028200041F00201016000680022114600F0020040
:1028300000901D20FFF7D0F91D20BDE80840FFF7EC
:10284000BDB9016841F00101016000680022114634
:1028500000F0010000901C20FFF7BEF91C20ECE7FF
:1028600008BD0000403802400004004090F83D10D0
:10287000012901D001207047174A022180F83D103C
:102880000168CB6843F00103CB600068904214D02C
:10289000B0F1804F11D0114988420ED010498842C2
:1028A0000BD01049884208D00F49884205D00F4903
:1028B000884202D00E49884207D181680D4A1140F2
:1028C000062906D0B1F5803F03D0016841F001012F
:1028D000016000207047000000000140000400403B
:1028E00000080040000C004000040140004001408E
:1028F0000018004007000100016841F21113CA6886
:1029000022F00102CA6001680A6A1A4207D10A6A03
:102910009B101A4203D10A6822F001020A600121C9
:1029200080F83D100020704770B5044690F83C00D8
:102930000025012817D0334B012684F83C60022083
:1029400084F83D0022689068184020F47F40906031
:102950000868502838D00DDC20284FD005DC90B313
:10296000102811D14AE0022070BD302846D04028FE
:102970000AD13BE060282FD070280DD0B0F5805FE1
:1029800003D0B0F5005F12D0012584F83D6000202F
:1029900084F83C00284670BD4A682068D1E90213DB
:1029A00002F065FB2068816841F0770109E04A6820
:1029B0002068D1E9021302F05AFB2068816841F4D3
:1029C00080418160E1E719E0CA684968206802F047
:1029D00095FC2068502106E0CA684968206802F02A
:1029E000DFFC2068602102F04BFBCEE7CA68496833
:1029F000206802F083FC20684021F4E72268014649
:102A00001046F0E788FFFEFF2DE9FF5FDFF8048442
:102A10000746016800254FF0020A4EF6602B4FF082
:102A20000106D8F800008142FB4C2ED1387F0128E6
:102A300006D0022851D0042875D00828F5D1E7E047
:102A4000206F4FF000010028F2481FD000F05AFF1D
:102A500020610021CDF800A0CDE90165ED48039586
:102A600000F03AFCEB480022694600F06DFAD8F815
:102A700000106FF0020008610021E64800F08AFBB8
:102A800010B1E6A0FDF7D0FC25670DE100F03AFF9C
:102A900060610021DF48CDE900560295039500F002
:102AA0001BFCDC480022694600F04EFAD8F8001002
:102AB0006FF0020008610021D64800F06BFB10B1F6
:102AC000D6A0FDF7B1FCD4E904018142A1EB0000DE
:102AD00000DC58442667A061E6E0606F4FF0040117
:102AE0000028CC4820D000F00DFFE0610421CDF893
:102AF00000A0CDE90165C748039500F0EDFBC5488E
:102B00000422694600F020FAD8F800106FF00400A3
:102B100008610421BF4800F03DFB10B1BFA0FDF7E4
:102B200083FC6567C0E026E000F0ECFE2062042133
:102B3000B848CDE900560295039500F0CDFBB548A5
:102B40000422694600F000FAD8F800106FF0040083
:102B500008610421AF4800F01DFB10B1AFA0FDF7E4
:102B600063FCD4E907018142A1EB000000DC58447A
:102B70006667606298E0A06F4FF008010028A548E2
:102B80001FD000F0BFFEA0620821CDF800A0CDE963
:102B90000165A048039500F09FFB9E480822694606
:102BA00000F0D2F9D8F800106FF008000861082191
:102BB000984800F0EFFA10B198A0FDF735FCA56732
:102BC00072E000F09FFEE06208219248CDE90056D5
:102BD0000295039500F080FB08226946384600F014
:102BE000B3F9D8F800106FF008000861082189488F
:102BF00000F0D0FA10B189A0FDF716FCD4E90A0163
:102C00008142A1EB000000DC5844A66720634BE042
:102C1000E06F4FF00C0100287E481FD000F072FEDC
:102C200060630C21CDF800A0CDE9016579480395DA
:102C300000F052FB77480C22694600F085F9D8F87D
:102C400000106FF0100008610C21724800F0A2FA29
:102C500010B172A0FDF7E8FBE56725E000F052FE39
:102C6000A0630C216B48CDE900560295039500F056
:102C700033FB68480C22694600F066F9D8F800106A
:102C80006FF0100008610C21624800F083FA10B167
:102C900062A0FDF7C9FBD4E90D018142A1EB000060
:102CA00000DC5844E667E063DFF86891396809F1B1
:102CB0004C09D9F8000081422ED1387FDFF85881C5
:102CC000012808F1800829D002287AD0042876D07B
:102CD000082821D1D8F80C004FF00C0100284846F4
:102CE0006ED000F00FFE60660C21CDF800A04846C3
:102CF000CDE90165039500F0EFFA0C2269464846DC
:102D000000F022F939686FF0100008610C21384694
:102D100000F040FAC8F80C50BDE8FF9FD8F800005A
:102D20004FF0000100283B4800F14C001FD000F09C
:102D3000E9FD206400213748CDF800A0CDE9016508
:102D40004C30039500F0C8FA3248002269464C30F6
:102D500000F0FAF8D9F800106FF0020008610021C5
:102D60002C484C3000F016FAC8F80050D4E700F0B8
:102D7000C9FD606400212748CDE900564C3002951A
:102D8000039500F0A9FA2348002269464C3000F070
:102D9000DBF8D9F800106FF00200086100211D482F
:102DA0004C3000F0F7F9D4E910108842A0EB010094
:102DB00000DC5844A064C8F80060ADE701E055E0CD
:102DC0009CE0D8F804004FF004010028114800F1FD
:102DD0004C0027D000F096FDE06404210D48CDF8AA
:102DE00000A0CDE901654C30039500F075FA094863
:102DF000042269464C3000F0A7F8D9F800106FF0B3
:102E000004000861042103484C3000F0C3F9C8F8FD
:102E1000045081E7700A00203C0000204552524FC8
:102E2000520D0A0000F06EFD206504214548CDE9F1
:102E300000560295039500F04FFA42480422694675
:102E400000F082F8D9F800106FF004000861042146
:102E50003C4800F09FF9D4E913108842A0EB010030
:102E600000DC58446065C8F8046055E7D8F80800ED
:102E70004FF00801002833481CD000F043FDA06546
:102E80000821CDF800A0CDE901652E48039500F09A
:102E900023FA2C480822694600F056F8D9F80010A9
:102EA0006FF0080008610821264800F073F9C8F89F
:102EB000085031E700F026FDE06508212148CDE902
:102EC00000560295039500F007FA1E48082269464D
:102ED00000F03AF8D9F800106FF0080008610821F6
:102EE000184800F057F9D4E916108842A0EB010009
:102EF00000DC58442066C8F808600DE700F002FDC9
:102F0000A0660C210F48CDE900560295039500F00C
:102F1000E3F90C480C22694600F016F8D9F80010C5
:102F20006FF0100008610C21064800F033F9D4E975
:102F300019108842A0EB010000DC5844E066C8F894
:102F40000C60E9E6BC0A00202DE9F041054690F846
:102F50003C0000260C46012810D0012085F83C00DA
:102F600072B1042A1CD0082A2CD00C2A51D0012678
:102F7000002085F83C003046BDE8F0810220FBE7E8
:102F8000E3682868D4E9001202F0CAF92868816968
:102F900021F00C01816128688169A26811430FE06A
:102FA000E3682868D4E9001202F00CFA2868816905
:102FB00021F44061816128688169A26841EA0221A7
:102FC0008161D5E7D4E900232868217B076A4FF4A3
:102FD000206C090727F4807707620CEA0222C76990
:102FE000D0F820C027F003071F432CF4206C27F0F3
:102FF000F00342EA0C0243EA1161C16102622868EF
:10300000C16921F00C01C1612868A268C16911433E
:1030100029E02868D4E90032E168076A4FF6FF7CAE
:103020004FF4204E27F4805707620CEA0131C7693C
:10303000D0F820C00EEA033327F4407747EA022293
:103040002CF4204C22F470421143C16143EA0C037A
:1030500003622868C16921F44061C1612868A168E0
:10306000C26942EA0121C16182E710B5040003D0C0
:1030700094F83D0010B107E0012010BD002084F855
:103080003C00204600F022F8022084F83D00206831
:10309000211D01F079FF012084F8480084F83E00EA
:1030A00084F83F0084F8400084F8410084F842002E
:1030B00084F8430084F8440084F8450084F846000E
:1030C00084F8470084F83D00002010BD30B587B07B
:1030D000044614216846FDF7C4FA294B00222468EF
:1030E0000220284D103B2649AC4221D10C6844F007
:1030F00004040C60096801F004010591196841F0AD
:1031000008011960196801F0080105914FF4704138
:103110000091CDE90102CDE903201B486946FEF785
:103120003BFA00221E201146FEF756FD1E2022E02B
:10313000164DAC4221D10C6844F008040C600968BB
:1031400001F008010591196841F001011960196841
:1031500001F0010105910F210091CDE90102CDE9B6
:1031600003200B486946FEF717FA00223220114669
:10317000FEF732FD3220FEF721FD07B030BD000022
:103180004038024000080040000C0240000C0040A3
:103190000000024030B504464FF0000579B1042923
:1031A00012D0082915D00C2918D0102919D094F85C
:1031B000430000BF94F84720012817D114E094F889
:1031C0003E0094F84420F7E794F83F0094F8452037
:1031D000F2E794F8400094F84620EDE794F84100B7
:1031E000E8E794F84200E5E7012A01D0012030BD6C
:1031F0004FF0020079B1042916D008291DD00C29FE
:103200004FD0102950D084F843000C2984F847008F
:103210004DD0012543E084F83E0084F84400206846
:10322000C26842F0020210E084F83F0084F84500D2
:103230002068C26842F0040207E084F8400084F885
:1032400046002068C26842F00802C260206801227D
:1032500001F000FF18492068884214D0B0F1804F77
:1032600011D0164988420ED0154988420BD0154915
:10327000884208D01449884205D01449884202D0B7
:103280001349884207D18168124A1140062906D0A5
:10329000B1F5803F03D0016841F00101016028468B
:1032A00030BD84F84100B0E784F84200ADE7206803
:1032B000C26842F01002C8E700000140000400406C
:1032C00000080040000C00400004014000400140A4
:1032D000001800400700010070B50D0004464FF0D3
:1032E000000607D0042D0AD0082D0DD00C2D10D0CB
:1032F000012635E02068C16821F002010DE0206858
:10330000C16821F0040108E02068C16821F00801CB
:1033100003E02068C16821F01001C160206800222C
:10332000294601F097FE206841F21112016A11420C
:1033300007D1016A9210114203D1016821F0010105
:1033400001604FF001006DB1042D10D0082D13D095
:103350000C2D16D0102D17D084F8430084F84700A8
:10336000304670BD84F83E0084F84400F8E784F8E5
:103370003F0084F84500F3E784F8400084F84600F5
:10338000EEE784F84100E9E784F84200E6E770B52B
:103390000446006800250169C943890715D4C1683E
:1033A000C943890711D4EA1E0261012121772068EF
:1033B00080698007204602D0FFF726FB04E000F07A
:1033C00007F9204600F0C9F9257720680169C9434B
:1033D000490717D4C168C943490713D402216FF0C4
:1033E0000402026121772068806910F4407F204642
:1033F00002D0FFF709FB04E000F0EAF8204600F0F5
:10340000ACF9257720680169C943090716D4C1685A
:10341000C943090712D404216FF008020261217721
:103420002068C0698007204602D0FFF7EDFA04E06B
:1034300000F0CEF8204600F090F925772068016969
:10344000C943C90617D4C168C943C90613D40821A2
:103450006FF01002026121772068C06910F4407F8C
:10346000204602D0FFF7D0FA04E000F0B1F8204681
:1034700000F073F9257720680169C943C90708D1AD
:10348000C168C943C90704D1891E0161204600F003
:10349000E1F920680169C943090609D4C168C94333
:1034A000090605D46FF0800101612046FFF728F975
:1034B00020680169C943C90509D4C168C94309061F
:1034C00005D46FF4807101612046FFF718F9206878
:1034D0000169C943490609D4C168C943490605D4ED
:1034E0006FF040010161204600F022FA2068016976
:1034F000C94389060BD4C168C943890607D46FF054
:10350000200101612046BDE87040FFF7FAB870BDA8
:10351000F0B587B0044614216846FDF7A2F822688A
:103520000025274902242748B2F1804F264E25D096
:10353000264B9A4220D10A6842F001020A600A68CA
:1035400002F0010205920A6842F002020A6009686C
:1035500001F002010591C0218DE83200CDE903544C
:103560006946FEF719F8032069468DE83100CDE978
:1035700003543046FEF710F807B0F0BD0A6842F079
:1035800001020A600A6802F0010205920A6842F02C
:1035900002020A600968012701F002010591202159
:1035A0008DE83200CDE903576946FDF7F5FF40F697
:1035B000084069468DE83100CDE903573046D9E728
:1035C0003038024000000240000402400004004085
:1035D000704770B5044690F83C0000260D4601285F
:1035E0000BD0012084F83C000C2A4AD007DC82B1C1
:1035F000042A20D0082A06D131E0022070BD102A0A
:1036000053D0142A63D00126002084F83C003046B1
:1036100070BD206801F03CFD2068816941F008011F
:1036200081612068816921F00401816120682A6933
:103630008169114311E0206801F064FD206881690F
:1036400041F4006181612068816921F480618161B8
:1036500020682969826942EA01218161D4E72068F2
:1036600001F08CFD2068C16941F00801C16120684A
:10367000C16921F00401C16120682A69C16911434F
:1036800011E0206801F0B6FD2068C16941F40061D5
:10369000C1612068C16921F48061C1612068296924
:1036A000C26942EA0121C161AEE7206801F0CEFDA6
:1036B0002068416D41F0080141652068416D21F0AD
:1036C0000401416520682A69416D114311E02068B9
:1036D00001F0E8FD2068416D41F40061416520681A
:1036E000416D21F48061416520682969426D42EA9B
:1036F0000121416588E710B5040003D094F83D002E
:1037000010B107E0012010BD002084F83C002046E5
:1037100000F022F8022084F83D002068211D01F00D
:1037200033FC012084F8480084F83E0084F83F0010
:1037300084F8400084F8410084F8420084F8430093
:1037400084F8440084F8450084F8460084F8470073
:1037500084F83D00002010BD7047704710B5044646
:103760004FF0020269B1042912D0082917D00C29A0
:103770001CD0102921D094F84300012824D0012026
:1037800010BD94F83E000128F9D184F83E201DE0D8
:1037900094F83F000128F2D184F83F2016E094F815
:1037A00040000128EBD184F840200FE094F841005C
:1037B0000128E4D184F8412008E094F8420001286F
:1037C000DDD184F8422001E084F843200122206802
:1037D00001F040FC17492068174A884201D0904206
:1037E00003D1436C43F4004343642068884213D000
:1037F000B0F1804F10D0114988420DD01049884255
:103800000AD01049884207D0904205D00E4988421C
:1038100002D00E49884207D181680D4A114006291D
:1038200006D0B1F5803F03D0016841F0010101608D
:10383000002010BD000001400004014000040040D1
:1038400000080040000C004000400140001800400B
:1038500007000100274970B5064600680968002581
:10386000254C884212D1E088401C80B2E0800528B7
:103870000CD12248218841F400412180016821F0C7
:1038800001010160002001F057FBE5801949306813
:1038900098310968884212D12089401C80B2208169
:1038A00005280CD11648618841F400416180016807
:1038B00021F001010160002001F058FB25810D4934
:1038C00030684C390968884212D16089401C608197
:1038D000208905280CD1A188800741F40041A180EE
:1038E000016921F001010161002001F011FB6581F6
:1038F00070BD0000240A00203C000020100400409D
:10390000100C004002464FF0000041B1042909D0DC
:1039100008290AD00C2901D11068006C7047106882
:10392000406B70471068806B70471068C06B7047C1
:103930007047FEE770B5344D0128344C4FF0010656
:103940001DD02878A0B101212046FDF749FFC0B164
:1039500002212046FDF744FF98B104212046FDF7DF
:103960003FFF70B108212046FDF73AFF012808D03B
:1039700001212046FDF734FF012831D042E02E70AE
:10398000E1E71E20FDF7F6FD00202870012120460A
:10399000FDF726FF80B102212046FDF721FF80B10F
:1039A00004212046FDF71CFF80B108212046FDF7C9
:1039B00017FF01280FD025E015A0FCF735FD0120E9
:1039C00070BD17A0FCF730FD022070BD18A0FCF7F9
:1039D0002BFD032070BD1AA0FCF726FD042070BD4E
:1039E00002212046FDF7FCFE01280BD104212046D0
:1039F000FDF7F6FE012805D108212046FDF7F0FE6F
:103A000000B92E70002070BD38000020000C02406C
:103A10004B4559315F50524553200D0A00000000BC
:103A20004B4559325F50524553200D0A00000000AB
:103A30004B4559335F50524553200D0A000000009A
:103A40004B4559345F50524553200D0A0000000089
:103A500001480421FDF7C9BE0010024000220248BF
:103A60000421FDF7CABE00000010024001480821F1
:103A7000FDF7BBBE00100240012202480821FDF7FD
:103A8000BCBE00000010024001481021FDF7ADBE91
:103A900000100240012202481021FDF7AEBE0000D6
:103AA00000100240FFF7F0BFFFF7F4BFFFF7DEBFE3
:103AB000FFF7E2BFFFF7CCBFFFF7D0BF044908B55F
:103AC0000A6802430A6009680140009108BD0000CD
:103AD00030380240044908B50A6802430A600968A0
:103AE0000140009108BD000040380240F0B50A686E
:103AF0000F25032492FAA2F2B2FA82F38FE0012793
:103B00009F4016EA07027CD04E68012E01D0022E9B
:103B100020D192FAA2F6876892FAA2FCB6FA86F64B
:103B2000BCFA8CFE4FEA460C8E684FEA4E0E04FA41
:103B30000CFC06FA0EF627EA0C0737438760D0F82C
:103B400004C0CF680E682CEA060C77434CEA070CD9
:103B5000C0F804C092FAA2FCC76892FAA2F6BCFAB6
:103B60008CFCB6FA86FE0E694FEA4C0C4FEA4E0EFC
:103B700004FA0CFC06FA0EF627EA0C073743C76076
:103B80004E68022E33D192FAA2F6B6FA86F6082EC5
:103B900016D292FAA2FC076A92FAA2F6BCFA8CFC40
:103BA000B6FA86FE4E694FEA8C0C4FEA8E0E05FA85
:103BB0000CFC06FA0EF627EA0C073743076216E0FC
:103BC000476A160A96FAA6FC96FAA6FE4E69BCFA51
:103BD0008CFCBEFA8EFE4FEA8C0C4FEA8E0E05FA74
:103BE0000CFC06FA0EF627EA0C073743476292FAF6
:103BF000A2FC066892FAA2F2BCFA8CFCB2FA82FE2F
:103C000000E00BE04A684FEA4C0C4FEA4E0E04FA13
:103C10000CF7BE4302FA0EF2164306605B1C0A68FC
:103C20001646DA407FF46BAF0020F0BD70B52A4E27
:103C3000C0284FF400454FF0000409D0B0F5407F94
:103C40001CD0B0F5405F25D0B0F5404F2ED03BE002
:103C500000F04AF84038B0F5400004D0402835D094
:103C6000802803D12CE001F013F805E001F010F8F2
:103C700000F0E4FF00F0F0FF044625E000F034F827
:103C800016494018EFD0B0F5807F1FD0B0F5007F07
:103C9000ECD115E000F028F811494018E3D0B0F558
:103CA000805F13D0B0F5005FE0D109E000F01CF8B0
:103CB0000C494018D7D0B0F5804F07D0A842D5D1D5
:103CC00000F088F800B12C46204670BD00F07AF86C
:103CD0000028F9D03446F7E70024F40000FFFFFC89
:103CE00000F0FFCF00C0FF3F02490968014041EAF0
:103CF000004070479038024070B52C4D03284FF4B7
:103D000000464FF0000407D00C281AD0B0F5406FE1
:103D10002AD0302834D041E000F04CF86FF4403124
:103D2000401804D001283BD0022803D132E000F033
:103D3000AFFF17E000F0ACFF00F080FF00F09AFF4B
:103D400010E000F037F8001FB0F54020EFD0042855
:103D500026D008281ED000BF00F09AFF00F06EFFAA
:103D600000F07AFF044619E000F024F810494018EA
:103D7000DDD0B0F5806F13D0B0F5006FDAD109E077
:103D800000F018F81038B0F54010D0D0102807D047
:103D90002028E1D100F01EF800B13446204670BD65
:103DA00000F010F80028F9D02C46F7E70024F400C2
:103DB00000FCFFF302490968014041EA00407047F6
:103DC0009038024002480068C0F34000704700008D
:103DD0000038024002480068C0F34000704700000D
:103DE000703802400248006800F03F007047000051
:103DF000043802400248006800F480007047000068
:103E000004380240416821F490414160816821F00A
:103E10002A018160704700002DE9F04104460068E6
:103E200001260D4610F0010F55D1D5E903C1AB694C
:103E3000686822681943304F40EA0C0008433A4052
:103E4000104320606168A86821F44051014361601B
:103E5000A168686921F440710143A1602748844248
:103E600001D1032019E02648844201D10C2014E03E
:103E70002448844201D130200FE02348844201D1FC
:103E8000C02018E02148844202D14FF4407012E073
:103E90001F48844204D14FF44060FFF72DFF0CE02F
:103EA0001C48844202D14FF4405004E01A48844236
:103EB00011D14FF44040FFF7B9FE60B1296851B10C
:103EC000AA690026B2F5004F08D000EB5100B0FB04
:103ED000F1F080B2E0603046BDE8F08140004FF67E
:103EE000F07200EB5100B0FBF1F081B201EA020088
:103EF000C1F342010843EDE7F369FFEF0010014011
:103F00000044004000480040004C00400050004089
:103F10000014014000780040007C00402DE9F0478B
:103F2000861A9846851A8946A1EB0804C6F1000650
:103F300001D5314600E029461F4B4FF08047D3F8AA
:103F400028C0614508DB01461C4800F068FC996800
:103F5000081A586380B2F863002D00DA3546986A73
:103F6000854202DA198989B2F963A9EB0801002CAC
:103F7000C1F1000501DA294600E0214681420ADB51
:103F80000E4842464946203800F049FC5968081A54
:103F9000186380B2B863002C00DA2C46986A844219
:103FA00002DA988880B2B863D3E90C12BDE8F04712
:103FB00003A0FCF739BA00000000002070010020C7
:103FC00070776D5F70697463685F6F7574203D20F2
:103FD00025642C2070776D5F726F6C6C5F6F7574E9
:103FE000203D2025640D0A20000000007FB5164802
:103FF000002414490125009401942A040294039496
:104000000160C0E9012404618461104980F8204006
:10401000C0E90A14C561C46080F830404561FDF70D
:104020004FFA08B172B6FEE70A206946CDE90005ED
:1040300005480294FDF764F9002801D072B6FEE746
:104040007FBD000000200140F80800200100000FA3
:104050002DE9F04186B014216846FCF702FB324896
:10406000016841F010010160016801F01001059143
:10407000016841F080010160016801F08001059153
:10408000016841F004010160016801F0040105913B
:10409000016841F001010160016801F00101059131
:1040A000016841F002010160016801F0020105911F
:1040B000016841F008010160006800221B4E1C21CC
:1040C00000F0080005903046FDF797FB184F0022DE
:1040D00010213846FDF791FBDFF8588000220F21B0
:1040E0004046FDF78AFB0024694601251C2000900C
:1040F000CDE9015430460394FDF74EFA10200090AC
:10410000CDE90154694638460394FDF745FA0F207E
:104110000090CDE90154694640460394FDF73CFA0E
:1041200006B0BDE8F08100003038024000100240C7
:1041300000000240000C02401248002110B5104C53
:104140000123114A0460C0E90121C0E90331416142
:104150008161C1610162FDF7B1FB08B172B6FEE792
:1041600008480021FDF754FB08B172B6FEE7054888
:104170000021FDF779FB002801D072B6FEE710BDE3
:104180000054004040090020FFEAC000124800210E
:1041900010B5104C0123114A0460C0E90121C0E9A7
:1041A000033141618161C1610162FDF787FB08B1A3
:1041B00072B6FEE708480021FDF72AFB08B172B687
:1041C000FEE705480021FDF74FFB002801D072B63D
:1041D000FEE710BD005C00408C090020FFEAC00033
:1041E00010B58EB000241C21009407A801940294FD
:1041F0000394049405940694FCF733FA29484EF688
:10420000602121224FF08043C0E9024104618461B2
:10421000C0E90032FEF7C8FA08B172B6FEE74FF403
:10422000805000901F486946FEF77EFB08B172B6C9
:10423000FEE71C48FFF75FFA08B172B6FEE71948BF
:1042400004A904940694FEF75DFA08B172B6FEE77D
:104250006020CDE907041348002207A909940B94B4
:10426000FFF7B7F908B172B6FEE70E48042207A9B6
:10427000FFF7AFF908B172B6FEE70A48082207A9AE
:10428000FFF7A7F908B172B6FEE706480C2207A9A6
:10429000FFF79FF908B172B6FEE70248FFF738F959
:1042A0000EB010BDD809002010B58EB000241C211E
:1042B000009407A80194029403940494059406942E
:1042C000FCF7CFF92A484EF660212122274BC0E99E
:1042D000024104618461C0E90032FEF765FA08B169
:1042E00072B6FEE74FF48050009021486946FEF711
:1042F0001BFB08B172B6FEE71D48FFF7FCF908B1D9
:1043000072B6FEE71A4804A904940694FEF7FAF977
:1043100008B172B6FEE76020CDE907041448002218
:1043200007A909940B94FFF754F908B172B6FEE798
:104330000F48042207A9FFF74CF908B172B6FEE74F
:104340000B48082207A9FFF744F908B172B6FEE747
:1043500007480C2207A9FFF73CF908B172B6FEE73F
:104360000348FFF7D5F80EB010BD00000004004070
:10437000240A002010B588B02448002422492122B4
:104380004EF66023009401940294039404940594DF
:10439000069480E81600C0E903348461FEF765FEE8
:1043A00008B172B6FEE71948694600940294FEF718
:1043B000A9F908B172B6FEE70120002203A9CDE9F0
:1043C0000340124805940694FEF7BEFD08B172B68C
:1043D000FEE70E48042203A9FEF7B6FD08B172B647
:1043E000FEE70A48082203A9FEF7AEFD08B172B63F
:1043F000FEE706480C2203A9FEF7A6FD002801D01F
:1044000072B6FEE708B010BD00080040700A002038
:1044100010B588B024480024224921224EF660239A
:10442000009401940294039404940594069480E803
:104430001600C0E903348461FEF717FE08B172B6B6
:10444000FEE71948694600940294FEF75BF908B14B
:1044500072B6FEE70120002203A9CDE9034012480D
:1044600005940694FEF770FD08B172B6FEE70E489B
:10447000042203A9FEF768FD08B172B6FEE70A48F8
:10448000082203A9FEF760FD08B172B6FEE70648F0
:104490000C2203A9FEF758FD002801D072B6FEE7F2
:1044A00008B010BD000C0040BC0A00202DE9F0410E
:1044B000B2B01C212AA8FCF7D4F8182124A8FCF7D4
:1044C000D0F890216846FCF7CCF84FF4806000905B
:1044D000002468461594FDF7E7FB08B172B6FEE7C5
:1044E0004FF48010FFF7F6FA0220FFF7E7FA0225F3
:1044F000DFF87C800827E802CDE924050326404642
:10450000CDE92664CDE9284724A9FFF7EFFA28036F
:10451000CDE92405CDE92664CDE9284724A9404604
:10452000FFF7E4FA00F0C2FF0022114600F05EF946
:104530000146352000F0C2FF352000F0AAFF0C2113
:104540004FF4E130CDE92A042C94CDE92D412F948C
:104550002AA93094074C2046FFF75EFC2046FFF75F
:1045600051FC206840F00100206032B0BDE8F081CD
:1045700000040240005000402DE9F041B2B01C217F
:104580002AA8FCF76EF8182124A8FCF76AF89021F5
:104590006846FCF766F840200090002468461194B5
:1045A000FDF782FB08B172B6FEE72648016841F0CC
:1045B00010010160006800F0100031900220FFF748
:1045C0007DFA0225DFF8808004276803CDE9240501
:1045D00003264046CDE92664CDE9284724A9FFF704
:1045E00085FAA803CDE92405CDE92664CDE928475D
:1045F00024A94046FFF77AFA00F058FF002211463E
:1046000000F0F4F80146252000F058FF252000F0C6
:1046100040FF0C214FF4E130CDE92A042C94CDE980
:104620002D412F942AA93094084C2046FFF7F4FB23
:104630002046FFF7E7FB206840F00100206032B021
:10464000BDE8F081443802400004024000100140FF
:104650002DE9F041B2B01C212AA8FCF702F818217C
:1046600024A8FBF7FEFF90216846FBF7FAFF8020A5
:104670000090002468461294FDF716FB08B172B64C
:10468000FEE74FF40030FFF725FA0820FFF716FA8F
:104690000225DFF8808007272020CDE924050326A6
:1046A0004046CDE92664CDE9284724A9FFF71EFA44
:1046B0004020CDE92405CDE92664CDE9284724A989
:1046C0004046FFF713FA00F0F1FE0022114600F019
:1046D0008DF80146262000F0F1FE262000F0D9FEDC
:1046E0000C214FF4E130CDE92A042C94CDE92D4181
:1046F0002F942AA93094084C2046FFF78DFB2046C2
:10470000FFF780FB206840F00100206032B0BDE878
:10471000F0810000000C0240004400402DE9F0410F
:10472000B2B01C212AA8FBF79CFF182124A8FBF794
:1047300098FF90216846FBF794FF002468464FF4E9
:10474000807700971394FDF7AFFA08B172B6FEE7D1
:104750004FF48020FFF7BEF90820FFF7AFF90225DC
:104760004FF007080326CDE92664CDE924751C4FD8
:1047700024A9CDE928483846FFF7B8F92902384678
:10478000CDE92415CDE92664CDE9284824A9FFF711
:10479000ADF900F08BFE0022114600F027F801462B
:1047A000272000F08BFE272000F073FE0C214FF431
:1047B000E130CDE92A042C94CDE92D412F942AA98A
:1047C0003094084C2046FFF727FB2046FFF71AFBE2
:1047D000206840F00100206032B0BDE8F0810000A8
:1047E000000C024000480040FEE7FEE730B500F054
:1047F0000703C3F10704042C00D90424181D07285B
:1048000001D2002300E0DB1E012505FA04F09D40E3
:10481000401E08406D1E98401540284330BD00EEF4
:10482000102A00EE901A4260B8EEC00AF8EEE00AD4
:10483000D0ED071A90ED033AD0ED022A30EE600A6F
:1048400090ED061AD0ED053A90ED042A71EE801A2B
:10485000016831EE631A80ED050A63EE210A80EDEE
:10486000060AC0ED071A484242EE800A00EE101A0E
:10487000B8EEC00A42EE010A01EE100AB8EEC11A03
:10488000C0FE810A80FEC00ABDEEC00A10EE100A0A
:104890007047000015484FF496729FED151A10B539
:1048A0009FED140A0260782380ED021AF6EE000AEA
:1048B00080ED030AC0ED040A436000F1200180EDA1
:1048C000050A80ED060A80ED070A0A60A02481ED42
:1048D000021A81ED030AC1ED040A4C6081ED050A5C
:1048E00081ED060A81ED070A10BD0000500100208D
:1048F000333313400000000070470000134810B528
:10490000FBF792FD12A0FBF78FFD15A0FBF78CFDC6
:104910001EA0FBF789FD28A0FBF786FD30A0FBF762
:1049200083FD3E48FBF780FD3DA0FBF77DFD4BA0DE
:10493000FBF77AFD59A0FBF777FD66A0FBF774FD46
:10494000BDE810400148FBF76FBD0000985B000810
:104950002020BDD3CFDFB7BDB7A83A200D0A000095
:104960002A2AC3CEB4B4B5E7D7D3CBC4D0FDD2ED99
:10497000B7C9D0D0C6F7CAD2C4DAD7D4B6AFB7C990
:10498000D0D02A2A2A2A0D0A0000000020202B3528
:1049900056202020202020203C2D2D2D2D2D2D2077
:1049A0002020352E30562020202020203556B9A931
:1049B000B5E70D0A000000002020474E44202020CB
:1049C000202020202D2D2D2D2D2D2D202020474E37
:1049D0004420202020202020B5D80D0A000000000F
:1049E0002020504230202020202020202D2D2D2D31
:1049F0002D2D3E20202050574D33202020202020D8
:104A0000D3EBD2A3BFD8C6F7B5C47069746368CDC1
:104A1000A8B5C0CFE0C1AC0D0A000000545B00088F
:104A20002020504136202020202020202D2D2D2DEB
:104A30002D2D3E20202050574D3120202020202099
:104A4000D3EBD2A3BFD8C6F7BDD3CAD5BBFAD3CD5B
:104A5000C3C5CFE0C1AC200D0A00000020205042A9
:104A600037202020202020202D2D2D2D2D2D3E20C3
:104A7000202050574D32202020202020D3EBD2A3DD
:104A8000BFD8C6F7B5C4C6ABBABDCDA8B5C0285906
:104A9000415729CFE0C1AC0D0A0000002020504151
:104AA00030202020202020202D2D2D2D2D2D3E208A
:104AB00020204144435F434831202020C4A3C4E266
:104AC000B3ACC9F9B2A8B8DFB6C8B2E2C1BF0D0A2B
:104AD000000000002020B4F2D3A1B2C9BCAFCAFDCF
:104AE000BEDD3A200D0A000010B511A0FBF79CFCBA
:104AF0001FA126A0FBF798FC29A12BA0FBF794FC93
:104B00002EA131A0FBF790FC34A0FBF78DFC3EA05A
:104B1000FBF78AFC3EA0FBF787FC4348FBF784FCCD
:104B200042A0FBF781FCBDE8104001A0FBF77CBC74
:104B30002A2A2A2A2A2A2A2A2A2A2A2A2A2A2A2AD5
:104B40002A2A2A2A2A2A2A2A2A2A2A2A2A2A2A2AC5
:104B50002A2A2A2A2A2A2A2A2A2A2A2A2A2A2A2AB5
:104B60002A2A2A2A2A2A2A2A2A2A2A2A2A0A0D000C
:104B70005634C3CEB4B4B7C9BFD8CAD2C4DAD7D4B6
:104B8000B6AFB7C9D0D0C0FDB3CC00002A20C0FD5D
:104B9000B3CCC3FBB3C62020203A2025730D0A00F6
:104BA000562D312E300000002A20C0FDB3CCB0E6D7
:104BB000B1BE2020203A2025730D0A003230323158
:104BC0002D30342D372000002A20B7A2B2BCC8D522
:104BD000C6DA2020203A2025730D0A002A20B9CCFD
:104BE000BCFEBFE2B0E6B1BE203A53544D3332466C
:104BF0003130785F5374645065726970685F4472D5
:104C000069766572290D0A002A200A0D000000004D
:104C10002A205151202020203A203636353833368C
:104C2000353138200D0A0000E85A00082A20C3CE8A
:104C3000B4B4B5E7D7D3200D0A00000004490968D1
:104C4000044A01F0F0010909515CC84070470000B6
:104C500008380240C45A000804490968044A01F4AB
:104C6000E05102EB91210978C840704708380240B2
:104C7000D45A000804490968044A01F4604102EB6F
:104C800051310978C840704708380240D45A0008AA
:104C900006490748096811F00C0106D0042903D021
:104CA000082902D100F008B80248704708380240CD
:104CB0000024F40040787D0110B5FFF79BF80C4C00
:104CC00018B1B0F5800F00D10A4CFFF78BF80A49F4
:104CD0000A680B68B4FBF0F0C2F3881103F44032A9
:104CE0000123484303EB12414900B0FBF1F010BD32
:104CF0000024F40040787D01043802400D4800F1A2
:104D000080010A46406D0B695269984201DB90426E
:104D10000EDD904204DB8A69904201DC022070477C
:104D20008A69904204DBC969884201DC032070472C
:104D3000012070473C0000200B494FF0804009885B
:104D400089B241630949098889B2816308490988A0
:104D500089B2C1630749098889B2016407480649D5
:104D6000008880B208607047540000206000002076
:104D70006C000020780000203408004084000020EF
:104D80002DE9FE431648DFF85080144C154D01689C
:104D9000D8F800002268144E144F0092CDE90101AA
:104DA0002B6813A032683968FBF73EFB4FF0804058
:104DB000398889B24163318889B28163298889B28F
:104DC000C163218889B201641349B8F8000080B238
:104DD0000860BDE8FE830000840000207800002009
:104DE000900000206C000020600000205400002093
:104DF000313D20256420323D20256420333D20258F
:104E00006420343D20256420353D20256420363D36
:104E10002025640D0A00000034080040704700009F
:104E20000149086070470000340800404FF080419D
:104E3000886370474FF08041C86370474FF08041EE
:104E4000486370474FF0804108647047FCF71CBE10
:104E500070B594B034216846FBF703FC14210DA80B
:104E6000FBF7FFFB2148016841F0805101600068B9
:104E700000F0805012901E48016841F440410160EA
:104E800000680224012200F440401290C026CDE9BF
:104E90000524E103CDE9096409200B940C250C9449
:104EA000CDE900018B016846CDE90735FDF748FAE9
:104EB00008B172B6FEE7FCF7C1FE08B172B6FEE7B4
:104EC0000FAD00214FF4A0524FF4805385E80E003F
:104ED0000F20CDE90D0406210DA8FDF767F9002884
:104EE00001D072B6FEE714B070BD00004038024039
:104EF000007000400248016841F470010160704791
:104F000088ED00E00148FEF742BA0000D809002011
:104F100030B14FF08041002048620348FDF7A6BC45
:104F20000148FDF7E9BC0000D80900200148FEF760
:104F30002EBA0000240A002028B10449002008608D
:104F40000348FDF793BC0248FDF7D6BC240400409B
:104F5000240A00200148FEF71ABA0000700A002057
:104F60000148FEF714BA0000BC0A002028B1044929
:104F7000002008600348FDF779BC0248FDF7BCBC7F
:104F8000240C0040BC0A0020F0B5274B4FF0804EA7
:104F9000264D02689842264E264F274C09D0704570
:104FA00007D0A84205D0B04203D0B84201D0A042F9
:104FB00005D1D1F804C022F070024CEA02029842F6
:104FC0001BD0704519D0A84217D0B04215D0B842B6
:104FD00013D0A04211D0194DA8420ED0184DA842AE
:104FE0000BD0184DA84208D0174DA84205D0174D38
:104FF000A84202D0164DA84203D1CD6822F44072D7
:105000002A434D6922F080022A43026098428A684E
:10501000C2620A68826201D0A04201D109690163BB
:1050200001214161F0BD000000000140000400408A
:1050300000080040000C0040000401400040014016
:10504000004401400048014000180040001C00409E
:105050000020004010B5046A012301F01F018B40BD
:105060009C4304628A40016A1143016210BD42EA16
:10507000032283680A4323F47F410A438260704716
:10508000826822F070020A4342F007018160704793
:10509000F0B5026ADFF860C0184F22F00102DFF8B5
:1050A00060E00262066A4268836926F002060D68C3
:1050B000B8428C6803EA0C0323F0030344EA0604B5
:1050C00045EA030501D0704505D1CB6824F00804FA
:1050D000234323F00404B84201D0704505D122F4E3
:1050E0004076D1E9053233431A434260856149680D
:1050F00041630462F0BD00008FFFFEFF000001402D
:1051000000040140F0B5026A194E1A4C22F0100258
:10511000DFF864E00262056A4368826925F02005D1
:10512000D1F808C0A0420F6802EA060222F44072D9
:1051300045EA0C1542EA072201D0704506D1CE6837
:1051400025F0800545EA061525F04005A04201D06E
:10515000704507D1D1E9054623F4406343EA84034F
:1051600043EA860343608261496881630562F0BD5A
:10517000FF8FFFFE0000014000040140F0B5026A0D
:10518000194F1A4E22F48072DFF864E00262056A59
:105190004368C26925F40075D1F808C0B0420C68B4
:1051A00002EA070222F0030245EA0C2544EA02045F
:1051B00001D0704506D1CF6825F4006242EA07228B
:1051C00022F48065B04201D0704507D123F44052EB
:1051D000D1E9053642EA031242EA06134360C4618C
:1051E0004968C1630562F0BD8FFFFEFF000001400A
:1051F00000040140F0B5026A124B114F22F48052B4
:1052000098420262046A4268C36924F400548E68BA
:105210000D6803EA070323F4407344EA063443EAC3
:10522000052302D0084DA84204D14D6922F48042E2
:1052300042EA85124260C361496801640462F0BDBC
:10524000FF8FFFFE0000014000040140F0B5026A3C
:10525000DFF844C022F480320262056A4268446D7D
:1052600025F400350E8960450C4F0B6804EA0704ED
:1052700045EA064543EA040302D0094CA04204D1A2
:105280004C6922F4803242EA042242604365496854
:1052900081650562F0BD0000000001408FFFFEFF48
:1052A00000040140F0B5026ADFF844C022F4801225
:1052B0000262046A4268436D24F400140E8960455A
:1052C0000C4F0D6803EA070344EA065443EA05233A
:1052D00002D0094DA84204D14D6922F4802242EA4D
:1052E0008522426043654968C1650462F0BD0000E3
:1052F00000000140FF8FFFFE0004014010B5036A6B
:10530000046A23F00A0324F00104046284690B4355
:1053100024F0F00141EA02118161036210BD000036
:1053200070B5046A174D24F001040462A842846930
:10533000056A14D0B0F1804F11D0134EB0420ED098
:10534000124EB0420BD0124EB04208D0114EB042B5
:1053500005D0114EB04202D0104EB04203D124F01D
:105360000304144301E044F001041A0724F0F0039D
:1053700025F00A0401F00A01214343EA1262826126
:10538000016270BD000001400004004000080040C0
:10539000000C0040000401400040014000180040A3
:1053A00010B5036A23F0100303628369046A23F4CF
:1053B000704324F0A00443EA0232826144EA0111FE
:1053C000016210BD70B5056AA0244FF6FF7606EAAB
:1053D000033325F01005056204EA01118469056AAA
:1053E00024F4407425F0A00544EA0222294322F463
:1053F000704213438361016270BD7047704770470C
:105400007047000070B5164C4FF08045A08D80B2FB
:1054100068634FF4FA60FCF7ADF8666905E000BF19
:10542000FEF716FBB0B22864563620698642F7DDD7
:1054300040F6B830FCF79EF8266904E0FEF708FB5A
:10544000B0B22864563E60698642F7DA4FF47A704B
:10545000FCF790F8BDE8704002A0FAF7E5BF000045
:10546000000000202A2A2A2A2A2A2A2A2A2A2A2A24
:105470002A2A2A2A2A2A2A556E6C6F636B2A2A2A1C
:105480002A2A2A2A2A2A2A2A2A2A2A2A0D0A00000D
:10549000FEE7002809DB410900F01F028900012016
:1054A00001F1E0219040C1F8000170470248006816
:1054B000C0F30220704700000CED00E0090700284F
:1054C0004FEA116104DB00F1E02080F8001470471E
:1054D00000F00F0000F1E02080F8141D704709076C
:1054E00000284FEA116104DB00F1E02080F800148D
:1054F000704700F00F0000F1E02080F8141D7047A5
:105500000A88130A424082EA0210C0B283EA0022EB
:1055100082EAC00282EA101008807047022A10D383
:105520000278232A0DD1827A2A2A0AD14278312A96
:1055300009D0322A22D0332A22D0342A22D0352A46
:1055400022D000207047114A4388138283885382F7
:10555000C38893820389D38282788A70C278CA70A2
:1055600002790A7142794A7182798A71C279CA7163
:10557000027A0A72407A487201207047022070470E
:105580000320704704207047052070473801002031
:1055900010B50446C1B20248FBF724FE204610BDF8
:1055A00000100140CAB04FF0000AFCF72BF9814609
:1055B000FCF728F900244694479448944994FCF752
:1055C000C5FA01278DF824711F208DF8200187214D
:1055D0008DF821118DF8257146A88DF818718DF878
:1055E00022418DF826418DF8194147948DF82341C9
:1055F0008DF82741FCF77CFA0420FCF7B5FAFCF79C
:105600004BFAFFF725FCFEF723FDFEF7EFFCFEF754
:1056100093FDFEF7BBFDFEF7E3FDFEF745FEFEF74B
:10562000A9FEFEF7F5FEFEF741FFFEF7A5FFFFF727
:105630000FF8FFF773F8FBF703FEFFF755FAFFF7D4
:105640005DF9CD48FEF757F8CB480021FEF786F804
:10565000C9480421FEF782F8C7480821FEF77EF802
:10566000C5480C21FEF77AF8C3484C30FEF743F8E2
:10567000C14800214C30FEF771F8BF4804214C307E
:10568000FEF76CF8BC4808214C30FEF767F8BA48C2
:105690000C214C30FEF762F8B74800219830FDF736
:1056A00079FDB54804219830FDF774FDB248082112
:1056B0009830FDF76FFDB0480C219830FDF76AFD7A
:1056C000AD480021E430FDF765FDAB480421E4302E
:1056D000FDF760FDA8480821E430FDF75BFDA64812
:1056E0000C21E430FDF756FDA448FFF7D3F8FEF790
:1056F000AFF9FBF75BFD4FF47A763046FBF73AFFE4
:10570000FBF74CFD3046FBF735FFDFF8748240466F
:10571000FBF774FDDFF86CB25846FBF76FFD9A4853
:10572000FBF76CFD994D00202C806C80FFF704FC8A
:105730000020FFF71BFC0523ADF800308DF8024078
:105740000C228DF803404223DDF800C036218DF88D
:10575000042006228DF805709427CDF810C002A809
:10576000BDF804C0ADF814C0CDE9002722468DF87D
:105770000F30002300F03AF9854802A900F08AF9B9
:105780008349074602468048FBF718FD80493A46A0
:105790005846FBF713FD7E493A464046FBF70EFD9F
:1057A0007C4F0020FEF7C6F8012802D002280BD15A
:1057B00006E0FEF777F9FBF7F9FCFFF723FE03E0BD
:1057C000FEF774F9FBF7EAFC3878002870D02888D7
:1057D000010419D5DFF8C081C0F30E02002008F5DE
:1057E000407305E018F800C0411C03F800C088B2FF
:1057F0009042F7D365496948D431FFF78FFE82465E
:105800005F48FBF7FBFC2C806888010414D5DFF8A7
:105810009081C0F30E01002008F5806306E000BF10
:1058200018F800C0421C03F800C090B28842F7D3B9
:1058300058466C80FBF7E2FCA888010414D5DFF819
:105840006481C0F30E01002008F5007306E000BF7C
:1058500018F800C0421C03F800C090B28842F7D389
:105860004948AC80FBF7CAFCFFF748FA022808D089
:10587000FFF744FA032851D0FFF740FA012850D02F
:1058800061E041F29410FFF7CBFABAF1060F33D280
:10589000DFE80AF032030F1A222A43A0FAF7C4FD08
:1058A0004448C38A828A418A008AFEF737FB07E0B0
:1058B0004BE041A0FAF7B8FD41F29E10FBF716FD50
:1058C0003248803084631CE03EA0FAF7ADFD41F21F
:1058D0009E10FBF701FDF3E73CA0FAF7A5FD41F2AE
:1058E0009E10FBF7E5FCEBE73BA0FAF79DFD41F2CC
:1058F0009E10FBF7E7FCE3E739A0FAF795FDFBF70D
:1059000088FC224940F6B8328031886B401C88639D
:10591000904218DD4FF0000A8C6314E0FFF70CFA98
:1059200011E041F27070FFF77BFA41F294184046A3
:10593000FFF784FA4046FFF779FA4046FFF77AFA14
:105940004046FFF77FFAFFF71BFAFBF75BFFA0EB80
:105950000900B0427FF625AFFBF754FF8146FEF702
:10596000A5F80A20FBF706FEFEF7A4F81420FBF7C3
:1059700001FEFEF797F814E7D8090020D8080020A8
:105980000010014000440040004800403C0000205E
:10599000C007002000000020C0010020C00400203B
:1059A000C0020020C00300206C6F69746572202063
:1059B0000D0A0000380100207269676874200D0A22
:1059C000000000006C656674200D0A006168656166
:1059D00064200D0A000000006261636B200D0A0064
:1059E00064656661756C740D0A0000002DE9F8436A
:1059F00004461E46FE20DDE90889A070184684F89A
:105A000003806171A27100F03DF880792071304609
:105A100000F038F8857930466D1C00F033F8857158
:105A2000E51C05264FF6FF70ADF8000005E000BF4D
:105A300015F8010B6946FFF763FD701E86B2F7D2B9
:105A4000BDF8000004F1080620803546E77804E040
:105A500015F8010B2146FFF753FD781E87B2F7D2E8
:105A600021464846FFF74CFDE27804F10901207811
:105A700090552088E278000A505408F10800BDE8EB
:105A8000F8830000024900EB400001EB8000704702
:105A90009001002070B5CA780C46891C0546921DFD
:105AA000FAF768FDE078AD1D21782844017021885F
:105AB000090A4170E078083070BD4FF04070E1EEA7
:105AC000100A7047000000000000000001020304FB
:105AD0000607080900000000010203043A7474007C
