:020000040800F2
:10000000601000200D030008AB550008EF46000803
:10001000A95500083F2000083562000800000000D4
:10002000000000000000000000000000DD5B000890
:100030004120000800000000B95600080D5C0008CF
:1000400027030008270300082703000827030008E8
:1000500027030008270300082703000827030008D8
:1000600027030008270300082703000827030008C8
:1000700027030008270300082703000827030008B8
:1000800027030008270300082703000827030008A8
:100090002703000827030008270300082703000898
:1000A0002703000827030008270300082703000888
:1000B000C55C0008D15C0008F95C00082703000853
:1000C0002703000827030008270300082703000868
:1000D00027030008A1610008A3610008A5610008CA
:1000E0002703000827030008270300082703000848
:1000F0002703000827030008270300082703000838
:100100002703000827030008055D000827030008EF
:10011000270300089F610008270300082703000841
:100120002703000827030008270300082703000807
:1001300027030008270300082703000827030008F7
:1001400027030008270300082703000827030008E7
:1001500027030008270300082703000827030008D7
:1001600027030008270300082703000827030008C7
:1001700027030008270300082703000800000000E9
:1001800027030008270300082703000827030008A7
:100190002703000827030008270300082703000897
:1001A00000000000000000002703000827030008EB
:1001B0002703000827030008270300082703000877
:1001C0002703000827030008000000002703000899
:1001D0002703000827030008270300082703000857
:1001E0002703000827030008270300082703000847
:1001F000000000002703000800F002F800F077F884
:100200000AA090E8000C82448344AAF10107DA4571
:1002100001D100F06CF8AFF2090EBAE80F0013F04C
:10022000010F18BFFB1A43F0010318471C680000B8
:100230003C6800000A444FF0000C10F8013B13F03A
:10024000070408BF10F8014B1D1108BF10F8015B2F
:10025000641E05D010F8016B641E01F8016BF9D122
:1002600013F0080F1EBF10F8014BAD1C0C1B09D179
:100270006D1E58BF01F801CBFAD505E014F8016BEB
:1002800001F8016B6D1EF9D59142D6D3704700007D
:100290000023002400250026103A28BF78C1FBD88F
:1002A000520728BF30C148BF0B607047662906F06F
:1002B000F282642900F02C81732900F07E840020F2
:1002C00070471FB506F0E2FA9DE8030000F0E2FF78
:1002D00000F08AFC04000020002106F0C1FAE06072
:1002E00000F096FD1FBD10B500F0FBFD10BD00F045
:1002F00063FE1146FFF7E5FF06F02EF800F068FFF9
:1003000003B4FFF7F0FF03BC01F056F9094880473A
:1003100009480047FEE7FEE7FEE7FEE7FEE7FEE7E7
:10032000FEE7FEE7FEE7FEE704480549054A064BFF
:1003300070470000B55C0008F9010008600A002061
:1003400060100020600C0020600C002053EA020CBA
:1003500000F069802DE9F04B4FF00006002B1FBF25
:10036000B3FA83F503FA05F424FA05F65E4012BFEA
:100370001643B2FA82F502FA05F4C5F120051EBF54
:1003800022FA05FC44EA0C04203556EA044C4FEAF4
:10039000144418BF641C4FF000084FF0000990424D
:1003A00071EB030C39D3002919BFB1FA81F701FAB7
:1003B00007F6B0FA80F700FA07F6C7F120071EBF6C
:1003C00020FA07FC46EA0C062037B6FBF4FCA7EB44
:1003D0000507103F07F01F0BCBF120060CFA0BFBB3
:1003E0002CFA06F644BFB3460026202FA4BF5E4673
:1003F0004FF0000B5BEA060C08BF4FF0010B19EB46
:100400000B09ABFB027C48EB0608C01B06FB02CCC9
:100410000BFB03CC71EB0C01C1E70B4602464146D6
:100420004846BDE8F08B13B54FF000004FF00001D7
:10043000AFF30080BDE81C40704700000FB40449D2
:1004400010B503AA029800F0BDFB10BC5DF814FBC8
:10045000540900202DE9F0410E4604460020206298
:100460002046E168884730B3252805D0D4E901212A
:100470009047206A401CF2E7E16820460027884741
:10048000050018D0A5F14100192802D820354FF4F5
:1004900000673246294620462760FFF707FF40B134
:1004A000012804D0F61D26F007060836D8E7361DC9
:1004B000D6E72846DAE7206ABDE8F08170B50C4639
:1004C0000546012A05D02878800600D5EA69002370
:1004D00002E0012305E05B1C934202D2E05C0028AD
:1004E000F9D1A869E618C01AA861286A18442862D8
:1004F0002846AFF3008004E0D5E9012114F8010B90
:100500009047B442F8D32846AFF3008070BD000096
:100510002DE9F0410646002410687529314616A5DC
:1005200010D0AFF30080002802DA404213A507E0A4
:1005300031688A0701D512A502E0490704D511A543
:10054000012401E0AFF3008000210A2206F1240714
:1005500009E0B0FBF2FCB0FBF2F302FB1C00303010
:1005600078541846491C0028F3D123462A463046C1
:10057000BDE8F04100F0A9B8000000002D00000027
:100580002B00000020000000032A40F2308010F011
:10059000030C00F0158011F8013BBCF1020F62441E
:1005A00098BF11F801CB00F8013B38BF11F8013BAF
:1005B000A2F1040298BF00F801CB38BF00F8013B5C
:1005C00011F0030300F02580083AC0F0088051F8CC
:1005D000043B083A51F804CBA0E80810F5E7121DD7
:1005E0005CBF51F8043B40F8043BAFF30080D207F6
:1005F00024BF11F8013B11F801CB48BF11F8012BC2
:1006000024BF00F8013B00F801CB48BF00F8012BE4
:10061000704710B5203AC0F00B80B1E81850203A6E
:10062000A0E81850B1E81850A0E81850BFF4F5AF92
:100630005FEA027C24BFB1E81850A0E8185044BF1C
:1006400018C918C0BDE810405FEA827C24BF51F889
:10065000043B40F8043B08BF7047D20728BF31F87D
:10066000023B48BF11F8012B28BF20F8023B48BFCE
:1006700000F8012B70474FF0000200B51346944676
:100680009646203922BFA0E80C50A0E80C50B1F1EA
:100690002001BFF4F7AF090728BFA0E80C5048BFFE
:1006A0000CC05DF804EB890028BF40F8042B08BF9C
:1006B000704748BF20F8022B11F0804F18BF00F898
:1006C000012B70477047704770472DE9F0470D4682
:1006D00099469246044600F124080168880604D52C
:1006E000E06921F01001216000E00120A84201DD55
:1006F000471B00E00027A1697A1902EB0900081ADC
:10070000A0612078C00602D42046AFF30080002606
:1007100008E0D4E901211AF806009047206A401C3D
:10072000761C20624E45F4DB2078C0060AD52046B0
:10073000AFF3008006E0D4E9012130209047206A21
:10074000401C2062381EA7F10107F4DC07E0D4E961
:10075000012118F805009047206A401C2062281EDD
:10076000A5F10105F3DC2046AFF3008020780006F8
:1007700002D50220BDE8F0870120FBE770472DE994
:10078000FF4F0C461E464FF0FF378BB0D2E90001F9
:10079000DDF860800A908A46C1F30A5505B93D46E6
:1007A000002108464FF00000BAF1000F00F44000AD
:1007B00005DA00EB80004FF4400101EA50004FEAF7
:1007C0009059B9F1010F00DDB9460A9850EA4A0084
:1007D0000ED044F61050A5F2FF3545432F14B8F162
:1007E000000F1ED07542291E1EDDC9F100021CE05B
:1007F000B8F1010F4FF0000001D0302103E0F243C7
:1008000005E02154401CB042FBDB304600220021B1
:1008100021540B99C1F80880C1E900200FB0BDE850
:10082000F08FBD1B6D1CDEE74A4600DA694206A860
:1008300000F07CFA06AB93E8070003AB83E80700FF
:1008400050460A9900F054FF8DE80700A0F50050CB
:100850001F3800900398002D09DD42F21F014A461F
:10086000084403A90390684601F0B3F908E0A0F535
:1008700000504A461F3803A90390684601F0BDF9AD
:100880008DE807000004000C03D04FF0FF30410852
:1008900000E01046B8F1000F03D000220092154688
:1008A0001EE0751E05D400F0A3F9303262556D1EAE
:1008B000F9D5B3460122084302D000227F1C04E090
:1008C0002078302801D100227F1E002A099786D087
:1008D0001DE0112D07DA00F08BF9303262556D1CE6
:1008E00050EA0102F5D1084302D00098C8B10EE0E9
:1008F0000021681E05E0235C625C63542254401EA4
:10090000491C8142F7DBAB46A81B401E0990002022
:1009100004F80B000B98099AC0F80880C0E9002B76
:100920007CE711264FF0000859E72DE9F04F884683
:100930000446D21D22F0070191B0D1E90001CDE9B2
:100940000A0105F078FC02460B98C00F01D02D205B
:1009500007E02068810701D52B2002E0202101EA71
:10096000C000032A099001D0072A05DB034641464F
:10097000204600F09BF90BE12078800601D5E06964
:1009800000E00620B8F1650F814606D0B8F1660F89
:1009900018D0B8F1670F70D131E00020B9F1110F14
:1009A000009001DB112301E009F101030AAA01A96A
:1009B0000CA8FFF7E4FEDDE90C70002609F1010543
:1009C000834647E001204B4600904FF000470AAABB
:1009D00001A90CA8FFF7D3FEDDE90DB00C995D4627
:1009E000002610B909F101000D18B9EB050003D478
:1009F000C0F1FF3609F10105A5EB09002BE0B9F1C3
:100A0000010F01DA4FF001090020B9F1110F009038
:100A1000484601DD112300E003460AAA01A90CA8FB
:100A2000FFF7ADFEDDE90C704D46002683462078C9
:100A300000070AD4AB4500DA5D4601A8012D04DDAC
:100A4000411911F8011C302907D04F4502DA17F17E
:100A5000040F04DA012082460FE06D1EEEE7002F3E
:100A600002DCED1B3E4403E0781CA84200DD7D1C47
:100A7000B81B00F1010A4FF000472078000703D4AB
:100A8000AA4501DB4FF0FF3A0021B7F1004F0DF10D
:100A900043088DF8431024D002202B23002F01DAC5
:100AA0007F422D230A21021EA0F1010000DC5FB16C
:100AB00097FBF1FC97FBF1F201FB1C7C17460CF154
:100AC000300C08F801CDEEE7A8F101000370218891
:100AD000090501D5452100E06521A0F1010800F8D4
:100AE000011C09980FA9A1EB0807FF1D00B1012007
:100AF000411901EBEA70A1693844081A401EA0614F
:100B00002078C00602D42046AFF30080099828B1AF
:100B1000D4E901219047206A401C20622078C00659
:100B200022D52046AFF300801EE0002E04DBB34543
:100B300002DD01A8805D00E03020D4E9012190476A
:100B4000206A401C2062761CAAF101005FEA000ABC
:100B50000AD100F049F8C0680168405CD4E901217D
:100B60009047206A401C2062281EA5F10105DCDCAC
:100B700007E0D4E9012118F8010B9047206A401CD6
:100B80002062381EA7F10107F3DC2046AFF3008096
:100B9000032011B043E610B5436913B1AFF30080F1
:100BA00001E0FFF78BFC012010BD127800F1240159
:100BB0000A7000224A700122EDE711684FF0FF32FF
:100BC000E9E70000074B70B50D467B4400F05BF889
:100BD0000446284600F018F910B14FF0FF3070BD00
:100BE000204670BD77570000004870471C0A00205F
:100BF00030B5B0F10A024FEA900E71F100034EEAEF
:100C0000817EB0EB0E0061EB91014FEA101E4EEABF
:100C1000017E10EB0E0041EB11114FEA102E4EEA4F
:100C2000016E10EB0E0041EB11214FEA104E4EEA1F
:100C3000014E10EB0E0041EB1141401841F1000153
:100C40004FEAD00040EA41704FEAD10110EB800535
:100C50004FEA810444EA907444EB01046D1944EBBB
:100C60000404521BA3414FF0000348BF0A3200D5D1
:100C700030BD401C41F1000130BD000001694A1C3B
:100C800002610878704700B58FB0CDE901310021CD
:100C9000059105497944CDE9031011466846FFF7EF
:100CA000D9FB0FB000BD0000E5FFFFFF2DE9F041CB
:100CB0001F46044603260168072A01F4006004DB8E
:100CC00008B116A505E016A503E008B115A500E0DA
:100CD00015A521F010002060A069C01EA0610FB111
:100CE000401EA0612046AFF300804FB1D4E901213E
:100CF00038469047206A401C2062C01C206206E0F3
:100D0000206AFAE7D4E9012115F8010B9047761E15
:100D1000F8D22046AFF30080BDE8F0814E414E008E
:100D20006E616E00494E4600696E66002DE9F0471F
:100D3000814616468AB0334878440DC88DE80D00C8
:100D400030487844801C03AC0DC884E80D0041F69F
:100D50009B300844372190FBF1F290FBF1F5A5F1AF
:100D6000800501FB12041B3C02D56442012000E017
:100D70000020DFF890A080460027FA44AAF1BE0ABE
:100D80000DE0E00709D03246684607EB47010AEB61
:100D9000810100F032FF8DE8070064107F1C002CF9
:100DA000EFD1184F7F44AC3F18E0E80714D007EBB1
:100DB00004100DF1180A90E80E008AE80E00C068D1
:100DC000F04201D198190890324606A903A800F014
:100DD00014FF03AB83E807006D10641C002DE4D101
:100DE00032466946B8F1000F03A802D000F0F1FEC8
:100DF00001E000F002FFC9E90001C9F808200AB0CB
:100E0000BDE8F087F45B0000007B00F080007047D5
:100E100010B542485421FFF72EFC41485421FFF7FA
:100E20002AFC40485421FFF726FC3F493B483C4AF6
:100E30003F4B08603D490A603A491960531C0365FD
:100E4000481C1065012008653B48344A39A17844A4
:100E500000F022F920B9384878440A3800F0C1F986
:100E600037482F4A35A1784400F016F920B93448A4
:100E700078440A3800F0B5F932482A4A2FA178445C
:100E800000F00AF920B92F4878440A3800F0A9F98F
:100E900040232248DC000021224600F0D9F820B18E
:100EA00025487844543800F09CF91D4822464023D8
:100EB000002100F0CDF820B121487844543800F0EA
:100EC00090F9184822461023002100F0C1F80028AC
:100ED00006D01C487844BDE81040563800F081B96F
:100EE00010BD104870B5006D20F001040B4800F0F3
:100EF00049F90B4800F046F90A4800F043F909E0C7
:100F0000206D20F00105204600F03CF9204600F05D
:100F100078F82C46002CF3D170BD000000090020A9
:100F200054090020A80900202401002028010020E5
:100F30002C01002072000000F65A0000770000002B
:100F4000E25A0000CE5A00000EB5CDE9000100F0D3
:100F500013FB029069460120ABBE0EBD08B5694681
:100F600000900220ABBE08BD1FB58DE807006946A2
:100F70000520ABBE04B010BD1FB58DE80F0069465B
:100F80000620ABBEF6E708B5694600900920ABBE67
:100F900008BD1CB5CDE9000169460A20ABBE1CBDE9
:100FA000704708B5694600900C20ABBE08BD000034
:100FB00000487047FC0900207546FFF7F9FFAE4670
:100FC00005006946534620F00700854618B020B555
:100FD000FFF7AAF9BDE820404FF000064FF00007E8
:100FE0004FF000084FF0000B21F00701AC46ACE8D1
:100FF000C009ACE8C009ACE8C009ACE8C0098D463E
:10100000704770B50446051F00F028F90068002CF1
:1010100014BF446870BD002C18BFAC423CBF2046D2
:101020006468F8D301680A18AA4218BF456003D162
:101030002A6805461144016028684119A1421CBF75
:101040006C6070BD6168696021680844286070BD8B
:1010500070B5C468A50713D0650211D4B2F5807FBE
:1010600009D0B2F5007F06D0B2F5806F08D1012318
:1010700000F1240106E05D1E6FF07F46B54201D30A
:10108000012070BD0161C361416024F470611143AE
:10109000C160002070BD00002DE9F0410C460746FC
:1010A0001646104600F06EF82078611C61280AD0C0
:1010B000722802D077283CD102E00125002405E007
:1010C0000225042402E0082448F2020511F8010B6D
:1010D0002B2806D0622809D011F8010C74280AD0F8
:1010E0000BE045F0030544F00204EFE745F004058A
:1010F00044F00104EAE744F0100438462146FFF7C3
:1011000023FF411C15D00021316171604FF4007143
:10111000F560F1617061200704D53046022200219C
:1011200000F016F9306D40F0010030653046BDE842
:10113000F0810020FBE72DE9F0410D460646104CFA
:10114000206DC10704D0410804D020F00104F7E766
:1011500022460EE0542000F0CCF807000ED0206D9F
:1011600047F001010843542120653846FFF783FA10
:101170003A4629463046BDE8F0418DE70020D6E7E3
:10118000000900202DE9F04704464FF000094FF018
:10119000FF37C568D4E90486A80707D0204600F0C9
:1011A00087F93046FFF7DAFE002802DA3846BDE854
:1011B000F087280502D54046FFF723FF4C21204643
:1011C000FFF759FA206D20F0010020654846EEE750
:1011D00010B50446AFF300802046BDE81040FFF78D
:1011E0008FB810B500F0AEF9BDE8104000F0A4B91A
:1011F0004FF0013C50F8042B51F8043B9A4215D1B2
:10120000A2EB0C03934313EACC130BD150F8042B3D
:1012100051F8043B9A4209D1A2EB0C03934313EA21
:10122000CC13E7D04FF00000704700BFD01A01BACE
:10123000B1FA81F101F0180122FA01F0CB40C1F1BD
:101240002001DBB2C0B2C01A2CFA01F3D11A9143CB
:1012500011EAC311E6D1704770470000004870479B
:10126000040A0020704770477047704738B504463D
:101270000A4600206946AFF30080002808BF38BD49
:1012800002460099204600F0A4F9012038BD012053
:1012900000F0F3B9F8B5AFF30080054600200C4626
:1012A000102000BF0646A819A0420DD93246694653
:1012B0000020AFF30080070008BF00F0DEF90098BF
:1012C000A04218BF0546C419FFF7C8FF05600746CE
:1012D000F01D20F007004619284600F073F9B442CB
:1012E00008BFF8BDA21B31463868BDE8F84000F0E1
:1012F00070B970B50646FFF7B1FF056806F10B003F
:1013000020F00704B4429CBF002070BD2B466A68E1
:10131000BAB11068A04210D304F1080188423CBF62
:101320005068586007D35168101941601168091B53
:10133000016058601460101D70BD13465268002A89
:10134000E7D121462846FFF791FF0028DED170BD86
:101350002DE9F041044616460D464769007B80079B
:101360002ED03846FFF70FFE50BB3EB3012E02D001
:10137000022E25D104E0204600F045F905441DE089
:101380003846FFF70EFEE168002841F01001E160E9
:1013900005DA204600F058F80120BDE8F081C903C5
:1013A0000BD56268E16A914200D81146A2691144E6
:1013B0002269891A814200DD08460544002D01DAC0
:1013C0000220EAE7E16A6068E268814206D291039E
:1013D000E06203D522F4003141F01002A669002733
:1013E000AE4213DCE16A814201D90B4600E00346BC
:1013F00003EB060C2369ACEB030CAC4506DD814224
:1014000001D98C4600E084469C4505D1A760276041
:1014100042F02000A5620DE0AD1BE669AE1B8142E3
:10142000A66000D90846C01A281A206058196060C2
:1014300022F0200003490840E060002084F8487052
:10144000ABE70000BFCFD7FFC16821F4001141F026
:101450008001C16000218160016070472DE9F04783
:10146000814614460E464FF0FF383248D56857691A
:10147000054209D03846A169FFF78BFD002811DB32
:101480002C48C0430540E5602B4632464946384665
:10149000FFF76AFDA16920F00042B21A114400284A
:1014A000A16103D02046FFF7CFFF4046BDE8F0879B
:1014B00070B504460569C06A6168884200D808466C
:1014C000E16821F42011E160C90312D5A84208D0D7
:1014D0002246411B2846FFF7C1FF10B14FF0FF30F5
:1014E00070BD0020E562C4E90150E06820F480305E
:1014F000E060002070BD10B50446C06820F02000F8
:10150000E060A16AA06988420DD02046FFF7D0FFB5
:10151000E06820F4405040F01000E060A06AA06154
:101520002069E062606044F24001E0688843E06066
:1015300010BD000010000200002801D000F03CB8EF
:101540007047000010B5014602A000F07DF80120B0
:1015500010BD000053494752545245443A20526549
:101560006469726563743A2063616E2774206F70DA
:10157000656E3A200000000010B5431C02E010F830
:10158000011B71B18107FAD14FF0013202C88C1AE8
:101590008C4314EAC211F9D0C01A0A0603D0C01E47
:1015A00010BDC01A10BD0A0401D0801E10BD090272
:1015B000FCD0401E10BD000001491820ABBEFEE764
:1015C0002600020000210160C0E9011070471020D0
:1015D0007047034640688C46002818BF88423CBFCD
:1015E00003464068F8D318681844884207D00CF1C5
:1015F000030020F00700001D411A521A0146081D81
:101600000A60FFF7FEBC10B50146C268900703D020
:10161000900607D5886A0AE000F03EF801210160D3
:10162000881E10BD8B69486818440B69C01A91F870
:1016300048301BB191F84910401A10BD1103FCD578
:101640000028FADD401E10BD70B505460C460A2084
:1016500000E06D1C00F018F835B128780028F8D1AA
:1016600002E0641C00F010F814B120780028F8D1D2
:10167000BDE870400A2000F007B810B500F010F87F
:10168000BDE81040FFF758BF08B569468DF8000067
:101690000320ABBE08BD000000487047FC090020D5
:1016A00010B5012805D0002103A0FFF7CDFF0120D0
:1016B00010BD09A1F8E7000053494752544D454D6C
:1016C0003A204F7574206F662068656170206D65E3
:1016D0006D6F7279000000003A2048656170206DDE
:1016E000656D6F727920636F7272757074656400D6
:1016F0005FEA400C08BF91F0000F4FEA8C234FEADD
:10170000C12243EA51514FEA1C5018BF00F5F04086
:101710004FEA300018BF41F000415FEA6C5C00F016
:101720002980BCF1FF3F08BF40F080407047130C98
:1017300006BF12044FF0100C4FF0000C130E04BF44
:1017400012020CF1080C130F04BF12010CF1040C6F
:10175000930F04BF92000CF1020CD30F04BF520090
:101760000CF1010C11464FF00002A0F11F00A0EB9C
:101770000C00704711F0004F08BF704731F0004176
:101780003FF4D5AF0B0C06BF09044FF0100C4FF01F
:10179000000C0B0E04BF09020CF1080C0B0F04BF68
:1017A00009010CF1040C8B0F04BF89000CF1020C31
:1017B000CB0F04BF49000CF1010CCCF12003A0EBCE
:1017C0000C0022FA03F302FA0CF241EA030100F1E1
:1017D0000100704720F07F4C80EA030023F07F4730
:1017E000ACEB070303F57C5300F0004003F1FF036B
:1017F0002DE980494FEA154B09B44FEA144325EA15
:101800000B4E24EA03480FF2042606EB132749087F
:101810003E785FEA320203FB0667C7F5000707FB65
:1018200006F64FEA54374FEAD64606F1020607FBA2
:10183000066CCCF1005C4FEA1C472CEA074C07FB16
:1018400006F40CFB06F504EB15464FEA961634BF7A
:1018500000204FF000404FEAD13706FB07FC4FEA6B
:101860001C4C0CFB0BF7D21B03FB0CF761EB0701C5
:101870000CFB0EF7B0EB074072EB17420CFB08F7BE
:1018800034BFA2EB0742B2EB074261EB17414FEACC
:101890000C444FEA910706FB07FC4FEA1C4C0CFB7B
:1018A0000BF7B0EBC74072EB573203FB0CF734BFBA
:1018B000A2EBC742B2EBC74261EB57310CFB0EF70C
:1018C000B0EBC70072EB57720CFB08F734BFA2EB0A
:1018D000C702B2EBC70261EB5771039F4FEA816108
:1018E00041EA921104EBCC044FEAD1374FEA82620D
:1018F00006FB07FC42EA90124FEA80604FEA1C4C5C
:101900000CFB0BF7D21B03FB0CF761EB07010CFB85
:101910000EF7B0EB074072EB17420CFB08F734BF31
:10192000A2EB0742B2EB074261EB17414FEA8C553D
:101930004FEA910704EB9C2406FB07FC4FEA1C4C82
:101940000CFB0BF7B0EBC74072EB573203FB0CF705
:1019500034BFA2EBC742B2EBC74261EB57310CFB7D
:101960000EF7B0EBC70072EB57720CFB08F734BFF1
:10197000A2EBC702B2EBC70261EB577115EB4C2526
:101980004FEA816141EA92114FEA82624FEAD13710
:1019900042EA901206FB07FC44F100044FEA806023
:1019A0004FEA1C4C0CFB0BF7D21B03FB0CF761EB53
:1019B00007010CFB0EF7B0EB074072EB17420CFB74
:1019C00008F734BFA2EB0742B2EB074261EB1741C5
:1019D00015EB1C154FEA813141EA92414FEA823200
:1019E00042EA90424FEA80304FEA0C7644F100041C
:1019F00048EA03434EEA0B484FF0000EB2EB080CE6
:101A000071EB030724BF624639464EEB0E0E4FF0D2
:101A1000000B0018524149414BEB0B0BB2EB080C89
:101A200071EB03077BF1000B24BF624639464EEB96
:101A30000E0E4FF0000B0018524149414BEB0B0BBF
:101A4000B2EB080C71EB03077BF1000B24BF62467D
:101A500039464EEB0E0E51EA020718BF46F001065A
:101A600016EB0E7655F1000254F1000103D5BDE8E6
:101A70008901BDE80088BDE88901BDE80048B619C4
:101A8000524141EB0101A3F10103704780807F7E49
:101A90007D7C7B7A797877767675747372717170E4
:101AA0006F6E6E6D6C6C6B6A6A6968686766666596
:101AB0006464636362616160605F5F5E5E5D5D5C24
:101AC0005C5B5B5A5A595958585757565655555595
:101AD0005454535352525251515050504F4F4F4EF5
:101AE0004E4D4D4D4C4C4C4B4B4B4A4A4A49494943
:101AF0004848484747474746464645454544444485
:101B0000444343434342424242414141002B26D495
:101B1000770021D01CB54FEA370703B44FF010000F
:101B20004FF010014FF000000FBCBDE810400BF16A
:101B3000010BBBF1010F08BF5FEA170722BF12F1CB
:101B4000010211F101014FF0004143F1000300F0E7
:101B5000004043EA00007047F9D35708DAE746EA45
:101B6000064613F1400F4FEA16461FDD13F1200F12
:101B7000DFBF16430A46002120335B42C8D0C3F1C1
:101B8000200746EA064602FA07F74FEA164646EAF3
:101B90000706C3F1200722FA03F201FA07F721FA38
:101BA00003F14FF0000342EA0702B1E746EA0206FA
:101BB00046EA06464FEA164646EA0106BCBF46EA32
:101BC0000646360C4FF000034FF000024FF00001C4
:101BD0009EE72DE9C048934630B491E8380007C825
:101BE00031EA400C48BF34EA430C03D5FFF7F2FD5D
:101BF000FFF78CFFF0BCBDE800882DE9C048934694
:101C000030B491E8380007C810F0804F08BF13F0D7
:101C1000804F03D100F005F8FFF778FFF0BCBDE876
:101C2000008820F07F4780EA030023F07F4C07EB19
:101C30000C03A3F57C5300F00040A3F1FE0392F0E7
:101C4000000F00F0B38095F0000F00F077802DE9D1
:101C500001494FEA11404FEA144621EA004800FBCF
:101C600006FC24EA064708FB06F607FB08F800FB1B
:101C700007F718EB06484CEB164C4FEA124B18EBE3
:101C800007484FEA15464CEB174022EA0B4E0BFB78
:101C900006FC25EA06470EFB06F607FB0EFE0BFBCD
:101CA00007F71EEB064E4CEB164C4FF000061EEBF2
:101CB000074E4CEB174B18EB0B0840F1000018EBEC
:101CC0000E0B58EB000840F100008F1A4FF0000196
:101CD0003CBFC943661B14BFB5EB040C00213CBFDD
:101CE000C943F61B4FEA17444EEA8E0E27EA044515
:101CF0004FEA1C4704FB07622CEA074C05FB07F779
:101D00000CFB05F604FB0CFC16EB074642EB1742F6
:101D100016EB0C4642EB1C421BEB060658EB02028C
:101D2000414146EA9E0601D5BDE80189B6195241F6
:101D300041EB0101A3F10103BDE801894FEA14451C
:101D40004FEA114724EA054621EA074C05FB07F450
:101D500006FB07F70CFB06F105FB0CFC11EB07413A
:101D600044EB17444FEA124711EB0C4144EB1C447F
:101D700022EA074C05FB07F206FB07F70CFB06F609
:101D800005FB0CFC16EB074642EB174216EB0C4624
:101D900042EB1C456A1854F1000148BF7047B61960
:101DA000524141EB0101A3F10103704795F0000F8F
:101DB00037D04FEA11424FEA144721EA024624EA9B
:101DC000074C02FB07F106FB07F70CFB06F402FBCE
:101DD0000CFC14EB074441EB17414FEA154714EB99
:101DE0000C4441EB1C4125EA074C02FB07F506FBBE
:101DF00007F70CFB06F602FB0CFC16EB074645EB5F
:101E0000174516EB0C4645EB1C42121951F1000127
:101E100048BF7047B619524141EB0101A3F10103DC
:101E200070474FEA14454FEA114724EA054621EA74
:101E3000074C05FB07F106FB07F70CFB06F24FF01A
:101E4000000605FB0CFC12EB074241EB174112EBBD
:101E50000C4251EB1C4148BF7047921841EB010105
:101E6000A3F10103704700004A496FF0706210B59A
:101E7000D1F8043323F44033C1F80433D1F80433E8
:101E800044682343C1F8043301684B6823F480732A
:101E90004B60016803694C6844EA03234B600168A6
:101EA0004B6823F040734B60016884684B682343A0
:101EB0004B6001688B6823F400638B600168C46821
:101EC0008B6823438B60816AD14201688A6822F063
:101ED00070628A6001680DD0836A8A681A438A60DA
:101EE00001688A6822F040528A600168C36A8A6881
:101EF0001A4302E08A6822F040528A6001688A68C8
:101F000022F002028A60016882698B6843EA420219
:101F10008A6090F820100029016811D01E4A4B6891
:101F200043F400634B6001684B6823F460434B60EB
:101F30000168446A4B6802EB443213434B6003E090
:101F40004A6822F400624A600168144BCA6A22F4AB
:101F50007002CA620168848BCA6A03EB04531A4395
:101F6000CA6201688A6822F400728A60016890F887
:101F700030208B6843EA42228A6001688A6822F432
:101F800080628A60016840698A6842EA80208860CD
:101F900010BD00000020014000E0FFFF0000F0FF46
:101FA000024800224FF4806100F029BB0008024083
:101FB00001220248910200F022BB0000000802400A
:101FC000002310B50DE0C469C4F3C014002CFAD08E
:101FD00011F8014B8462C469C4F38014002CFAD058
:101FE0005B1C9342EFD310BDC269C2F3C012002A3A
:101FF000FAD08162C169C1F380110029FAD070471B
:102000000821016250E8001F41F0200140E8001261
:10201000002AF7D1704710B541F29414204603F01E
:10202000EDFD204603F0E2FD204603F0E3FD2046EF
:1020300003F0E8FD2046BDE8104003F0D1BDFEE707
:102040007047000070B5184C01260025322000F0C2
:1020500093F902F0E5FB02F0F1FB02F0FDFBFFF764
:10206000A7FF642000F088F9FFF79AFF267002F0BE
:102070000BFC02F005FC02F0FFFB6D1C022DE5DB02
:102080004FF08040A18D89B24163A18889B28163FC
:10209000218989B2C163A18A89B201640349208C74
:1020A00080B2086070BD00000000002034080040CD
:1020B00072B6FEE7034A4FF080419288101A80B250
:1020C0008863704700000020034A4FF080419288E7
:1020D000101A80B28863704700000020034A4FF056
:1020E00080411289101A80B2C86370470000002036
:1020F000034A4FF080411289104480B2C863704790
:1021000000000020F8B50025009590F83C20012A39
:102110001DD0012280F83C20664C0723D6070A68B0
:10212000092A22D9B24220D007680A3A02EB420CAF
:10213000FA6803FA0CF39A43FA600A68A24208D1DB
:1021400002680B7AD76847EA0363D36022E0022073
:10215000F8BD07680A3A8B6802EB4202D7F80CC058
:10216000934043EA0C03FB6014E0076802EB420271
:10217000D7F810C093402CEA030CC7F810C00368CE
:102180000F788A68D3F810C007EB4707BA4042EAD5
:102190000C021A614A681F23072A16D20768521ECA
:1021A00002EB820C7A6B03FA0CF39A437A630368AE
:1021B0000F790A887F1ED3F834C092B207EB8707E5
:1021C000BA4042EA0C025A632DE007680D2A15D284
:1021D000D21F02EB820C3A6B03FA0CF39A433A6378
:1021E00002680F790B88FF1FD2F830C09BB207EB53
:1021F0008707BB4043EA0C03136314E00D3A02EB7C
:10220000820CFA6A03FA0CF39A43FA6203680F79B4
:102210000A880D3FD3F82CC092B207EB8707BA406B
:1022200042EA0C02DA62244A0368934208D10B683E
:10223000B34205D1D2F8043323F44003C2F8043387
:10224000036893420ED10B68122B0BD1D2F80433E2
:1022500023F40003C2F80433D2F8043343F48003B8
:10226000C2F804330368934220D10B68A34201D023
:10227000112B1BD1D2F8043323F48003C2F80433AA
:10228000D2F8043343F40003C2F804330968A142CE
:102290000CD10A490A4A0968B1FBF2F101EB81014C
:1022A000490000E0491E00910029FBD180F83C5014
:1022B0000020F8BD12000010002001402001002085
:1022C00040420F0070B504004FF0000503D0206CB1
:1022D000002610B107E0012070BD204600F01CF878
:1022E000666484F83C60206CC00610D4206C20F436
:1022F000885040F0020020642046FFF7B5FD666478
:10230000206C20F0020040F00100206400E0012574
:1023100084F83C60284670BD10B586B00446142190
:102320006846FEF7A8F91149206888421BD1104879
:10233000016841F480710160006800F480700590CC
:102340000B481438016841F0040101600068032162
:10235000002200F0040005900F208DE807000548DA
:10236000694600F01BF806B010BD000000200140D7
:10237000443802400008024070B5044600F044F9B9
:102380000546601C02D004480078044400F03CF983
:10239000401BA042FAD370BD140100202DE9F84F74
:1023A000DFF80CB2012403254FF00F0A00220BF1D5
:1023B000040E00BF0B6804FA02F63340B34278D132
:1023C0000F7907F00307012F01D0022F1AD1876878
:1023D0004FEA4209D1F80CC005FA09F827EA0807C4
:1023E0000CFA09FC4CEA070CC0F808C0476891F8E1
:1023F00004C0B743CCF3001C0CFA02FC4CEA070CF7
:10240000C0F804C00E79F643B6070BD0C6684FEA91
:10241000420C8F6805FA0CF826EA080607FA0CF752
:102420003743C7600E7906F00306022E12D1D60894
:102430004FEA427800EB860600960F69D6F82090A6
:102440004FEAD8660AFA06FCB74029EA0C06374379
:10245000009E37620F7906684FEA420C07F00307C7
:1024600005FA0CF807FA0CF726EA08063743076066
:102470004E6816F4403F1CD04E4E376847F48047F4
:102480003760366822F00308970706F48046009606
:10249000494E3F0F4644B146D6F80868DFF81C8124
:1024A0000AFA07FC404526EA0C0603D14FF0000C5F
:1024B00041E076E0DFF808C1604502D14FF0010C41
:1024C00039E0DFF800C1604502D14FF0020C32E084
:1024D000DFF8F4C0604502D14FF0030C2BE0DFF8C9
:1024E000ECC0604502D14FF0040C24E0DFF8E0C0FE
:1024F000604502D14FF0050C1DE0DFF8D8C0604503
:1025000002D14FF0060C16E0DFF8CCC0604502D1D6
:102510004FF0070C0FE0DFF8C4C0604502D14FF068
:10252000080C08E0DFF8B8C0604502D14FF0090C94
:1025300001E04FF00A0C0CFA07FC4CEA060CC9F853
:1025400008C84F68DBF80060FF0226EA030600D5E2
:102550001E437746CBF80060D1F804C0DEF8006077
:102560005FEA8C2C26EA030600D51E43DFF840C044
:102570003E60ACF1040C4F68DCF80060BF0326EA53
:10258000030600D51E430A4FCCF80060083FD1F87F
:1025900004C03E685FEACC3C26EA030600D51E4331
:1025A0003E60521C102AFFF405AFBDE8F88F000012
:1025B000083C014044380240003001400000024025
:1025C0000004024000080240000C024000100240DB
:1025D0000014024000180240001C0240002002408B
:1025E000002402400069084000D001207047426981
:1025F00021EA02030A4043EA0241816170470AB1BD
:10260000816170470904FBE701488068704700005A
:102610001401002030B590F84120202A24D190F8F0
:102620004020012A20D0012380F84030242280F865
:102630004120202300240268156825F0010515605B
:102640000268156825F480551560026815680D4309
:10265000156001680A6842F001020A6080F84130A2
:1026600080F84040002030BD022030BD30B590F8E9
:102670004120202A22D190F84020012A1ED0012397
:1026800080F84030242280F8412020240025026870
:10269000136823F0010313600268136823F4706366
:1026A00043EA0121116001680A6842F001020A60F0
:1026B00080F8414080F84050002030BD022030BDFD
:1026C00070B5040004D094F84100002510B106E074
:1026D000012070BD204684F8405000F04DF82420C1
:1026E00084F841002068016821F001010160D4E90B
:1026F000001020F0706008612068816821F40041BA
:102700008160E06821680128A06806D040F4044098
:102710008860E068022803D006E040F40040F7E754
:1027200021684FF40060486020212068114A436806
:10273000134343602068C26822F40042C26054F828
:10274000106B0DCC104340EA0320F06054F81C3CA1
:10275000D4E900021043186054F81C0D026842F0DE
:1027600001020260656484F84110256384F84250D8
:10277000002070BD008000022DE9F047AAB0054698
:10278000142124A8FDF777FF90216846FDF773FF19
:1027900028681227374D002637494FF00309354C7A
:1027A000103588424FF0040A22D100141996009087
:1027B000684600F07BF908B1FFF77AFC206840F02A
:1027C000020020602068C022CDE9266900F00200E6
:1027D00024A9CDE928A02948CDE92427FFF7DEFD6B
:1027E000286840F400102860286800F400103CE0DD
:1027F000234988423AD14FF480301B9600906846B6
:1028000000F054F908B1FFF753FC206840F00400D1
:102810002060206800F004002990206840F001004A
:1028200020602068B8464FF400714C4600F001006B
:102830005746CDE92418CDE92669CDE928A01148ED
:1028400024A9FFF7ABFD4FF480710F48CDE92418A0
:10285000CDE9266424A92897FFF7A0FD286840F455
:1028600000002860286800F4000029902AB0BDE824
:10287000F08700003038024000540040000402405D
:10288000005C0040000802400000024002488168ED
:10289000027811448160704714010020032010B5B4
:1028A00000F0BCF80F2000F005F800F071F80020EF
:1028B00010BD000070B50D4D04464FF47A700C4AFF
:1028C00029781268B0FBF1F0B2FBF0F000F006FEE0
:1028D00048B9102C07D200222146501E00F07EF885
:1028E00000206C6070BD012070BD0000140100204C
:1028F00020010020F0B5154C4378211D0A1D2360EE
:102900000378F3B143680B60057BC67A817A437B19
:102910002D07847B45EA0665C77B90F809C0067AD7
:1029200090F800E045EAC14040EA834040EA444074
:1029300040EA074040EA0C2040EA460040EA0E0028
:1029400001E0002008601060F0BD000098ED00E09C
:10295000BFF35F8F044800210368034A23F48033E8
:10296000036070321160704724ED00E0074A40F0C8
:102970000100064970321060086840F48030086039
:10298000BFF34F8FBFF36F8F7047000024ED00E05F
:102990000A4808B5016841F080510160006800F004
:1029A000805000900548001D016841F4804101609D
:1029B000006800F48040009008BD000040380240EC
:1029C000002809DB410900F01F028900012001F104
:1029D000E0219040C1F80001704700000E4BF0B4B8
:1029E0001B680D46C3F30223C3F10706042E00D96A
:1029F0000426191D072901D2002300E0DB1E012453
:102A000004FA06F19C40491E2940641E9940144076
:102A10002143F0BC03F04DBC0CED00E0064900F092
:102A2000070210B54FF6FF040868044B204040EA47
:102A300002201843086010BD0CED00E00000FA050C
:102A40001848F8B5016841F0805101600068164CE3
:102A500000F080500090206840F480302060FFF744
:102A6000D3FD4FF47A76054605E000BFFFF7CCFDB5
:102A7000401BB0420FD86068C003F7D5206840F40F
:102A800000302060FFF7C0FD054606E0FFF7BCFD03
:102A9000401BB04201D90320F8BD60688003F5D522
:102AA0000020F8BD40380240007000402DE9F84F8A
:102AB00004460078DFF820944FF000063746C00740
:102AC0000ED0D9F8001021F40001C9F80010D9F88F
:102AD0000010626B1143C9F80010606B00B9012649
:102AE000FD4D2068843500030ED5E16B286820F485
:102AF000401008432860E06BB0F5801F01D010B192
:102B000002E0012600E0012720684FF4800BC0029C
:102B10000CD5216C286820F4400008432860206C04
:102B2000584501D1012601E000B901272068C10103
:102B300000D50126800666D5E7483830016841F0A7
:102B4000805101600068DFF894A300F0805000908D
:102B5000DAF8001041F48071CAF80010FFF754FD54
:102B6000804605E0FFF750FDA0EB080064287DD803
:102B7000DAF80000C005F5D5DFF85C8308F16808D5
:102B8000D8F8000010F440702AD0218E01F4407172
:102B9000814225D0D8F80010D8F8002021F44071E7
:102BA00042F48032C8F80020D8F8002022F48032A5
:102BB000C8F80020C8F80010D8F80000C0070FD0EF
:102BC000FFF722FD824607E0FFF71EFDA0EB0A019A
:102BD00041F288308142CAD8D8F800008007F3D586
:102BE000206BC0F3012103297ED0D9F8001021F415
:102BF000F811C9F80010228ED8F80010C2F30B02A9
:102C00001143C8F800102078C00607D5286820F0C6
:102C1000807028602868A16B084328602188AE482E
:102C20008830490405D5626E016821F440311143B2
:102C300001602188090405D5A26E016821F44021B4
:102C4000114301602168C90305D5E26E016821F4D2
:102C50004011114301602168890305D5226F016885
:102C600021F4400111430160217800E032E149067E
:102C700005D5626C016821F00301114301602178E0
:102C8000090605D5A26C016821F00C011143016011
:102C90002188C90505D5E26C016821F03001114396
:102CA00001602188890505D5226D016821F0C001E8
:102CB000114301602188490505D5626D016821F441
:102CC0004071114301602188090505D5A26D016895
:102CD00021F44061114301602188C90407D5E26DE8
:102CE000016821F4405100E065E011430160218852
:102CF000890405D5226E016821F440411143016029
:102D00002168490205D5A26F016821F08061114355
:102D1000016021684FF0006A890209D5E26F0168FD
:102D200021F0006111430160E16F514500D101279D
:102D30002168490305D5626F016821F04071114394
:102D400001602168090206D5D4F88020016821F0CD
:102D50008051114301602168490106D5D4F88420CF
:102D6000016821F00051114301602068000106D57F
:102D7000D4F88810286820F0007008432860206884
:102D8000C00006D5D4F88C10286820F08060084375
:102D90002860DFF84C91012E02D0206880017CD59C
:102DA000D9F800004E4620F08060C9F80000FFF717
:102DB0002BFC804610E04B4AD9F80030104023F439
:102DC000F8120243C9F8002015E700BFFFF71CFC0A
:102DD000A0EB080064287DD830680001F6D4217883
:102DE0003D487C30C90712D0616B81B9237A626893
:102DF0000168D0F800C09201C1F3014142EA0142EA
:102E0000CCF3036142EA016141EA03710160216888
:102E10000A0303D5E26BB2F5801F04D0C9021AD5AC
:102E2000216C594517D16368016894F80CC0026899
:102E30009B01C1F3014143EA0141C2F3027241EA3D
:102E40000C6141EA027101602968626A21F01F0188
:102E5000521E114329602168C90110D5238A626876
:102E60000168D0F800C09201C1F3036142EA034255
:102E700042EA0162CCF3027142EA01710160216809
:102E800089010ED56168228A237B890194F808C0E4
:102E900041EA024141EA036100E014E041EA0C71B9
:102EA00001603168B04641F080613160FFF7ACFBF2
:102EB000064604E0FFF7A8FB801B64286DD8D8F80D
:102EC00000000001F6D5E7B3D9F800004E4620F027
:102ED000805009E061E000000838024000700040C6
:102EE00000380240FFFCFF0FC9F80000FFF78CFB21
:102EF000074604E0FFF788FBC01B64284DD8306804
:102F0000C0438000F6D5216828480A0301D5E26B4A
:102F10001AB1C9021DD5216CD9B963690168277E30
:102F200002689B01C1F3014143EA0143C2F302710C
:102F300043EA076242EA0171016029686FF0FF030A
:102F400000E031E0A26A21F4F85103EB02221143C0
:102F500029602168890212D5E16F51450FD1218C7A
:102F6000626903689401026844EA0144C3F303619F
:102F700044EA0163C2F3027143EA017101603068FF
:102F800040F080503060FFF73FFB044608E000BF90
:102F9000FFF73AFB001B642802D90320BDE8F88F35
:102FA0003068C0438000F3D40020F7E7883802403F
:102FB0002DE9F04705000F4663D0444E306800F01D
:102FC0000F00B84209D2306820F00F00384330605B
:102FD000306800F00F00B84253D128683C4C81079C
:102FE00012D5400703D5206840F4E05020602878CF
:102FF000000703D5206840F460402060A96820687D
:1030000020F0F000084320602878C0072AD030491B
:1030100068680839012810D00968022810D089078B
:1030200000292EDA216821F0030101432160FFF716
:10303000EBFA804641F288390DE009688903EFE731
:103040008901EDE7FFF7E0FAA0EB0801494502D955
:103050000320BDE8F0876868216801F00C01B1EB3E
:10306000800FEFD1306800F00F00B8420BD9306804
:1030700020F00F0038433060306800F00F00B84295
:1030800001D00120E5E72878400705D5E9682068E8
:1030900020F4E050084320602878000706D528690E
:1030A000216821F4604141EAC000206000F018F876
:1030B0002168084AC1F30311515CC8400649086001
:1030C00006480068FFF7F6FB0020C2E7003C02401C
:1030D000083802409A6800082001002018010020EA
:1030E000154910B51548096811F00C0213D01449A0
:1030F000042A0FD0082A0ED10F4C241F22682368FF
:1031000002F03F025B0207D52068C0F38810A0FBE5
:10311000010106E0084610BD2168C1F38811A1FB3A
:1031200000010023FDF712F92168C1F30141491C98
:103130004900B0FBF1F010BD083802400024F40053
:1031400040787D012DE9F84F04004FF000076ED064
:103150002078DFF87CA3AAF10408C007A8F10405D1
:103160004CD0DAF800105046C1F38101012908D093
:103170000068C0F3810002280AD1D8F8000040029C
:1031800006D52868800339D560680028DFD035E08F
:103190006068B0F5803F0BD010B1B0F5A02F11D012
:1031A000286820F480302860286820F4802002E01D
:1031B000286840F480302860606890B1FFF724FAF6
:1031C00006460AE0286840F480202860F0E700BF47
:1031D000FFF71AFA801B642872D828688003F7D595
:1031E0000CE0FFF711FA064605E000BFFFF70CFA06
:1031F000801B6428F0D828688003F7D420788007E3
:1032000042D5DAF80010504611F00C0F08D00068D3
:10321000C0F3810002280BD1D8F80000400207D487
:103220002868800718D5E068012800D114E04AE139
:10323000E0680028286817D040F001002860FFF7F8
:10324000E3F9064605E000BFFFF7DEF9801B022820
:10325000C2D828688007F7D52069296821F0F801CD
:1032600041EAC00028600FE020F001002860FFF76D
:10327000CBF9064605E000BFFFF7C6F9801B022820
:103280001ED828688007F7D42078000729D59048F1
:1032900061696C3000298146016812D041F001015A
:1032A0000160FFF7B1F9064605E000BFFFF7ACF992
:1032B000801B022804D8D9F800008007F6D510E05A
:1032C00089E021F001010160FFF79EF9064604E064
:1032D000FFF79AF9801B02287DD8D9F800008007F3
:1032E000F6D4207840076BD5DFF8E49109F138096E
:1032F000D9F80000C0000BD4D9F8001041F080517B
:10330000C9F80010D9F80000012700F080500090A3
:1033100070480168C90512D40168834641F4807180
:103320000160FFF771F9064605E000BFFFF76CF991
:10333000801B64284FD8DBF80000C005F6D5644E2A
:10334000A068683601280AD008B1052811D0306875
:1033500020F001003060306820F0040002E03068A6
:1033600040F001003060A068A0B1FFF74DF983463E
:103370000CE0306840F004003060F0E7FFF744F9FB
:10338000A0EB0B0141F28830814268D83068800799
:10339000F4D50EE0FFF738F9834607E0FFF734F97C
:1033A000A0EB0B0141F28830814258D83068800789
:1033B000F4D42FB1D9F8001021F08051C9F80010D1
:1033C000A069E0B3DAF80010C1F3810102294DD001
:1033D0000228286800E042E020F08070286003D0D6
:1033E000FFF712F904463DE0FFF70EF9064604E048
:1033F000FFF70AF9801B022831D828688001F7D42A
:10340000D4E90921DFF8D0C0D4E9070694F83030B8
:103410004F0894F82C1030430CEB074444EA821216
:10342000104340EA016040EA0370C8F800002868D1
:1034300040F080702860FFF7E7F8044605E044E0BC
:10344000FFF7E2F8001B022809D828688001F7D5A9
:103450003BE000BFFFF7D8F8001B022802D9032089
:10346000BDE8F88F28688001F4D42EE00128D8F850
:10347000000028D0E16900F480028A4223D1216A49
:1034800000F03F028A421ED1626A47F6C0710140D5
:10349000B1EB821F17D1A16A4FF0FF3200F4403325
:1034A00002EB5101B3EB014F0DD194F82C1000F059
:1034B0007062B2EB016F06D194F8301000F0E0407A
:1034C000B0EB017F01D00120CAE70020C8E700006F
:1034D00008380240007000400000FFFF401EB0F1BD
:1034E000807F10B501D3012010BD4FF0E024606152
:1034F0000F21601702F0DDFE0020A061072121618D
:1035000010BD704770477047F0B590F83C20012A15
:103510003BD01F4E012480F83C40022280F83D2021
:1035200002681C4D5368B242D2F808C001D0AA42CA
:1035300003D14F6823F470033B430F6823F07003FB
:103540001F4357600268B24213D0B2F1804F10D0CF
:10355000114B9A420DD0114B9A420AD0104B9A420D
:1035600007D0AA4205D00F4B9A4202D00E4B9A4286
:1035700004D189682CF0800319439160002180F800
:103580003D4080F83C100846F0BD0220F0BD000030
:103590000000014000040140000400400008004019
:1035A000000C0040004001400018004010B504002D
:1035B00003D094F83D0010B107E0012010BD0020B9
:1035C00084F83C00204600F023F8022084F83D00F7
:1035D0002068211D02F0AAFB012084F8480084F82D
:1035E0003E0084F83F0084F8400084F8410084F8ED
:1035F000420084F8430084F8440084F8450084F8CD
:10360000460084F8470084F83D00002010BD00000B
:1036100008B501681448B1F1804F14D0134A9142A3
:1036200020D1016841F002010160006800221146CA
:1036300000F0020000901D20FFF7D0F91D20BDE82A
:103640000840FFF7BDB9016841F001010160006861
:103650000022114600F0010000901C20FFF7BEF987
:103660001C20ECE708BD0000403802400004004088
:1036700090F83D10012901D001207047174A02211E
:1036800080F83D100168CB6843F00103CB6000680F
:10369000904214D0B0F1804F11D0114988420ED021
:1036A000104988420BD01049884208D00F498842FF
:1036B00005D00F49884202D00E49884207D181685F
:1036C0000D4A1140062906D0B1F5803F03D00168AC
:1036D00041F001010160002070470000000001403E
:1036E0000004004000080040000C004000040140BD
:1036F000004001400018004007000100016841F24D
:103700001113CA6822F00102CA6001680A6A1A42EB
:1037100007D10A6A9B101A4203D10A6822F00102FB
:103720000A60012180F83D100020704770B5044602
:1037300090F83C000025012817D0334B012684F86F
:103740003C60022084F83D0022689068184020F414
:103750007F4090600868502838D00DDC20284FD07A
:1037600005DC90B3102811D14AE0022070BD30284A
:1037700046D040280AD13BE060282FD070280DD0D9
:10378000B0F5805F03D0B0F5005F12D0012584F85A
:103790003D60002084F83C00284670BD4A682068DF
:1037A000D1E9021302F035FB2068816841F077010E
:1037B00009E04A682068D1E9021302F02AFB206878
:1037C000816841F480418160E1E719E0CA68496895
:1037D000206802F065FC2068502106E0CA6849684C
:1037E000206802F0AFFC2068602102F01BFBCEE7EE
:1037F000CA684968206802F053FC20684021F4E759
:10380000226801461046F0E788FFFEFF2DE9FF5FC2
:10381000DFF80084074601680025FF4C4FF0020ADC
:103820004EF6602B4FF00106D8F8000081422ED1F1
:10383000387F012806D0022851D0042875D00828E6
:10384000F5D1E7E0E06E4FF000010028F1481FD00D
:1038500000F036FFE0600021CDF800A0CDE9016561
:10386000EC48039500F038FCEA480022694600F075
:103870006BFAD8F800106FF0020008610021E548EB
:1038800000F088FB10B1E5A0FCF7D8FDE5660DE17E
:1038900000F016FF20610021DE48CDE900560295B8
:1038A000039500F019FCDB480022694600F04CFA51
:1038B000D8F800106FF0020008610021D54800F030
:1038C00069FB10B1D5A0FCF7B9FDD4E90301814231
:1038D000A1EB000000DC5844E6666061E6E0206F82
:1038E0004FF004010028CB4820D000F0E9FEA06191
:1038F0000421CDF800A0CDE90165C648039500F08C
:10390000EBFBC4480422694600F01EFAD8F8001008
:103910006FF0040008610421BE4800F03BFB10B1C9
:10392000BEA0FCF78BFD2567C0E026E000F0C8FED6
:10393000E0610421B748CDE900560295039500F0F7
:10394000CBFBB4480422694600F0FEF9D8F8001019
:103950006FF0040008610421AE4800F01BFB10B1B9
:10396000AEA0FCF76BFDD4E906018142A1EB00009B
:1039700000DC58442667206298E0606F4FF0080131
:103980000028A4481FD000F09BFE60620821CDF8FB
:1039900000A0CDE901659F48039500F09DFB9D487F
:1039A0000822694600F0D0F9D8F800106FF008003E
:1039B00008610821974800F0EDFA10B197A0FCF7D4
:1039C0003DFD656772E000F07BFEA0620821914832
:1039D000CDE900560295039500F07EFB082269466A
:1039E000384600F0B1F9D8F800106FF0080008610F
:1039F0000821884800F0CEFA10B188A0FCF71EFD1F
:103A0000D4E909018142A1EB000000DC584466675B
:103A1000E0624BE0A06F4FF00C0100287D481FD002
:103A200000F04EFE20630C21CDF800A0CDE9016529
:103A30007848039500F050FB76480C22694600F068
:103A400083F9D8F800106FF0100008610C2171485C
:103A500000F0A0FA10B171A0FCF7F0FCA56725E01A
:103A600000F02EFE60630C216A48CDE900560295F5
:103A7000039500F031FB67480C22694600F064F9B9
:103A8000D8F800106FF0100008610C21614800F0B8
:103A900081FA10B161A0FCF7D1FCD4E90C0181429C
:103AA000A1EB000000DC5844A667A063DFF8649136
:103AB000396809F14C09D9F8000081422ED1387FCC
:103AC00001282DD0DFF85081022808F1800877D036
:103AD000042873D0082821D1D8F808004FF00C0131
:103AE000002848466BD000F0EBFD20660C21CDF895
:103AF00000A04846CDE90165039500F0EDFA0C22DF
:103B00006946484600F020F939686FF010000861F6
:103B10000C21384600F03EFAC8F80850BDE8FF9F77
:103B2000E06F4FF0000100283A4800F14C001ED031
:103B300000F0C6FDE06300213648CDF800A0CDE9D5
:103B400001654C30039500F0C7FA324800226946FF
:103B50004C3000F0F9F8D9F800106FF0020008615D
:103B600000212C484C3000F015FAE567D6E700F04C
:103B7000A7FD206400212748CDE900564C3002956E
:103B8000039500F0A9FA2348002269464C3000F062
:103B9000DBF8D9F800106FF00200086100211D4821
:103BA0004C3000F0F7F9D4E90F108842A0EB010087
:103BB00000DC5844E6676064B0E701E056E09DE051
:103BC000D8F800004FF004010028124800F14C0022
:103BD00028D000F075FDA06404210E48CDF800A0A7
:103BE000CDE901654C30039500F076FA09480422CE
:103BF00069464C3000F0A8F8D9F800106FF00400C6
:103C00000861042103484C3000F0C4F9C8F80050A2
:103C100084E70000680800203C0000204552524F15
:103C2000520D0A0000F04CFDE06404214548CDE946
:103C300000560295039500F04FFA42480422694667
:103C400000F082F8D9F800106FF004000861042138
:103C50003C4800F09FF9D4E912108842A0EB010023
:103C600000DC58442065C8F8006057E7D8F8040025
:103C70004FF00801002833481CD000F021FD60659A
:103C80000821CDF800A0CDE901652E48039500F08C
:103C900023FA2C480822694600F056F8D9F800109B
:103CA0006FF0080008610821264800F073F9C8F891
:103CB000045033E700F004FDA06508212148CDE958
:103CC00000560295039500F007FA1E48082269463F
:103CD00000F03AF8D9F800106FF0080008610821E8
:103CE000184800F057F9D4E915108842A0EB0100FC
:103CF00000DC5844E065C8F804600FE700F0E0FC21
:103D000060660C210F48CDE900560295039500F03E
:103D1000E3F90C480C22694600F016F8D9F80010B7
:103D20006FF0100008610C21064800F033F9D4E967
:103D300018108842A0EB010000DC5844A066C8F8C7
:103D40000860EBE6B40800202DE9F041054690F844
:103D50003C0000260C46012810D0012085F83C00CC
:103D600072B1042A1CD0082A2CD00C2A51D001266A
:103D7000002085F83C003046BDE8F0810220FBE7DA
:103D8000E3682868D4E9001202F09CF92868816988
:103D900021F00C01816128688169A26811430FE05C
:103DA000E3682868D4E9001202F0DEF92868816926
:103DB00021F44061816128688169A26841EA022199
:103DC0008161D5E7D4E900232868217B076A4FF495
:103DD000206C090727F4807707620CEA0222C76982
:103DE000D0F820C027F003071F432CF4206C27F0E5
:103DF000F00342EA0C0243EA1161C16102622868E1
:103E0000C16921F00C01C1612868A268C169114330
:103E100029E02868D4E90032E168076A4FF6FF7CA0
:103E20004FF4204E27F4805707620CEA0131C7692E
:103E3000D0F820C00EEA033327F4407747EA022285
:103E40002CF4204C22F470421143C16143EA0C036C
:103E500003622868C16921F44061C1612868A168D2
:103E6000C26942EA0121C16182E710B5040003D0B2
:103E700094F83D0010B107E0012010BD002084F847
:103E80003C00204600F022F8022084F83D00206823
:103E9000211D01F04BFF012084F8480084F83E000A
:103EA00084F83F0084F8400084F8410084F8420020
:103EB00084F8430084F8440084F8450084F8460000
:103EC00084F8470084F83D00002010BD30B587B06D
:103ED000044614216846FCF7CEFB294B00222468D7
:103EE0000220284D103B2649AC4221D10C6844F0F9
:103EF00004040C60096801F004010591196841F09F
:103F000008011960196801F0080105914FF470412A
:103F10000091CDE90102CDE903201B486946FEF777
:103F20003DFA00221E201146FEF758FD1E2022E019
:103F3000164DAC4221D10C6844F008040C600968AD
:103F400001F008010591196841F001011960196833
:103F500001F0010105910F210091CDE90102CDE9A8
:103F600003200B486946FEF719FA00223220114659
:103F7000FEF734FD3220FEF723FD07B030BD000010
:103F80004038024000080040000C0240000C004095
:103F90000000024030B504464FF0000579B1042915
:103FA00012D0082915D00C2918D0102919D094F84E
:103FB000430000BF94F84720012817D114E094F87B
:103FC0003E0094F84420F7E794F83F0094F8452029
:103FD000F2E794F8400094F84620EDE794F84100A9
:103FE000E8E794F84200E5E7012A01D0012030BD5E
:103FF0004FF0020079B1042916D008291DD00C29F0
:104000004FD0102950D084F843000C2984F8470081
:104010004DD0012543E084F83E0084F84400206838
:10402000C26842F0020210E084F83F0084F84500C4
:104030002068C26842F0040207E084F8400084F877
:1040400046002068C26842F00802C260206801226F
:1040500001F0D2FE18492068884214D0B0F1804F98
:1040600011D0164988420ED0154988420BD0154907
:10407000884208D01449884205D01449884202D0A9
:104080001349884207D18168124A1140062906D097
:10409000B1F5803F03D0016841F00101016028467D
:1040A00030BD84F84100B0E784F84200ADE72068F5
:1040B000C26842F01002C8E700000140000400405E
:1040C00000080040000C0040000401400040014096
:1040D000001800400700010070B50D0004464FF0C5
:1040E000000607D0042D0AD0082D0DD00C2D10D0BD
:1040F000012635E02068C16821F002010DE020684A
:10410000C16821F0040108E02068C16821F00801BD
:1041100003E02068C16821F01001C160206800221E
:10412000294601F069FE206841F21112016A11422C
:1041300007D1016A9210114203D1016821F00101F7
:1041400001604FF001006DB1042D10D0082D13D087
:104150000C2D16D0102D17D084F8430084F847009A
:10416000304670BD84F83E0084F84400F8E784F8D7
:104170003F0084F84500F3E784F8400084F84600E7
:10418000EEE784F84100E9E784F84200E6E770B51D
:104190000446006800250169C943890715D4C16830
:1041A000C943890711D4EA1E0261012121772068E1
:1041B00080698007204602D0FFF728FB04E000F06A
:1041C00007F9204600F0C9F9257720680169C9433D
:1041D000490717D4C168C943490713D402216FF0B6
:1041E0000402026121772068806910F4407F204634
:1041F00002D0FFF70BFB04E000F0EAF8204600F0E5
:10420000ACF9257720680169C943090716D4C1684C
:10421000C943090712D404216FF008020261217713
:104220002068C0698007204602D0FFF7EFFA04E05B
:1042300000F0CEF8204600F090F92577206801695B
:10424000C943C90617D4C168C943C90613D4082194
:104250006FF01002026121772068C06910F4407F7E
:10426000204602D0FFF7D2FA04E000F0B1F8204671
:1042700000F073F9257720680169C943C90708D19F
:10428000C168C943C90704D1891E0161204600F0F5
:10429000E1F920680169C943090609D4C168C94325
:1042A000090605D46FF0800101612046FFF72AF965
:1042B00020680169C943C90509D4C168C943090611
:1042C00005D46FF4807101612046FFF71AF9206868
:1042D0000169C943490609D4C168C943490605D4DF
:1042E0006FF040010161204600F000FA206801698A
:1042F000C94389060BD4C168C943890607D46FF046
:10430000200101612046BDE87040FFF7FCB870BD98
:10431000F0B587B0044614216846FCF7ACF9226872
:104320000025274902242748B2F1804F264E25D088
:10433000264B9A4220D10A6842F001020A600A68BC
:1043400002F0010205920A6842F002020A6009685E
:1043500001F002010591C0218DE83200CDE903543E
:104360006946FEF71BF8032069468DE83100CDE968
:1043700003543046FEF712F807B0F0BD0A6842F069
:1043800001020A600A6802F0010205920A6842F01E
:1043900002020A600968012701F00201059120214B
:1043A0008DE83200CDE903576946FDF7F7FF40F687
:1043B000084069468DE83100CDE903573046D9E71A
:1043C0003038024000000240000402400004004077
:1043D000704770B5044690F83C0000260D46012851
:1043E0000BD0012084F83C000C2A4AD007DC82B1B3
:1043F000042A20D0082A06D131E0022070BD102AFC
:1044000053D0142A63D00126002084F83C003046A3
:1044100070BD206801F00EFD2068816941F008013F
:1044200081612068816921F00401816120682A6925
:104430008169114311E0206801F036FD206881692F
:1044400041F4006181612068816921F480618161AA
:1044500020682969826942EA01218161D4E72068E4
:1044600001F05EFD2068C16941F00801C16120686A
:10447000C16921F00401C16120682A69C169114341
:1044800011E0206801F088FD2068C16941F40061F5
:10449000C1612068C16921F48061C1612068296916
:1044A000C26942EA0121C161AEE7206801F0A0FDC6
:1044B0002068416D41F0080141652068416D21F09F
:1044C0000401416520682A69416D114311E02068AB
:1044D00001F0BAFD2068416D41F40061416520683A
:1044E000416D21F48061416520682969426D42EA8D
:1044F0000121416588E710B5040003D094F83D0020
:1045000010B107E0012010BD002084F83C002046D7
:1045100000F022F8022084F83D002068211D01F0FF
:1045200005FC012084F8480084F83E0084F83F0030
:1045300084F8400084F8410084F8420084F8430085
:1045400084F8440084F8450084F8460084F8470065
:1045500084F83D00002010BD7047704710B5044638
:104560004FF0020269B1042912D0082917D00C2992
:104570001CD0102921D094F84300012824D0012018
:1045800010BD94F83E000128F9D184F83E201DE0CA
:1045900094F83F000128F2D184F83F2016E094F807
:1045A00040000128EBD184F840200FE094F841004E
:1045B0000128E4D184F8412008E094F84200012861
:1045C000DDD184F8422001E084F8432001222068F4
:1045D00001F012FC17492068174A884201D0904226
:1045E00003D1436C43F4004343642068884213D0F2
:1045F000B0F1804F10D0114988420DD01049884247
:104600000AD01049884207D0904205D00E4988420E
:1046100002D00E49884207D181680D4A114006290F
:1046200006D0B1F5803F03D0016841F0010101607F
:10463000002010BD000001400004014000040040C3
:1046400000080040000C00400040014000180040FD
:1046500007000100164970B5054600680968002684
:10466000144C88420ED1A088401C80B2A08005283E
:1046700008D11148016821F001010160002001F01A
:104680002DFBA6800A4928689831096888420ED116
:10469000E088401C80B2E080052808D10748016806
:1046A00021F001010160002001F032FBE68070BDC5
:1046B0001C0800203C00002010040040100C0040AA
:1046C00002464FF0000041B1042909D008290AD060
:1046D0000C2901D11068006C70471068406B70475E
:1046E0001068806B70471068C06B70477047FEE7BA
:1046F0002DE9F047384D0128384C4FF400774FF43E
:1047000080684FF001064FF400694FF4805A1DD0C5
:104710002878A0B139462046FDF764FFC0B1414674
:104720002046FDF75FFF98B149462046FDF75AFF46
:1047300070B151462046FDF755FF012808D0394693
:104740002046FDF74FFF012832D043E02E70E1E70D
:104750001E20FDF711FE0020394628702046FDF787
:1047600041FF80B141462046FDF73CFF88B14946F4
:104770002046FDF737FF88B151462046FDF732FF4E
:10478000012810D026E016A0FBF758FE0120BDE856
:10479000F08717A0FBF752FE0220F8E718A0FBF7FE
:1047A0004DFE0320F3E71AA0FBF748FE0420EEE7D6
:1047B00041462046FDF716FF01280BD14946204609
:1047C000FDF710FF012805D151462046FDF70AFFED
:1047D00000B92E700020DAE73800002000100240F7
:1047E0004B4559315F50524553200D0A00000000DF
:1047F0004B4559325F50524553200D0A00000000CE
:104800004B4559335F50524553200D0A00000000BC
:104810004B4559345F50524553200D0A00000000AB
:1048200001480421FDF7E3BE0010024000220248C7
:104830000421FDF7E4BE00000010024001480821F9
:10484000FDF7D5BE00100240012202480821FDF705
:10485000D6BE00000010024001481021FDF7C7BE7F
:1048600000100240012202481021FDF7C8BE0000DE
:1048700000100240FFF7F0BFFFF7F4BFFFF7DEBF05
:10488000FFF7E2BFFFF7CCBFFFF7D0BF044908B581
:104890000A6802430A6009680140009108BD0000EF
:1048A00030380240044908B50A6802430A600968C2
:1048B0000140009108BD000040380240F0B50A6890
:1048C0000F25032492FAA2F2B2FA82F38FE00127B5
:1048D0009F4016EA07027CD04E68012E01D0022EBE
:1048E00020D192FAA2F6876892FAA2FCB6FA86F66E
:1048F000BCFA8CFE4FEA460C8E684FEA4E0E04FA64
:104900000CFC06FA0EF627EA0C0737438760D0F84E
:1049100004C0CF680E682CEA060C77434CEA070CFB
:10492000C0F804C092FAA2FCC76892FAA2F6BCFAD8
:104930008CFCB6FA86FE0E694FEA4C0C4FEA4E0E1E
:1049400004FA0CFC06FA0EF627EA0C073743C76098
:104950004E68022E33D192FAA2F6B6FA86F6082EE7
:1049600016D292FAA2FC076A92FAA2F6BCFA8CFC62
:10497000B6FA86FE4E694FEA8C0C4FEA8E0E05FAA7
:104980000CFC06FA0EF627EA0C073743076216E01E
:10499000476A160A96FAA6FC96FAA6FE4E69BCFA73
:1049A0008CFCBEFA8EFE4FEA8C0C4FEA8E0E05FA96
:1049B0000CFC06FA0EF627EA0C073743476292FA18
:1049C000A2FC066892FAA2F2BCFA8CFCB2FA82FE51
:1049D00000E00BE04A684FEA4C0C4FEA4E0E04FA36
:1049E0000CF7BE4302FA0EF2164306605B1C0A681F
:1049F0001646DA407FF46BAF0020F0BD70B52A4E4A
:104A0000C0284FF400454FF0000409D0B0F5407FB6
:104A10001CD0B0F5405F25D0B0F5404F2ED03BE024
:104A200000F04AF84038B0F5400004D0402835D0B6
:104A3000802803D12CE001F00BF805E001F008F824
:104A400000F0DCFF00F0E8FF044625E000F034F859
:104A500016494018EFD0B0F5807F1FD0B0F5007F29
:104A6000ECD115E000F028F811494018E3D0B0F57A
:104A7000805F13D0B0F5005FE0D109E000F01CF8D2
:104A80000C494018D7D0B0F5804F07D0A842D5D1F7
:104A900000F088F800B12C46204670BD00F07AF88E
:104AA0000028F9D03446F7E70024F40000FFFFFCAB
:104AB00000F0FFCF00C0FF3F02490968014041EA12
:104AC000004070479038024070B52C4D03284FF4D9
:104AD00000464FF0000407D00C281AD0B0F5406F04
:104AE0002AD0302834D041E000F04CF86FF4403147
:104AF000401804D001283BD0022803D132E000F056
:104B0000A7FF17E000F0A4FF00F078FF00F092FF8D
:104B100010E000F037F8001FB0F54020EFD0042877
:104B200026D008281ED000BF00F092FF00F066FFDC
:104B300000F072FF044619E000F024F81049401814
:104B4000DDD0B0F5806F13D0B0F5006FDAD109E099
:104B500000F018F81038B0F54010D0D0102807D069
:104B60002028E1D100F01EF800B13446204670BD87
:104B700000F010F80028F9D02C46F7E70024F400E4
:104B800000FCFFF302490968014041EA0040704718
:104B90009038024002480068C0F3400070470000AF
:104BA0000038024002480068C0F34000704700002F
:104BB000703802400248006800F03F007047000073
:104BC000043802400248006800F48000704700008A
:104BD00004380240416821F490414160816821F02D
:104BE0002A018160704700002DE9F0410446006809
:104BF00001260D4610F0010F55D1D5E903C1AB696F
:104C0000686822681943304F40EA0C0008433A4074
:104C1000104320606168A86821F44051014361603D
:104C2000A168686921F440710143A160274884426A
:104C300001D1032019E02648844201D10C2014E060
:104C40002448844201D130200FE02348844201D11E
:104C5000C02018E02148844202D14FF4407012E095
:104C60001F48844204D14FF44060FFF72DFF0CE051
:104C70001C48844202D14FF4405004E01A48844258
:104C800011D14FF44040FFF7B9FE60B1296851B12E
:104C9000AA690026B2F5004F08D000EB5100B0FB26
:104CA000F1F080B2E0603046BDE8F08140004FF6A0
:104CB000F07200EB5100B0FBF1F081B201EA0200AA
:104CC000C1F342010843EDE7F369FFEF0010014033
:104CD0000044004000480040004C004000500040AC
:104CE0000014014000780040007C00402DE9F047AE
:104CF000861A9846851A8946A1EB0804C6F1000673
:104D000001D5314600E029461F4B4FF08047D3F8CC
:104D100028C0614508DB01461C4800F060FC99682A
:104D2000081A586380B2F863002D00DA3546986A95
:104D3000854202DA198989B2F963A9EB0801002CCE
:104D4000C1F1000501DA294600E0214681420ADB73
:104D50000E4842464946203800F041FC5968081A7E
:104D6000186380B2B863002C00DA2C46986A84423B
:104D700002DA988880B2B863D3E90C12BDE8F04734
:104D800003A0FBF75BBB00000000002068010020CF
:104D900070776D5F70697463685F6F7574203D2014
:104DA00025642C2070776D5F726F6C6C5F6F75740B
:104DB000203D2025640D0A20000000007FB5164824
:104DC000002414490125009401942A0402940394B8
:104DD0000160C0E9012404618461104980F8204029
:104DE000C0E90A14C561C46080F830404561FDF730
:104DF00069FA08B172B6FEE70A206946CDE90005F6
:104E000005480294FDF77EF9002801D072B6FEE74E
:104E10007FBD000000200140F00600200100000FCF
:104E20002DE9F04186B014216846FBF724FC2F4899
:104E3000016841F010010160016801F01001059165
:104E4000016841F080010160016801F08001059175
:104E5000016841F004010160016801F0040105915D
:104E6000016841F001010160016801F00101059153
:104E7000016841F002010160016801F00201059141
:104E8000016841F00801016000680022184F1C21F0
:104E900000F0080005903846FDF7B1FBDFF85480BC
:104EA0003E15002231464046FDF7A9FB0024694625
:104EB00001251C200090CDE9015438460394FDF7EC
:104EC0006DFA4FF4F0506946CDE90004384602947B
:104ED000FDF764FA00966946CDE901544046039413
:104EE000FDF75CFA06B0BDE8F08100003038024002
:104EF00000100240000802401248002110B5104C7A
:104F00000123114A0460C0E90121C0E90331416174
:104F10008161C1610162FDF7D3FB08B172B6FEE7A2
:104F200008480021FDF776FB08B172B6FEE7054898
:104F30000021FDF79BFB002801D072B6FEE710BDF3
:104F40000054004038070020FFEAC000124800214A
:104F500010B5104C0123114A0460C0E90121C0E9D9
:104F6000033141618161C1610162FDF7A9FB08B1B3
:104F700072B6FEE708480021FDF74CFB08B172B697
:104F8000FEE705480021FDF771FB002801D072B64D
:104F9000FEE710BD005C004084070020FFEAC0006F
:104FA00010B58EB000241C21009407A8019402942F
:104FB0000394049405940694FBF75DFB29484EF690
:104FC000602121224FF08043C0E9024104618461E5
:104FD000C0E90032FEF7EAFA08B172B6FEE74FF414
:104FE000805000901F486946FEF7A0FB08B172B6DA
:104FF000FEE71C48FFF77FFA08B172B6FEE71948D2
:1050000004A904940694FEF77FFA08B172B6FEE78D
:105010006020CDE907041348002207A909940B94E6
:10502000FFF7D7F908B172B6FEE70E48042207A9C8
:10503000FFF7CFF908B172B6FEE70A48082207A9C0
:10504000FFF7C7F908B172B6FEE706480C2207A9B8
:10505000FFF7BFF908B172B6FEE70248FFF758F94B
:105060000EB010BDD007002010B58EB000241C215A
:10507000009407A801940294039404940594069460
:10508000FBF7F9FA2A484EF660212122274BC0E9A6
:10509000024104618461C0E90032FEF787FA08B179
:1050A00072B6FEE74FF48050009021486946FEF743
:1050B0003DFB08B172B6FEE71D48FFF71CFA08B1C8
:1050C00072B6FEE71A4804A904940694FEF71CFA87
:1050D00008B172B6FEE76020CDE90704144800224B
:1050E00007A909940B94FFF774F908B172B6FEE7AB
:1050F0000F48042207A9FFF76CF908B172B6FEE762
:105100000B48082207A9FFF764F908B172B6FEE759
:1051100007480C2207A9FFF75CF908B172B6FEE751
:105120000348FFF7F5F80EB010BD00000004004082
:105130001C08002010B588B02448002422492122F0
:105140004EF6602300940194029403940494059411
:10515000069480E81600C0E903348461FEF785FEFA
:1051600008B172B6FEE71948694600940294FEF74A
:10517000CBF908B172B6FEE70120002203A9CDE900
:105180000340124805940694FEF7DEFD08B172B69E
:10519000FEE70E48042203A9FEF7D6FD08B172B659
:1051A000FEE70A48082203A9FEF7CEFD08B172B651
:1051B000FEE706480C2203A9FEF7C6FD002801D031
:1051C00072B6FEE708B010BD000800406808002075
:1051D00010B588B024480024224921224EF66023CD
:1051E000009401940294039404940594069480E836
:1051F0001600C0E903348461FEF737FE08B172B6C9
:10520000FEE71948694600940294FEF77DF908B15B
:1052100072B6FEE70120002203A9CDE9034012483F
:1052200005940694FEF790FD08B172B6FEE70E48AD
:10523000042203A9FEF788FD08B172B6FEE70A480A
:10524000082203A9FEF780FD08B172B6FEE7064802
:105250000C2203A9FEF778FD002801D072B6FEE704
:1052600008B010BD000C0040B40800202DE9F0414A
:10527000B2B01C212AA8FBF7FEF9182124A8FBF7DD
:10528000FAF990216846FBF7F6F94FF48060009038
:10529000002468461594FDF709FC08B172B6FEE7D4
:1052A0004FF48010FFF7FEFA0220FFF7EFFA022515
:1052B000DFF87C800827E802CDE924050326404674
:1052C000CDE92664CDE9284724A9FFF7F7FA28039A
:1052D000CDE92405CDE92664CDE9284724A9404637
:1052E000FFF7ECFA00F0CCFF0022114600F05EF967
:1052F0000146352000F0CCFF352000F0B4FF0C2132
:105300004FF4E130CDE92A042C94CDE92D412F94BE
:105310002AA93094074C2046FFF766FC2046FFF789
:1053200059FC206840F00100206032B0BDE8F081F7
:1053300000040240005000402DE9F041B2B01C21B1
:105340002AA8FBF798F9182124A8FBF794F99021D3
:105350006846FBF790F940200090002468461194BD
:10536000FDF7A4FB08B172B6FEE72648016841F0DC
:1053700010010160006800F0100031900220FFF77A
:1053800085FA0225DFF8808004276803CDE924052B
:1053900003264046CDE92664CDE9284724A9FFF736
:1053A0008DFAA803CDE92405CDE92664CDE9284787
:1053B00024A94046FFF782FA00F062FF002211465E
:1053C00000F0F4F80146252000F062FF252000F0EF
:1053D0004AFF0C214FF4E130CDE92A042C94CDE9A9
:1053E0002D412F942AA93094084C2046FFF7FCFB4E
:1053F0002046FFF7EFFB206840F00100206032B04C
:10540000BDE8F08144380240000402400010014031
:105410002DE9F041B2B01C212AA8FBF72CF9182184
:1054200024A8FBF728F990216846FBF724F980208F
:105430000090002468461294FDF738FB08B172B65C
:10544000FEE74FF40030FFF72DFA0820FFF71EFAB1
:105450000225DFF8808007272020CDE924050326D8
:105460004046CDE92664CDE9284724A9FFF726FA6E
:105470004020CDE92405CDE92664CDE9284724A9BB
:105480004046FFF71BFA00F0FBFE0022114600F039
:105490008DF80146262000F0FBFE262000F0E3FEFA
:1054A0000C214FF4E130CDE92A042C94CDE92D41B3
:1054B0002F942AA93094084C2046FFF795FB2046EC
:1054C000FFF788FB206840F00100206032B0BDE8A3
:1054D000F0810000000C0240004400402DE9F04142
:1054E000B2B01C212AA8FBF7C6F8182124A8FBF7A4
:1054F000C2F890216846FBF7BEF8002468464FF4D6
:10550000807700971394FDF7D1FA08B172B6FEE7E1
:105510004FF48020FFF7C6F90820FFF7B7F90225FE
:105520004FF007080326CDE92664CDE924751C4F0A
:1055300024A9CDE928483846FFF7C0F929023846A2
:10554000CDE92415CDE92664CDE9284824A9FFF743
:10555000B5F900F095FE0022114600F027F801464B
:10556000272000F095FE272000F07DFE0C214FF44F
:10557000E130CDE92A042C94CDE92D412F942AA9BC
:105580003094084C2046FFF72FFB2046FFF722FB04
:10559000206840F00100206032B0BDE8F0810000DA
:1055A000000C024000480040FEE7FEE730B500F086
:1055B0000703C3F10704042C00D90424181D07288D
:1055C00001D2002300E0DB1E012505FA04F09D4016
:1055D000401E08406D1E98401540284330BD00EE27
:1055E000102A00EE901A4260B8EEC00AF8EEE00A07
:1055F000D0ED071A90ED033AD0ED022A30EE600AA2
:1056000090ED061AD0ED053A90ED042A71EE801A5D
:10561000016831EE631A80ED050A63EE210A80ED20
:10562000060AC0ED071A484242EE800A00EE101A40
:10563000B8EEC00A42EE010A01EE100AB8EEC11A35
:10564000C0FE810A80FEC00ABDEEC00A10EE100A3C
:105650007047000015484FF496729FED151A10B56B
:105660009FED140A0260782380ED021AF6EE000A1C
:1056700080ED030AC0ED040A436000F1200180EDD3
:10568000050A80ED060A80ED070A0A60A02481ED74
:10569000021A81ED030AC1ED040A4C6081ED050A8E
:1056A00081ED060A81ED070A10BD000048010020C7
:1056B000333313400000000070470000134810B55A
:1056C000FAF7BCFE12A0FAF7B9FE15A0FAF7B6FE7B
:1056D0001EA0FAF7B3FE28A0FAF7B0FE30A0FAF742
:1056E000ADFE3E48FAF7AAFE3DA0FAF7A7FE4BA092
:1056F000FAF7A4FE59A0FAF7A1FE66A0FAF79EFEFB
:10570000BDE810400148FAF799BE0000046A00089D
:105710002020BDD3CFDFB7BDB7A83A200D0A0000C7
:105720002A2AC3CEB4B4B5E7D7D3CBC4D0FDD2EDCB
:10573000B7C9D0D0C6F7CAD2C4DAD7D4B6AFB7C9C2
:10574000D0D02A2A2A2A0D0A0000000020202B355A
:1057500056202020202020203C2D2D2D2D2D2D20A9
:105760002020352E30562020202020203556B9A963
:10577000B5E70D0A000000002020474E44202020FD
:10578000202020202D2D2D2D2D2D2D202020474E69
:105790004420202020202020B5D80D0A0000000041
:1057A0002020504230202020202020202D2D2D2D63
:1057B0002D2D3E20202050574D332020202020200A
:1057C000D3EBD2A3BFD8C6F7B5C47069746368CDF4
:1057D000A8B5C0CFE0C1AC0D0A000000C069000848
:1057E0002020504136202020202020202D2D2D2D1E
:1057F0002D2D3E20202050574D31202020202020CC
:10580000D3EBD2A3BFD8C6F7BDD3CAD5BBFAD3CD8D
:10581000C3C5CFE0C1AC200D0A00000020205042DB
:1058200037202020202020202D2D2D2D2D2D3E20F5
:10583000202050574D32202020202020D3EBD2A30F
:10584000BFD8C6F7B5C4C6ABBABDCDA8B5C0285938
:10585000415729CFE0C1AC0D0A0000002020504183
:1058600030202020202020202D2D2D2D2D2D3E20BC
:1058700020204144435F434831202020C4A3C4E298
:10588000B3ACC9F9B2A8B8DFB6C8B2E2C1BF0D0A5D
:10589000000000002020B4F2D3A1B2C9BCAFCAFD01
:1058A000BEDD3A200D0A000010B511A0FAF7C6FDC2
:1058B0001FA126A0FAF7C2FD29A12BA0FAF7BEFD71
:1058C0002EA131A0FAF7BAFD34A0FAF7B7FD3EA039
:1058D000FAF7B4FD3EA0FAF7B1FD4348FAF7AEFD82
:1058E00042A0FAF7ABFDBDE8104001A0FAF7A6BD53
:1058F0002A2A2A2A2A2A2A2A2A2A2A2A2A2A2A2A08
:105900002A2A2A2A2A2A2A2A2A2A2A2A2A2A2A2AF7
:105910002A2A2A2A2A2A2A2A2A2A2A2A2A2A2A2AE7
:105920002A2A2A2A2A2A2A2A2A2A2A2A2A0A0D003E
:105930005634C3CEB4B4B7C9BFD8CAD2C4DAD7D4E8
:10594000B6AFB7C9D0D0C0FDB3CC00002A20C0FD8F
:10595000B3CCC3FBB3C62020203A2025730D0A0028
:10596000562D312E300000002A20C0FDB3CCB0E609
:10597000B1BE2020203A2025730D0A00323032318A
:105980002D30342D372000002A20B7A2B2BCC8D554
:10599000C6DA2020203A2025730D0A002A20B9CC2F
:1059A000BCFEBFE2B0E6B1BE203A53544D3332469E
:1059B0003130785F5374645065726970685F447207
:1059C00069766572290D0A002A200A0D0000000080
:1059D0002A205151202020203A20363635383336BF
:1059E000353138200D0A0000546900082A20C3CE42
:1059F000B4B4B5E7D7D3200D0A0000000449096804
:105A0000044A01F0F0010909515CC84070470000E8
:105A1000083802409A68000804490968044A01F4F9
:105A2000E05102EB91210978C840704708380240E4
:105A3000AA68000804490968044A01F4604102EBBD
:105A400051310978C840704708380240AA680008F8
:105A500006490748096811F00C0106D0042903D053
:105A6000082902D100F008B80248704708380240FF
:105A70000024F40040787D0110B5FFF7A3F80C4C2A
:105A800018B1B0F5800F00D10A4CFFF793F80A491E
:105A90000A680B68B4FBF0F0C2F3881103F44032DB
:105AA0000123484303EB12414900B0FBF1F010BD64
:105AB0000024F40040787D01043802400D4800F1D4
:105AC00080010A46006DCB681269984201DB904262
:105AD0000EDD904204DB4A69904201DC02207047EF
