:020000040800F2
:10000000900A00209902000837260008F92000080D
:1000100035260008C9050008032F0008000000006D
:100020000000000000000000000000003B26000867
:10003000CB05000800000000392600083D26000816
:10004000B3020008B3020008B3020008B3020008BC
:10005000B3020008B3020008B3020008B3020008AC
:10006000B3020008B3020008B3020008B30200089C
:10007000B3020008B3020008B3020008B30200088C
:10008000B3020008B3020008B3020008B30200087C
:10009000B3020008B3020008B3020008B30200086C
:1000A000B3020008B3020008B3020008B30200085C
:1000B000B3020008B3020008B3020008B30200084C
:1000C000B3020008B3020008B3020008B30200083C
:1000D000B3020008B3020008B3020008B30200082C
:1000E000B3020008B3020008B3020008B30200081C
:1000F000B3020008B3020008B3020008B30200080C
:10010000B3020008B3020008B3020008B3020008FB
:10011000B3020008B3020008B3020008B3020008EB
:10012000B3020008B3020008B3020008B3020008DB
:10013000B3020008B3020008B3020008B3020008CB
:10014000B3020008B3020008B3020008B3020008BB
:10015000B3020008B3020008B3020008B3020008AB
:10016000B3020008B3020008B3020008B30200089B
:10017000B3020008B3020008B30200080000000048
:10018000B3020008B3020008B3020008B30200087B
:10019000B3020008B3020008B3020008B30200086B
:1001A0000000000000000000B3020008B3020008D5
:1001B000B3020008B3020008B3020008B30200084B
:1001C000B3020008B302000800000000B3020008F8
:1001D000B3020008B3020008B3020008B30200082B
:1001E000B3020008B3020008B3020008B30200081B
:1001F00000000000B302000800F002F800F03CF834
:100200000AA090E8000C82448344AAF10107DA4571
:1002100001D100F031F8AFF2090EBAE80F0013F087
:10022000010F18BFFB1A43F001031847A42D00006B
:10023000C42D0000103A24BF78C878C1FAD85207FC
:1002400024BF30C830C144BF04680C607047000050
:100250000023002400250026103A28BF78C1FBD8CF
:10026000520728BF30C148BF0B6070471FB502F06E
:100270009DFE1FBD10B510BD00F0CFF81146FFF771
:10028000F5FF02F050FE00F0EDF803B4FFF7F2FFC7
:1002900003BC00F0F5F80000094880470948004712
:1002A000FEE7FEE7FEE7FEE7FEE7FEE7FEE7FEE726
:1002B000FEE7FEE704480549054A064B7047000083
:1002C000E5260008F901000890040020900A0020AB
:1002D000900600209006002053EA020C00F069808E
:1002E0002DE9F04B4FF00006002B1FBFB3FA83F54A
:1002F00003FA05F424FA05F65E4012BF1643B2FA7B
:1003000082F502FA05F4C5F120051EBF22FA05FCAC
:1003100044EA0C04203556EA044C4FEA144418BF52
:10032000641C4FF000084FF00009904271EB030C81
:1003300039D3002919BFB1FA81F701FA07F6B0FAEB
:1003400080F700FA07F6C7F120071EBF20FA07FC66
:1003500046EA0C062037B6FBF4FCA7EB0507103F76
:1003600007F01F0BCBF120060CFA0BFB2CFA06F65C
:1003700044BFB3460026202FA4BF5E464FF0000BBB
:100380005BEA060C08BF4FF0010B19EB0B09ABFB46
:10039000027C48EB0608C01B06FB02CC0BFB03CC1F
:1003A00071EB0C01C1E70B46024641464846BDE8E9
:1003B000F08B13B54FF000004FF00001AFF3008059
:1003C000BDE81C4070474FF0000200B5134694464C
:1003D0009646203922BFA0E80C50A0E80C50B1F19D
:1003E0002001BFF4F7AF090728BFA0E80C5048BFB1
:1003F0000CC05DF804EB890028BF40F8042B08BF4F
:10040000704748BF20F8022B11F0804F18BF00F84A
:10041000012B7047704770477047754600F02CF805
:10042000AE4605006946534620F00700854618B0E1
:1004300020B5FFF73FFFBDE820404FF000064FF02A
:1004400000074FF000084FF0000B21F00701AC4609
:10045000ACE8C009ACE8C009ACE8C009ACE8C00928
:100460008D46704710B50446AFF300802046BDE8C6
:100470001040FFF70ABF000000487047300400201A
:1004800001491820ABBEFEE72600020070470000BD
:100490004A496FF0706210B5D1F8043323F4403349
:1004A000C1F80433D1F8043344682343C1F804335A
:1004B00001684B6823F480734B60016803694C68E2
:1004C00044EA03234B6001684B6823F040734B60A0
:1004D000016884684B6823434B6001688B6823F490
:1004E00000638B600168C4688B6823438B60816AFA
:1004F000D14201688A6822F070628A6001680DD07A
:10050000836A8A681A438A6001688A6822F04052C6
:100510008A600168C36A8A681A4302E08A6822F026
:1005200040528A6001688A6822F002028A6001688B
:1005300082698B6843EA42028A6090F820100029A1
:10054000016811D01E4A4B6843F400634B60016898
:100550004B6823F460434B600168446A4B6802EBCC
:10056000443213434B6003E04A6822F400624A605D
:100570000168144BCA6A22F47002CA620168848B53
:10058000CA6A03EB04531A43CA6201688A6822F4F8
:1005900000728A60016890F830208B6843EA42223A
:1005A0008A6001688A6822F480628A600168406912
:1005B0008A6842EA8020886010BD00000020014067
:1005C00000E0FFFF0000F0FFFEE7704772B6FEE7B5
:1005D000F8B50025009590F83C20012A1DD0012295
:1005E00080F83C20664C0723D6070A68092A22D9DE
:1005F000B24220D007680A3A02EB420CFA6803FACA
:100600000CF39A43FA600A68A24208D102680B7A96
:10061000D76847EA0363D36022E00220F8BD076889
:100620000A3A8B6802EB4202D7F80CC0934043EAC7
:100630000C03FB6014E0076802EB4202D7F810C01D
:1006400093402CEA030CC7F810C003680F788A683F
:10065000D3F810C007EB4707BA4042EA0C021A6110
:100660004A681F23072A16D20768521E02EB820C23
:100670007A6B03FA0CF39A437A6303680F790A885A
:100680007F1ED3F834C092B207EB8707BA4042EA24
:100690000C025A632DE007680D2A15D2D21F02EB17
:1006A000820C3A6B03FA0CF39A433A6302680F79AF
:1006B0000B88FF1FD2F830C09BB207EB8707BB4007
:1006C00043EA0C03136314E00D3A02EB820CFA6A5E
:1006D00003FA0CF39A43FA6203680F790A880D3F14
:1006E000D3F82CC092B207EB8707BA4042EA0C025B
:1006F000DA62244A0368934208D10B68B34205D1F9
:10070000D2F8043323F44003C2F80433036893425D
:100710000ED10B68122B0BD1D2F8043323F4000353
:10072000C2F80433D2F8043343F48003C2F804332C
:100730000368934220D10B68A34201D0112B1BD137
:10074000D2F8043323F48003C2F80433D2F804331C
:1007500043F40003C2F804330968A1420CD10A49EA
:100760000A4A0968B1FBF2F101EB8101490000E09E
:10077000491E00910029FBD180F83C500020F8BDB3
:1007800012000010002001400C00002040420F0029
:1007900070B504004FF0000503D0206C002610B1A6
:1007A00007E0012070BD204600F01CF8666484F864
:1007B0003C60206CC00610D4206C20F4885040F0BF
:1007C000020020642046FFF763FE6664206C20F080
:1007D000020040F00100206400E0012584F83C6044
:1007E000284670BD10B586B0044614216846FFF750
:1007F000EAFD1149206888421BD11048016841F484
:1008000080710160006800F4807005900B48143816
:10081000016841F00401016000680321002200F03A
:10082000040005900F208DE807000548694600F098
:1008300009F806B010BD0000002001404438024015
:10084000000802402DE9F84FDFF80CB2012403251F
:100850004FF00F0A00220BF1040E00BF0B6804FAE0
:1008600002F63340B34278D10F7907F00307012F26
:1008700001D0022F1AD187684FEA4209D1F80CC083
:1008800005FA09F827EA08070CFA09FC4CEA070CF4
:10089000C0F808C0476891F804C0B743CCF3001C07
:1008A0000CFA02FC4CEA070CC0F804C00E79F643BF
:1008B000B6070BD0C6684FEA420C8F6805FA0CF8F1
:1008C00026EA080607FA0CF73743C7600E7906F0E8
:1008D0000306022E12D1D6084FEA427800EB8606B4
:1008E00000960F69D6F820904FEAD8660AFA06FCFF
:1008F000B74029EA0C063743009E37620F79066835
:100900004FEA420C07F0030705FA0CF807FA0CF758
:1009100026EA0806374307604E6816F4403F1CD0AD
:100920004E4E376847F480473760366822F0030838
:10093000970706F480460096494E3F0F4644B1465D
:10094000D6F80868DFF81C810AFA07FC404526EA59
:100950000C0603D14FF0000C41E076E0DFF808C14F
:10096000604502D14FF0010C39E0DFF800C160456D
:1009700002D14FF0020C32E0DFF8F4C0604502D142
:100980004FF0030C2BE0DFF8ECC0604502D14FF0D4
:10099000040C24E0DFF8E0C0604502D14FF0050C04
:1009A0001DE0DFF8D8C0604502D14FF0060C16E01C
:1009B000DFF8CCC0604502D14FF0070C0FE0DFF844
:1009C000C4C0604502D14FF0080C08E0DFF8B8C0A1
:1009D000604502D14FF0090C01E04FF00A0C0CFA0F
:1009E00007FC4CEA060CC9F808C84F68DBF8006041
:1009F000FF0226EA030600D51E437746CBF80060C7
:100A0000D1F804C0DEF800605FEA8C2C26EA030609
:100A100000D51E43DFF840C03E60ACF1040C4F68C7
:100A2000DCF80060BF0326EA030600D51E430A4F28
:100A3000CCF80060083FD1F804C03E685FEACC3CC7
:100A400026EA030600D51E433E60521C102AFFF41E
:100A500005AFBDE8F88F0000083C01404438024073
:100A60000030014000000240000402400008024043
:100A7000000C024000100240001402400018024026
:100A8000001C024000200240002402400AB18161A3
:100A900070470904FBE700000148806870470000C8
:100AA0000000002030B590F84120202A24D190F891
:100AB0004020012A20D0012380F84030242280F8F1
:100AC0004120202300240268156825F001051560E7
:100AD0000268156825F480551560026815680D4395
:100AE000156001680A6842F001020A6080F841302E
:100AF00080F84040002030BD022030BD30B590F875
:100B00004120202A22D190F84020012A1ED0012322
:100B100080F84030242280F84120202400250268FB
:100B2000136823F0010313600268136823F47063F1
:100B300043EA0121116001680A6842F001020A607B
:100B400080F8414080F84050002030BD022030BD88
:100B500070B5040004D094F84100002510B106E0FF
:100B6000012070BD204684F8405000F04DF824204C
:100B700084F841002068016821F001010160D4E996
:100B8000001020F0706008612068816821F4004145
:100B90008160E06821680128A06806D040F4044024
:100BA0008860E068022803D006E040F40040F7E7E0
:100BB00021684FF40060486020212068114A436892
:100BC000134343602068C26822F40042C26054F8B4
:100BD000106B0DCC104340EA0320F06054F81C3C2D
:100BE000D4E900021043186054F81C0D026842F06A
:100BF00001020260656484F84110256384F8425064
:100C0000002070BD008000022DE9F047AAB0054623
:100C1000142124A8FFF7D7FB90216846FFF7D3FBE8
:100C200028681227374D002637494FF00309354C05
:100C3000103588424FF0040A22D100141996009012
:100C4000684600F06DF908B1FFF7C0FC206840F07D
:100C5000020020602068C022CDE9266900F0020071
:100C600024A9CDE928A02948CDE92427FFF7EAFDEA
:100C7000286840F400102860286800F400103CE068
:100C8000234988423AD14FF480301B960090684641
:100C900000F046F908B1FFF799FC206840F0040025
:100CA0002060206800F004002990206840F00100D6
:100CB00020602068B8464FF400714C4600F00100F7
:100CC0005746CDE92418CDE92669CDE928A0114879
:100CD00024A9FFF7B7FD4FF480710F48CDE9241820
:100CE000CDE9266424A92897FFF7ACFD286840F4D5
:100CF00000002860286800F4000029902AB0BDE8B0
:100D0000F0870000303802400054004000040240E8
:100D1000005C004000080240000002400248816878
:100D2000027811448160704700000020032010B554
:100D300000F0AEF80F2000F005F800F071F8002088
:100D400010BD000070B50D4D04464FF47A700C4A8A
:100D500029781268B0FBF1F0B2FBF0F000F018FE59
:100D600048B9102C07D200222146501E00F070F81E
:100D700000206C6070BD012070BD000000000020EC
:100D80000C000020F0B5154C4378211D0A1D23608E
:100D90000378F3B143680B60057BC67A817A437BA5
:100DA0002D07847B45EA0665C77B90F809C0067A63
:100DB00090F800E045EAC14040EA834040EA444000
:100DC00040EA074040EA0C2040EA460040EA0E00B4
:100DD00001E0002008601060F0BD000098ED00E028
:100DE000BFF35F8F044800210368034A23F4803374
:100DF000036070321160704724ED00E0074A40F054
:100E00000100064970321060086840F480300860C4
:100E1000BFF34F8FBFF36F8F7047000024ED00E0EA
:100E20000A4808B5016841F080510160006800F08F
:100E3000805000900548001D016841F48041016028
:100E4000006800F48040009008BD00004038024077
:100E50000E4BF0B41B680D46C3F30223C3F1070623
:100E6000042E00D90426191D072901D2002300E011
:100E7000DB1E012404FA06F19C40491E2940641E31
:100E8000994014402143F0BC02F03CB80CED00E066
:100E9000064900F0070210B54FF6FF040868044B3E
:100EA000204040EA02201843086010BD0CED00E02D
:100EB0000000FA051848F8B5016841F0805101605A
:100EC0000068164C00F080500090206840F480309C
:100ED0002060FFF7E1FD4FF47A76054605E000BF9C
:100EE000FFF7DAFD401BB0420FD86068C003F7D5AA
:100EF000206840F400302060FFF7CEFD054606E094
:100F0000FFF7CAFD401BB04201D90320F8BD60685D
:100F10008003F5D50020F8BD403802400070004045
:100F20002DE9F84F04460078DFF820944FF00006D2
:100F30003746C0070ED0D9F8001021F40001C9F8D7
:100F40000010D9F80010626B1143C9F80010606BF3
:100F500000B90126FD4D2068843500030ED5E16BF4
:100F6000286820F4401008432860E06BB0F5801F2B
:100F700001D010B102E0012600E0012720684FF403
:100F8000800BC0020CD5216C286820F44000084377
:100F90002860206C584501D1012601E000B90127E5
:100FA0002068C10100D50126800666D5E7483830A3
:100FB000016841F0805101600068DFF894A300F0FF
:100FC00080500090DAF8001041F48071CAF80010E7
:100FD000FFF762FD804605E0FFF75EFDA0EB08002D
:100FE00064287DD8DAF80000C005F5D5DFF85C8309
:100FF00008F16808D8F8000010F440702AD0218E5B
:1010000001F44071814225D0D8F80010D8F80020B2
:1010100021F4407142F48032C8F80020D8F8002052
:1010200022F48032C8F80020C8F80010D8F8000078
:10103000C0070FD0FFF730FD824607E0FFF72CFD19
:10104000A0EB0A0141F288308142CAD8D8F80000EA
:101050008007F3D5206BC0F3012103297ED0D9F896
:10106000001021F4F811C9F80010228ED8F80010F1
:10107000C2F30B021143C8F800102078C00607D550
:10108000286820F0807028602868A16B08432860D9
:101090002188AE488830490405D5626E016821F484
:1010A0004031114301602188090405D5A26E016811
:1010B00021F44021114301602168C90305D5E26E86
:1010C000016821F44011114301602168890305D5AD
:1010D000226F016821F4400111430160217800E092
:1010E00032E1490605D5626C016821F00301114324
:1010F00001602178090605D5A26C016821F00C0178
:10110000114301602188C90505D5E26C016821F011
:101110003001114301602188890505D5226D0168E0
:1011200021F0C001114301602188490505D5626D98
:10113000016821F44071114301602188090505D53A
:10114000A26D016821F44061114301602188C90446
:1011500007D5E26D016821F4405100E065E01143DC
:1011600001602188890405D5226E016821F440417F
:10117000114301602168490205D5A26F016821F081
:1011800080611143016021684FF0006A890209D52E
:10119000E26F016821F0006111430160E16F514588
:1011A00000D101272168490305D5626F016821F04C
:1011B0004071114301602168090206D5D4F88020EE
:1011C000016821F08051114301602168490106D571
:1011D000D4F88420016821F0005111430160206897
:1011E000000106D5D4F88810286820F00070084364
:1011F00028602068C00006D5D4F88C10286820F03C
:10120000806008432860DFF84C91012E02D02068EE
:1012100080017CD5D9F800004E4620F08060C9F8E6
:101220000000FFF739FC804610E04B4AD9F8003047
:10123000104023F4F8120243C9F8002015E700BF5C
:10124000FFF72AFCA0EB080064287DD83068000175
:10125000F6D421783D487C30C90712D0616B81B942
:10126000237A62680168D0F800C09201C1F301419D
:1012700042EA0142CCF3036142EA016141EA0371AF
:10128000016021680A0303D5E26BB2F5801F04D028
:10129000C9021AD5216C594517D16368016894F8C1
:1012A0000CC002689B01C1F3014143EA0141C2F352
:1012B000027241EA0C6141EA027101602968626AC6
:1012C00021F01F01521E114329602168C90110D568
:1012D000238A62680168D0F800C09201C1F30361FB
:1012E00042EA034242EA0162CCF3027142EA01712E
:1012F0000160216889010ED56168228A237B8901FA
:1013000094F808C041EA024141EA036100E014E0B8
:1013100041EA0C7101603168B04641F08061316092
:10132000FFF7BAFB064604E0FFF7B6FB801B642814
:101330006DD8D8F800000001F6D5E7B3D9F8000061
:101340004E4620F0805009E061E00000083802407D
:101350000070004000380240FFFCFF0FC9F8000099
:10136000FFF79AFB074604E0FFF796FBC01B6428D3
:101370004DD83068C0438000F6D5216828480A035C
:1013800001D5E26B1AB1C9021DD5216CD9B96369C7
:101390000168277E02689B01C1F3014143EA0143D2
:1013A000C2F3027143EA076242EA017101602968EF
:1013B0006FF0FF0300E031E0A26A21F4F85103EB83
:1013C0000222114329602168890212D5E16F51453B
:1013D0000FD1218C626903689401026844EA0144D8
:1013E000C3F3036144EA0163C2F3027143EA01718A
:1013F0000160306840F080503060FFF74DFB0446DC
:1014000008E000BFFFF748FB001B642802D9032057
:10141000BDE8F88F3068C0438000F3D40020F7E7C0
:10142000883802402DE9F04705000F4663D0444E4E
:10143000306800F00F00B84209D2306820F00F0089
:1014400038433060306800F00F00B84253D128684C
:101450003C4C810712D5400703D5206840F4E0508A
:1014600020602878000703D5206840F460402060A1
:10147000A968206820F0F000084320602878C007A1
:101480002AD0304968680839012810D00968022834
:1014900010D0890700292EDA216821F003010143C9
:1014A0002160FFF7F9FA804641F288390DE00968BA
:1014B0008903EFE78901EDE7FFF7EEFAA0EB0801FA
:1014C000494502D90320BDE8F0876868216801F02A
:1014D0000C01B1EB800FEFD1306800F00F00B84283
:1014E0000BD9306820F00F0038433060306800F0CE
:1014F0000F00B84201D00120E5E72878400705D564
:10150000E968206820F4E05008432060287800074C
:1015100006D52869216821F4604141EAC0002060B5
:1015200000F038F82168084AC1F30311515CC84043
:101530000649086006480068FFF704FC0020C2E77F
:10154000003C024008380240B62F00080C00002082
:10155000040000200449054809680068044AC1F3F2
:101560008221515CC8407047083802400C000020BE
:10157000C62F00080449054809680068044AC1F3F9
:101580004231515CC8407047083802400C000020CE
:10159000C62F0008154910B51548096811F00C024E
:1015A00013D01449042A0FD0082A0ED10F4C241F3F
:1015B0002268236802F03F025B0207D52068C0F36F
:1015C0008810A0FB010106E0084610BD2168C1F3A8
:1015D0008811A1FB00010023FEF77EFE2168C1F304
:1015E0000141491C4900B0FBF1F010BD0838024030
:1015F0000024F40040787D012DE9F84F04004FF0FD
:1016000000076ED02078DFF87CA3AAF10408C00799
:10161000A8F104054CD0DAF800105046C1F381015E
:10162000012908D00068C0F3810002280AD1D8F847
:101630000000400206D52868800339D5606800287C
:10164000DFD035E06068B0F5803F0BD010B1B0F569
:10165000A02F11D0286820F480302860286820F45A
:10166000802002E0286840F480302860606890B1F3
:10167000FFF712FA06460AE0286840F48020286046
:10168000F0E700BFFFF708FA801B642872D82868CB
:101690008003F7D50CE0FFF7FFF9064605E000BF31
:1016A000FFF7FAF9801B6428F0D828688003F7D484
:1016B0002078800742D5DAF80010504611F00C0F60
:1016C00008D00068C0F3810002280BD1D8F80000D0
:1016D000400207D42868800718D5E068012800D1A7
:1016E00014E04AE1E0680028286817D040F00100C3
:1016F0002860FFF7D1F9064605E000BFFFF7CCF9F7
:10170000801B0228C2D828688007F7D5206929687D
:1017100021F0F80141EAC00028600FE020F001004C
:101720002860FFF7B9F9064605E000BFFFF7B4F9F6
:10173000801B02281ED828688007F7D4207800076D
:1017400029D5904861696C3000298146016812D022
:1017500041F001010160FFF79FF9064605E000BF77
:10176000FFF79AF9801B022804D8D9F800008007F7
:10177000F6D510E089E021F001010160FFF78CF956
:10178000064604E0FFF788F9801B02287DD8D9F8C7
:1017900000008007F6D4207840076BD5DFF8E4918D
:1017A00009F13809D9F80000C0000BD4D9F80010AD
:1017B00041F08051C9F80010D9F80000012700F06D
:1017C0008050009070480168C90512D401688346B2
:1017D00041F480710160FFF75FF9064605E000BF44
:1017E000FFF75AF9801B64284FD8DBF80000C005CA
:1017F000F6D5644EA068683601280AD008B10528DD
:1018000011D0306820F001003060306820F0040012
:1018100002E0306840F001003060A068A0B1FFF73E
:101820003BF983460CE0306840F004003060F0E79C
:10183000FFF732F9A0EB0B0141F28830814268D802
:1018400030688007F4D50EE0FFF726F9834607E0FD
:10185000FFF722F9A0EB0B0141F28830814258D802
:1018600030688007F4D42FB1D9F8001021F08051EE
:10187000C9F80010A069E0B3DAF80010C1F38101E3
:1018800002294DD00228286800E042E020F0807054
:10189000286003D0FFF700F904463DE0FFF7FCF8AD
:1018A000064604E0FFF7F8F8801B022831D82868C4
:1018B0008001F7D4D4E90921DFF8D0C0D4E90706C4
:1018C00094F830304F0894F82C1030430CEB074458
:1018D00044EA8212104340EA016040EA0370C8F80B
:1018E0000000286840F080702860FFF7D5F80446B3
:1018F00005E044E0FFF7D0F8001B022809D828686B
:101900008001F7D53BE000BFFFF7C6F8001B0228B7
:1019100002D90320BDE8F88F28688001F4D42EE0B6
:101920000128D8F8000028D0E16900F480028A423A
:1019300023D1216A00F03F028A421ED1626A47F633
:10194000C0710140B1EB821F17D1A16A4FF0FF3285
:1019500000F4403302EB5101B3EB014F0DD194F889
:101960002C1000F07062B2EB016F06D194F83010C9
:1019700000F0E040B0EB017F01D00120CAE7002079
:10198000C8E7000008380240007000400000FFFF78
:10199000401EB0F1807F10B501D3012010BD4FF083
:1019A000E02460610F21601701F0ACFA0020A06113
:1019B0000721216110BD0000F0B590F83C20012AFC
:1019C0003BD01F4E012480F83C40022280F83D208D
:1019D00002681C4D5368B242D2F808C001D0AA4236
:1019E00003D14F6823F470033B430F6823F0700367
:1019F0001F4357600268B24213D0B2F1804F10D03B
:101A0000114B9A420DD0114B9A420AD0104B9A4278
:101A100007D0AA4205D00F4B9A4202D00E4B9A42F1
:101A200004D189682CF0800319439160002180F86B
:101A30003D4080F83C100846F0BD0220F0BD00009B
:101A40000000014000040140000400400008004084
:101A5000000C004000400140001800402DE9F0411A
:101A6000054690F83C0000260C46012810D00120C5
:101A700085F83C0072B1042A1CD0082A2CD00C2A0C
:101A800051D00126002085F83C003046BDE8F081A9
:101A90000220FBE7E3682868D4E9001200F0C6FFE3
:101AA0002868816921F00C01816128688169A26838
:101AB00011430FE0E3682868D4E9001200F0F6FF54
:101AC0002868816921F44061816128688169A26880
:101AD00041EA02218161D5E7D4E900232868217B0E
:101AE000076A4FF4206C090727F4807707620CEA35
:101AF0000222C769D0F820C027F003071F432CF447
:101B0000206C27F0F00342EA0C0243EA1161C16144
:101B100002622868C16921F00C01C1612868A268CD
:101B2000C169114329E02868D4E90032E168076AF5
:101B30004FF6FF7C4FF4204E27F4805707620CEAE3
:101B40000131C769D0F820C00EEA033327F440778B
:101B500047EA02222CF4204C22F470421143C16166
:101B600043EA0C0303622868C16921F44061C16142
:101B70002868A168C26942EA0121C16182E710B503
:101B8000040003D094F83D0010B107E0012010BD1F
:101B9000002084F83C00204600F022F8022084F85F
:101BA0003D002068211D00F0A5FD012084F84800BB
:101BB00084F83E0084F83F0084F8400084F8410037
:101BC00084F8420084F8430084F8440084F8450017
:101BD00084F8460084F8470084F83D00002010BDDA
:101BE00030B587B0044614216846FEF7ECFB214B64
:101BF000002224680220204D103B1E49AC4219D11E
:101C00000C6844F004040C60096801F004010591BB
:101C1000196841F008011960196801F0080105917F
:101C20004FF470410091CDE90102CDE90320134842
:101C300069461AE0124DAC4219D10C6844F0080410
:101C40000C60096801F008010591196841F0010173
:101C50001960196801F0010105910F210091CDE98A
:101C60000102CDE9032007486946FEF7EBFD07B006
:101C700030BD00004038024000080040000C024027
:101C8000000C004000000240F0B587B0044614216B
:101C90006846FEF798FB226800252749022427485A
:101CA000B2F1804F264E25D0264B9A4220D10A68A9
:101CB00042F001020A600A6802F0010205920A6815
:101CC00042F002020A60096801F002010591C02198
:101CD0008DE83200CDE903546946FEF7B3FD0320D9
:101CE00069468DE83100CDE903543046FEF7AAFD80
:101CF00007B0F0BD0A6842F001020A600A6802F00B
:101D0000010205920A6842F002020A60096801278E
:101D100001F00201059120218DE83200CDE9035741
:101D20006946FEF78FFD40F6084069468DE83100B0
:101D3000CDE903573046D9E7303802400000024071
:101D4000000402400004004070B5044690F83C00D6
:101D500000260D4601280BD0012084F83C000C2AF7
:101D60004AD007DC82B1042A20D0082A06D131E00B
:101D7000022070BD102A53D0142A63D001260020FF
:101D800084F83C00304670BD206800F019FD2068E2
:101D9000816941F0080181612068816921F00401B5
:101DA000816120682A698169114311E0206800F08F
:101DB00041FD2068816941F4006181612068816989
:101DC00021F48061816120682969826942EA0121E8
:101DD0008161D4E7206800F069FD2068C16941F0A5
:101DE0000801C1612068C16921F00401C161206856
:101DF0002A69C169114311E0206800F093FD206851
:101E0000C16941F40061C1612068C16921F4806148
:101E1000C16120682969C26942EA0121C161AEE756
:101E2000206800F0ABFD2068416D41F0080141657C
:101E30002068416D21F00401416520682A69416DE7
:101E4000114311E0206800F0C5FD2068416D41F4A8
:101E5000006141652068416D21F480614165206821
:101E60002969426D42EA0121416588E710B5040005
:101E700003D094F83D0010B107E0012010BD002010
:101E800084F83C00204600F023F8022084F83D004E
:101E90002068211D00F02EFC012084F8480084F801
:101EA0003E0084F83F0084F8400084F8410084F844
:101EB000420084F8430084F8440084F8450084F824
:101EC000460084F8470084F83D00002010BD000063
:101ED00008B501680B48B1F1804F0BD00A4A914216
:101EE00007D1016841F002010160006800F00200C2
:101EF000009008BD016841F001010160006800F038
:101F00000100F5E7403802400004004010B504002D
:101F100002D0A06F10B107E0012010BD002084F8AE
:101F20007400204600F026F82420A067206801688D
:101F300021F001010160204600F066FE0128ECD08E
:101F4000606A10B1204600F0CCFD2068416821F4A1
:101F5000904141602068816821F02A0181602068F9
:101F6000016841F0010101602046BDE8104000F029
:101F70001CBE00002DE9F047AAB08046142124A819
:101F8000FEF721FA90216846FEF71DFA534C02260F
:101F900054490327D8F80000103C504D4FF000087A
:101FA000DFF83C91884223D101156846CDF8548072
:101FB0000091FEF7B5FF08B1FEF708FB286840F472
:101FC00080102860286800F480102990206840F074
:101FD00002002060206824AB4FF44051279700F0A6
:101FE000020083E842010822CDE9282024A926E046
:101FF0003D49884229D14020CDF844800090684670
:10200000FEF78EFF08B1FEF7E1FA3448001D0168C3
:1020100041F010010160006800F010002990206874
:1020200040F0020020602068042100F002002990A6
:10203000CDE9277124A94FF4404081E84101484689
:10204000FEF700FC2AB0BDE8F08728494FF00709E9
:10205000DFF89CA088421AD180216846CDF84880DC
:102060000091FEF75DFF08B1FEF7B0FA286840F472
:1020700000302860286800F400302990206840F083
:10208000080020602068602200F008001DE0194967
:102090008842D7D181156846CDF84C800091FEF773
:1020A0003FFF08B1FEF792FA286840F480202860CC
:1020B000286800F480202990206840F00800206003
:1020C00020684FF4407200F00800279724AB24A941
:1020D000CDE9289083E844015046B1E740380240FA
:1020E0000004024000500040001001400044004045
:1020F000000C024000480040FEE700007FB5164893
:10210000002414490125009401942A0402940394A4
:102110000160C0E9012404618461104980F8204015
:10212000C0E90A14C561C46080F830404561FEF71B
:102130002FFB08B172B6FEE70A206946CDE900051B
:1021400005480294FEF744FA002801D072B6FEE773
:102150007FBD000000200140100000200100000FA2
:102160002DE9F04186B014216846FEF72CF92F487E
:10217000016841F010010160016801F01001059152
:10218000016841F080010160016801F08001059162
:10219000016841F004010160016801F0040105914A
:1021A000016841F001010160016801F00101059140
:1021B000016841F002010160016801F0020105912E
:1021C000016841F00801016000680022184F1C21DD
:1021D00000F0080005903846FEF758FCDFF8548000
:1021E0003E15002231464046FEF750FC0024694669
:1021F00001251C200090CDE9015438460394FEF7D8
:1022000021FB4FF460606946CDE900043846029432
:10221000FEF718FB00966946CDE901544046039449
:10222000FEF710FB06B0BDE8F08100003038024038
:1022300000100240000802401248002110B5104C66
:102240000123114A0460C0E90121C0E90331416161
:102250008161C1610162FEF77BFC08B172B6FEE7E5
:1022600008480021FEF71EFC08B172B6FEE70548DB
:102270000021FEF743FC002801D072B6FEE710BD36
:102280000054004058000020FFEAC000124800211E
:1022900010B5104C0123114A0460C0E90121C0E9C6
:1022A000033141618161C1610162FEF751FC08B1F6
:1022B00072B6FEE708480021FEF7F4FB08B172B6DB
:1022C000FEE705480021FEF719FC002801D072B690
:1022D000FEE710BD005C0040A4000020FFEAC00043
:1022E00010B58AB0002468461C210794089409940C
:1022F000FEF769F82048611E4FF08042C0E90024D3
:10230000C0E9024104618461FFF7B0FD08B172B613
:10231000FEE7194807A907940994FFF74DFB08B198
:1023200072B6FEE760206946CDE90004124800223B
:1023300002940494FFF708FD08B172B6FEE70E4858
:1023400004226946FFF700FD08B172B6FEE70A48AD
:1023500008226946FFF7F8FC08B172B6FEE70648A6
:102360000C226946FFF7F0FC08B172B6FEE702489E
:10237000FFF78AFC0AB010BDF000002010B58AB04B
:10238000002468461C21079408940994FEF71BF862
:1023900021484FF6FF711F4AC0E90024C0E90241FD
:1023A00004618461FFF762FD08B172B6FEE71A4866
:1023B00007A907940994FFF7FFFA08B172B6FEE780
:1023C00060206946CDE90004134800220294049479
:1023D000FFF7BAFC08B172B6FEE70F48042269465F
:1023E000FFF7B2FC08B172B6FEE70B480822694657
:1023F000FFF7AAFC08B172B6FEE707480C2269464F
:10240000FFF7A2FC08B172B6FEE70348FFF73CFCF9
:102410000AB010BD000400403C01002010B588B097
:10242000244800244FF6FF7221490094019402943D
:102430000394049405940694C0E90014C0E9024290
:1024400004618461FFF79BFB08B172B6FEE719488F
:10245000694600940294FFF7AFFA08B172B6FEE73E
:102460000120002203A9CDE90340124805940694F7
:10247000FFF7F4FA08B172B6FEE70E48042203A98A
:10248000FFF7ECFA08B172B6FEE70A48082203A982
:10249000FFF7E4FA08B172B6FEE706480C2203A97A
:1024A000FFF7DCFA002801D072B6FEE708B010BDD5
:1024B000000800408801002010B588B0244800249E
:1024C0002249621E0094019402940394049405949A
:1024D0000694C0E90014C0E9024204618461FFF778
:1024E0004EFB08B172B6FEE71948694600940294A3
:1024F000FFF762FA08B172B6FEE70120002203A9D5
:10250000CDE90340124805940694FFF7A7FA08B1F5
:1025100072B6FEE70E48042203A9FFF79FFA08B13E
:1025200072B6FEE70A48082203A9FFF797FA08B136
:1025300072B6FEE706480C2203A9FFF78FFA0028BF
:1025400001D072B6FEE708B010BD0000000C0040DC
:10255000D40100200C48002110B50A4C0C224FF485
:10256000E1330460C0E90131C160C0E90412816156
:10257000C16101624162FFF7C9FC002801D072B657
:10258000FEE710BD00500040200200200C48002152
:1025900010B50A4C0C224FF4E1330460C0E901315C
:1025A000C160C0E904128161C16101624162FFF74B
:1025B000ADFC002801D072B6FEE710BD001001404E
:1025C000A40200200C48002110B50A4C0C224FF444
:1025D000E1330460C0E90131C160C0E904128161E6
:1025E000C16101624162FFF791FC002801D072B61F
:1025F000FEE710BD00440040280300200C480021E5
:1026000010B50A4C0C224FF4E1330460C0E90131EB
:10261000C160C0E904128161C16101624162FFF7DA
:1026200075FC002801D072B6FEE710BD00480040DE
:10263000AC030020FEE7FEE770477047FEF76EBB75
:1026400070B594B034216846FDF7BDFE14210DA885
:10265000FDF7B9FE2148016841F080510160006832
:1026600000F0805012901E48016841F44041016022
:1026700000680224012200F440401290C026CDE9F7
:102680000524E103CDE9096409200B940C250C9481
:10269000CDE900018B016846CDE90735FEF7ACFFB7
:1026A00008B172B6FEE7FEF705FC08B172B6FEE7A8
:1026B0000FAD00214FF4A0524FF4805385E80E0077
:1026C0000F20CDE90D0406210DA8FEF7ABFE002872
:1026D00001D072B6FEE714B070BD00004038024071
:1026E000007000400248016841F4700101607047C9
:1026F00088ED00E0F0B5274B4FF0804E264D026884
:102700009842264E264F274C09D0704507D0A84244
:1027100005D0B04203D0B84201D0A04205D1D1F8D3
:1027200004C022F070024CEA020298421BD07045AD
:1027300019D0A84217D0B04215D0B84213D0A04249
:1027400011D0194DA8420ED0184DA8420BD0184DEB
:10275000A84208D0174DA84205D0174DA84202D074
:10276000164DA84203D1CD6822F440722A434D6928
:1027700022F080022A43026098428A68C2620A6894
:10278000826201D0A04201D1096901630121416146
:10279000F0BD0000000001400004004000080040BF
:1027A000000C004000040140004001400044014092
:1027B0000048014000180040001C0040002000407C
:1027C000F0B5026ADFF860C0184F22F00102DFF8AE
:1027D00060E00262066A4268836926F002060D68BC
:1027E000B8428C6803EA0C0323F0030344EA0604AE
:1027F00045EA030501D0704505D1CB6824F00804F3
:10280000234323F00404B84201D0704505D122F4DB
:102810004076D1E9053233431A4342608561496805
:1028200041630462F0BD00008FFFFEFF0000014025
:1028300000040140F0B5026A194E1A4C22F0100251
:10284000DFF864E00262056A4368826925F02005CA
:10285000D1F808C0A0420F6802EA060222F44072D2
:1028600045EA0C1542EA072201D0704506D1CE6830
:1028700025F0800545EA061525F04005A04201D067
:10288000704507D1D1E9054623F4406343EA840348
:1028900043EA860343608261496881630562F0BD53
:1028A000FF8FFFFE0000014000040140F0B5026A06
:1028B000194F1A4E22F48072DFF864E00262056A52
:1028C0004368C26925F40075D1F808C0B0420C68AD
:1028D00002EA070222F0030245EA0C2544EA020458
:1028E00001D0704506D1CF6825F4006242EA072284
:1028F00022F48065B04201D0704507D123F44052E4
:10290000D1E9053642EA031242EA06134360C46184
:102910004968C1630562F0BD8FFFFEFF0000014002
:1029200000040140F0B5026A124B114F22F48052AC
:1029300098420262046A4268C36924F400548E68B3
:102940000D6803EA070323F4407344EA063443EABC
:10295000052302D0084DA84204D14D6922F48042DB
:1029600042EA85124260C361496801640462F0BDB5
:10297000FF8FFFFE0000014000040140F0B5026A35
:10298000DFF844C022F480320262056A4268446D76
:1029900025F400350E8960450C4F0B6804EA0704E6
:1029A00045EA064543EA040302D0094CA04204D19B
:1029B0004C6922F4803242EA04224260436549684D
:1029C00081650562F0BD0000000001408FFFFEFF41
:1029D00000040140F0B5026ADFF844C022F480121E
:1029E0000262046A4268436D24F400140E89604553
:1029F0000C4F0D6803EA070344EA065443EA052333
:102A000002D0094DA84204D14D6922F4802242EA45
:102A10008522426043654968C1650462F0BD0000DB
:102A200000000140FF8FFFFE0004014070B5046A02
:102A3000174D24F001040462A8428469056A14D089
:102A4000B0F1804F11D0134EB0420ED0124EB042B2
:102A50000BD0124EB04208D0114EB04205D0114EEC
:102A6000B04202D0104EB04203D124F0030414430C
:102A700001E044F001041A0724F0F00325F00A04F1
:102A800001F00A01214343EA12628261016270BDD2
:102A9000000001400004004000080040000C00401D
:102AA00000040140004001400018004070B5056A74
:102AB000A0244FF6FF7606EA033325F010050562E1
:102AC00004EA01118469056A24F4407425F0A00524
:102AD00044EA0222294322F47042134383610162D3
:102AE00070BD90F82410C90706D00168836A4A684F
:102AF00022F400321A434A6090F82410890706D560
:102B00000168C36A4A6822F480321A434A6090F826
:102B10002410490706D50168036B4A6822F4802215
:102B20001A434A6090F82410090706D50168436BE0
:102B30004A6822F400421A434A6090F82410C906F9
:102B400006D50168836B8A6822F480521A438A6032
:102B500090F82410890606D50168C36B8A6822F4B0
:102B600000521A438A6090F82410490611D5016872
:102B7000036C4A6822F480121A434A60016CB1F572
:102B8000801F06D10168436C4A6822F4C0021A43D0
:102B90004A6090F82410090606D50168826C4868DE
:102BA00020F40020104348607047F8B50026044622
:102BB000C0F88060FDF770FF054620686FF07E4723
:102BC0000068000708D500222B464FF4001120466C
:102BD000009700F031F960B92068006840070AD515
:102BE00000222B464FF480012046009700F024F984
:102BF00008B10320F8BD2020A067E067266600200A
:102C000084F87460F8BD00002DE9F04104460368C3
:102C1000C2698168D4E90450DFF8F0C17C4E2943D1
:102C20001F68002510437B4A014307EA0C070F4346
:102C30001F604FF400402168E7684B6823F440535D
:102C40003B434B602768A369216AD7F808C0194342
:102C50002CF430630B43BB602168B1420AD1116888
:102C600011F0030152D001297CD0022971D003292F
:102C70006ED184E0684B99420AD1116811F00C01C1
:102C800067D0042965D0082975D00C2960D176E079
:102C9000624B99420AD1116811F0300159D01029C4
:102CA0006BD0202967D0302952D168E05C4B994223
:102CB0000AD1116811F0C0014BD040295DD08029A4
:102CC00059D0C02944D15AE0564B99420DD11168D0
:102CD00011F440713DD0B1F5807F4ED0B1F5007F49
:102CE00049D0B1F5407F33D149E04F4B99420FD1E4
:102CF000116811F4406109D0B1F5806F3DD0B1F594
:102D0000006F38D0B1F5406F22D138E0012120E0CA
:102D1000464B99420DD1116811F4405119D0B1F5CB
:102D2000805F2AD0B1F5005F25D0B1F5405F0FD1AB
:102D300025E03F4B99420BD1116811F4404108D076
:102D4000B1F5804F19D0814215D0B1F5404F16D062
:102D50001021E369374A4FF6EF7683422ED10929D5
:102D600049D201E009E006E0DFE801F00B0E114571
:102D70001345454516000221EBE70421E9E7082148
:102D8000E7E7FEF7E7FB06E0FEF7F4FB03E010469B
:102D900002E0FEF7FFFB78B36168400000EB5100F2
:102DA000B0FBF1F0A0F11001B14224D84FF6F0735E
:102DB0002168C0F342021840104320E009291AD2CA
:102DC000DFE801F005080B190D1919191000FEF7BD
:102DD000C1FB06E0FEF7CEFB03E0104602E0FEF783
:102DE000D9FB48B1616800EB5100B0FBF1F0A0F1F4
:102DF0001001B14201D9012502E0216880B2C8600A
:102E000000206066A0662846BDE8F081F369FFEF08
:102E1000001001409038024000440040004800404B
:102E2000004C004000500040001401400078004079
:102E3000007C00400024F4002DE9F0479A46174634
:102E40000E460446089D4FF000094FF020084CE064
:102E5000681C4AD0FDF720FEA0EB0A00A8422AD841
:102E60004DB32068016849073FD5C069C0430005DC
:102E70003BD421684FF400600862216851E8000FDC
:102E800020F4D07041E80002002AF6D12068083012
:102E900050E8001F21F0010140E80012002AF5D19E
:102EA000C4F8788084F87490C4F87C80C4F880807A
:102EB0000320BDE8F087206850E8001F21F4D0719E
:102EC00040E80012002AF6D12068083050E8001FC0
:102ED00021F0010140E80012002AF5D1C4F8788001
:102EE00084F87490C4F87C80E2E72068C06936EA10
:102EF000000004D00020B842AAD00020D9E7012069
:102F0000F9E7FEE7090700284FEA116104DB00F149
:102F1000E02080F80014704700F00F0000F1E0207E
:102F200080F8141D70471FB500240094019402948A
:102F30000394FDF755FF01208DF80C001F218DF83B
:102F4000081087228DF809208DF80D008DF80000FB
:102F500068468DF80A408DF80E408DF801400194C6
:102F60008DF80B408DF80F40FDF70CFF0420FDF7A6
:102F700045FFFDF7DBFEFFF763FBFFF7F1F8FFF717
:102F8000BDF8FFF759F9FFF781F9FFF7A9F9FFF746
:102F9000F5F9FFF743FAFFF78FFAFFF7DBFAFFF7D0
:102FA000F5FAFFF70FFBFFF729FBFEE74FF0407044
:102FB000E1EE100A7047000000000000000001026E
:102FC00003040607080900000000010203040000D2
:102FD000F02F00080000002010000000340200085C
:102FE0000030000810000020800A00005002000895
:102FF0000100000010000000000000000024F400A8
:04000005080001F9F5
:00000001FF
